{
  "contractName": "FloatToken",
  "abi": [
    {
      "anonymous": false,
      "inputs": [
        {
          "indexed": false,
          "internalType": "address",
          "name": "previousAdmin",
          "type": "address"
        },
        {
          "indexed": false,
          "internalType": "address",
          "name": "newAdmin",
          "type": "address"
        }
      ],
      "name": "AdminChanged",
      "type": "event"
    },
    {
      "anonymous": false,
      "inputs": [
        {
          "indexed": true,
          "internalType": "address",
          "name": "owner",
          "type": "address"
        },
        {
          "indexed": true,
          "internalType": "address",
          "name": "spender",
          "type": "address"
        },
        {
          "indexed": false,
          "internalType": "uint256",
          "name": "value",
          "type": "uint256"
        }
      ],
      "name": "Approval",
      "type": "event"
    },
    {
      "anonymous": false,
      "inputs": [
        {
          "indexed": true,
          "internalType": "address",
          "name": "beacon",
          "type": "address"
        }
      ],
      "name": "BeaconUpgraded",
      "type": "event"
    },
    {
      "anonymous": false,
      "inputs": [
        {
          "indexed": true,
          "internalType": "address",
          "name": "delegator",
          "type": "address"
        },
        {
          "indexed": true,
          "internalType": "address",
          "name": "fromDelegate",
          "type": "address"
        },
        {
          "indexed": true,
          "internalType": "address",
          "name": "toDelegate",
          "type": "address"
        }
      ],
      "name": "DelegateChanged",
      "type": "event"
    },
    {
      "anonymous": false,
      "inputs": [
        {
          "indexed": true,
          "internalType": "address",
          "name": "delegate",
          "type": "address"
        },
        {
          "indexed": false,
          "internalType": "uint256",
          "name": "previousBalance",
          "type": "uint256"
        },
        {
          "indexed": false,
          "internalType": "uint256",
          "name": "newBalance",
          "type": "uint256"
        }
      ],
      "name": "DelegateVotesChanged",
      "type": "event"
    },
    {
      "anonymous": false,
      "inputs": [
        {
          "indexed": false,
          "internalType": "address",
          "name": "account",
          "type": "address"
        }
      ],
      "name": "Paused",
      "type": "event"
    },
    {
      "anonymous": false,
      "inputs": [
        {
          "indexed": true,
          "internalType": "bytes32",
          "name": "role",
          "type": "bytes32"
        },
        {
          "indexed": true,
          "internalType": "bytes32",
          "name": "previousAdminRole",
          "type": "bytes32"
        },
        {
          "indexed": true,
          "internalType": "bytes32",
          "name": "newAdminRole",
          "type": "bytes32"
        }
      ],
      "name": "RoleAdminChanged",
      "type": "event"
    },
    {
      "anonymous": false,
      "inputs": [
        {
          "indexed": true,
          "internalType": "bytes32",
          "name": "role",
          "type": "bytes32"
        },
        {
          "indexed": true,
          "internalType": "address",
          "name": "account",
          "type": "address"
        },
        {
          "indexed": true,
          "internalType": "address",
          "name": "sender",
          "type": "address"
        }
      ],
      "name": "RoleGranted",
      "type": "event"
    },
    {
      "anonymous": false,
      "inputs": [
        {
          "indexed": true,
          "internalType": "bytes32",
          "name": "role",
          "type": "bytes32"
        },
        {
          "indexed": true,
          "internalType": "address",
          "name": "account",
          "type": "address"
        },
        {
          "indexed": true,
          "internalType": "address",
          "name": "sender",
          "type": "address"
        }
      ],
      "name": "RoleRevoked",
      "type": "event"
    },
    {
      "anonymous": false,
      "inputs": [
        {
          "indexed": true,
          "internalType": "address",
          "name": "from",
          "type": "address"
        },
        {
          "indexed": true,
          "internalType": "address",
          "name": "to",
          "type": "address"
        },
        {
          "indexed": false,
          "internalType": "uint256",
          "name": "value",
          "type": "uint256"
        }
      ],
      "name": "Transfer",
      "type": "event"
    },
    {
      "anonymous": false,
      "inputs": [
        {
          "indexed": false,
          "internalType": "address",
          "name": "account",
          "type": "address"
        }
      ],
      "name": "Unpaused",
      "type": "event"
    },
    {
      "anonymous": false,
      "inputs": [
        {
          "indexed": true,
          "internalType": "address",
          "name": "implementation",
          "type": "address"
        }
      ],
      "name": "Upgraded",
      "type": "event"
    },
    {
      "inputs": [],
      "name": "DEFAULT_ADMIN_ROLE",
      "outputs": [
        {
          "internalType": "bytes32",
          "name": "",
          "type": "bytes32"
        }
      ],
      "stateMutability": "view",
      "type": "function",
      "constant": true
    },
    {
      "inputs": [],
      "name": "DOMAIN_SEPARATOR",
      "outputs": [
        {
          "internalType": "bytes32",
          "name": "",
          "type": "bytes32"
        }
      ],
      "stateMutability": "view",
      "type": "function",
      "constant": true
    },
    {
      "inputs": [],
      "name": "MINTER_ROLE",
      "outputs": [
        {
          "internalType": "bytes32",
          "name": "",
          "type": "bytes32"
        }
      ],
      "stateMutability": "view",
      "type": "function",
      "constant": true
    },
    {
      "inputs": [],
      "name": "PAUSER_ROLE",
      "outputs": [
        {
          "internalType": "bytes32",
          "name": "",
          "type": "bytes32"
        }
      ],
      "stateMutability": "view",
      "type": "function",
      "constant": true
    },
    {
      "inputs": [],
      "name": "UPGRADER_ROLE",
      "outputs": [
        {
          "internalType": "bytes32",
          "name": "",
          "type": "bytes32"
        }
      ],
      "stateMutability": "view",
      "type": "function",
      "constant": true
    },
    {
      "inputs": [
        {
          "internalType": "address",
          "name": "owner",
          "type": "address"
        },
        {
          "internalType": "address",
          "name": "spender",
          "type": "address"
        }
      ],
      "name": "allowance",
      "outputs": [
        {
          "internalType": "uint256",
          "name": "",
          "type": "uint256"
        }
      ],
      "stateMutability": "view",
      "type": "function",
      "constant": true
    },
    {
      "inputs": [
        {
          "internalType": "address",
          "name": "spender",
          "type": "address"
        },
        {
          "internalType": "uint256",
          "name": "amount",
          "type": "uint256"
        }
      ],
      "name": "approve",
      "outputs": [
        {
          "internalType": "bool",
          "name": "",
          "type": "bool"
        }
      ],
      "stateMutability": "nonpayable",
      "type": "function"
    },
    {
      "inputs": [
        {
          "internalType": "address",
          "name": "account",
          "type": "address"
        }
      ],
      "name": "balanceOf",
      "outputs": [
        {
          "internalType": "uint256",
          "name": "",
          "type": "uint256"
        }
      ],
      "stateMutability": "view",
      "type": "function",
      "constant": true
    },
    {
      "inputs": [
        {
          "internalType": "uint256",
          "name": "amount",
          "type": "uint256"
        }
      ],
      "name": "burn",
      "outputs": [],
      "stateMutability": "nonpayable",
      "type": "function"
    },
    {
      "inputs": [
        {
          "internalType": "address",
          "name": "account",
          "type": "address"
        },
        {
          "internalType": "uint256",
          "name": "amount",
          "type": "uint256"
        }
      ],
      "name": "burnFrom",
      "outputs": [],
      "stateMutability": "nonpayable",
      "type": "function"
    },
    {
      "inputs": [
        {
          "internalType": "address",
          "name": "account",
          "type": "address"
        },
        {
          "internalType": "uint32",
          "name": "pos",
          "type": "uint32"
        }
      ],
      "name": "checkpoints",
      "outputs": [
        {
          "components": [
            {
              "internalType": "uint32",
              "name": "fromBlock",
              "type": "uint32"
            },
            {
              "internalType": "uint224",
              "name": "votes",
              "type": "uint224"
            }
          ],
          "internalType": "struct ERC20VotesUpgradeable.Checkpoint",
          "name": "",
          "type": "tuple"
        }
      ],
      "stateMutability": "view",
      "type": "function",
      "constant": true
    },
    {
      "inputs": [],
      "name": "decimals",
      "outputs": [
        {
          "internalType": "uint8",
          "name": "",
          "type": "uint8"
        }
      ],
      "stateMutability": "view",
      "type": "function",
      "constant": true
    },
    {
      "inputs": [
        {
          "internalType": "address",
          "name": "spender",
          "type": "address"
        },
        {
          "internalType": "uint256",
          "name": "subtractedValue",
          "type": "uint256"
        }
      ],
      "name": "decreaseAllowance",
      "outputs": [
        {
          "internalType": "bool",
          "name": "",
          "type": "bool"
        }
      ],
      "stateMutability": "nonpayable",
      "type": "function"
    },
    {
      "inputs": [
        {
          "internalType": "address",
          "name": "delegatee",
          "type": "address"
        }
      ],
      "name": "delegate",
      "outputs": [],
      "stateMutability": "nonpayable",
      "type": "function"
    },
    {
      "inputs": [
        {
          "internalType": "address",
          "name": "delegatee",
          "type": "address"
        },
        {
          "internalType": "uint256",
          "name": "nonce",
          "type": "uint256"
        },
        {
          "internalType": "uint256",
          "name": "expiry",
          "type": "uint256"
        },
        {
          "internalType": "uint8",
          "name": "v",
          "type": "uint8"
        },
        {
          "internalType": "bytes32",
          "name": "r",
          "type": "bytes32"
        },
        {
          "internalType": "bytes32",
          "name": "s",
          "type": "bytes32"
        }
      ],
      "name": "delegateBySig",
      "outputs": [],
      "stateMutability": "nonpayable",
      "type": "function"
    },
    {
      "inputs": [
        {
          "internalType": "address",
          "name": "account",
          "type": "address"
        }
      ],
      "name": "delegates",
      "outputs": [
        {
          "internalType": "address",
          "name": "",
          "type": "address"
        }
      ],
      "stateMutability": "view",
      "type": "function",
      "constant": true
    },
    {
      "inputs": [
        {
          "internalType": "uint256",
          "name": "blockNumber",
          "type": "uint256"
        }
      ],
      "name": "getPastTotalSupply",
      "outputs": [
        {
          "internalType": "uint256",
          "name": "",
          "type": "uint256"
        }
      ],
      "stateMutability": "view",
      "type": "function",
      "constant": true
    },
    {
      "inputs": [
        {
          "internalType": "address",
          "name": "account",
          "type": "address"
        },
        {
          "internalType": "uint256",
          "name": "blockNumber",
          "type": "uint256"
        }
      ],
      "name": "getPastVotes",
      "outputs": [
        {
          "internalType": "uint256",
          "name": "",
          "type": "uint256"
        }
      ],
      "stateMutability": "view",
      "type": "function",
      "constant": true
    },
    {
      "inputs": [
        {
          "internalType": "bytes32",
          "name": "role",
          "type": "bytes32"
        }
      ],
      "name": "getRoleAdmin",
      "outputs": [
        {
          "internalType": "bytes32",
          "name": "",
          "type": "bytes32"
        }
      ],
      "stateMutability": "view",
      "type": "function",
      "constant": true
    },
    {
      "inputs": [
        {
          "internalType": "address",
          "name": "account",
          "type": "address"
        }
      ],
      "name": "getVotes",
      "outputs": [
        {
          "internalType": "uint256",
          "name": "",
          "type": "uint256"
        }
      ],
      "stateMutability": "view",
      "type": "function",
      "constant": true
    },
    {
      "inputs": [
        {
          "internalType": "bytes32",
          "name": "role",
          "type": "bytes32"
        },
        {
          "internalType": "address",
          "name": "account",
          "type": "address"
        }
      ],
      "name": "grantRole",
      "outputs": [],
      "stateMutability": "nonpayable",
      "type": "function"
    },
    {
      "inputs": [
        {
          "internalType": "bytes32",
          "name": "role",
          "type": "bytes32"
        },
        {
          "internalType": "address",
          "name": "account",
          "type": "address"
        }
      ],
      "name": "hasRole",
      "outputs": [
        {
          "internalType": "bool",
          "name": "",
          "type": "bool"
        }
      ],
      "stateMutability": "view",
      "type": "function",
      "constant": true
    },
    {
      "inputs": [
        {
          "internalType": "address",
          "name": "spender",
          "type": "address"
        },
        {
          "internalType": "uint256",
          "name": "addedValue",
          "type": "uint256"
        }
      ],
      "name": "increaseAllowance",
      "outputs": [
        {
          "internalType": "bool",
          "name": "",
          "type": "bool"
        }
      ],
      "stateMutability": "nonpayable",
      "type": "function"
    },
    {
      "inputs": [],
      "name": "name",
      "outputs": [
        {
          "internalType": "string",
          "name": "",
          "type": "string"
        }
      ],
      "stateMutability": "view",
      "type": "function",
      "constant": true
    },
    {
      "inputs": [
        {
          "internalType": "address",
          "name": "owner",
          "type": "address"
        }
      ],
      "name": "nonces",
      "outputs": [
        {
          "internalType": "uint256",
          "name": "",
          "type": "uint256"
        }
      ],
      "stateMutability": "view",
      "type": "function",
      "constant": true
    },
    {
      "inputs": [
        {
          "internalType": "address",
          "name": "account",
          "type": "address"
        }
      ],
      "name": "numCheckpoints",
      "outputs": [
        {
          "internalType": "uint32",
          "name": "",
          "type": "uint32"
        }
      ],
      "stateMutability": "view",
      "type": "function",
      "constant": true
    },
    {
      "inputs": [],
      "name": "paused",
      "outputs": [
        {
          "internalType": "bool",
          "name": "",
          "type": "bool"
        }
      ],
      "stateMutability": "view",
      "type": "function",
      "constant": true
    },
    {
      "inputs": [
        {
          "internalType": "address",
          "name": "owner",
          "type": "address"
        },
        {
          "internalType": "address",
          "name": "spender",
          "type": "address"
        },
        {
          "internalType": "uint256",
          "name": "value",
          "type": "uint256"
        },
        {
          "internalType": "uint256",
          "name": "deadline",
          "type": "uint256"
        },
        {
          "internalType": "uint8",
          "name": "v",
          "type": "uint8"
        },
        {
          "internalType": "bytes32",
          "name": "r",
          "type": "bytes32"
        },
        {
          "internalType": "bytes32",
          "name": "s",
          "type": "bytes32"
        }
      ],
      "name": "permit",
      "outputs": [],
      "stateMutability": "nonpayable",
      "type": "function"
    },
    {
      "inputs": [
        {
          "internalType": "bytes32",
          "name": "role",
          "type": "bytes32"
        },
        {
          "internalType": "address",
          "name": "account",
          "type": "address"
        }
      ],
      "name": "renounceRole",
      "outputs": [],
      "stateMutability": "nonpayable",
      "type": "function"
    },
    {
      "inputs": [
        {
          "internalType": "bytes32",
          "name": "role",
          "type": "bytes32"
        },
        {
          "internalType": "address",
          "name": "account",
          "type": "address"
        }
      ],
      "name": "revokeRole",
      "outputs": [],
      "stateMutability": "nonpayable",
      "type": "function"
    },
    {
      "inputs": [
        {
          "internalType": "bytes4",
          "name": "interfaceId",
          "type": "bytes4"
        }
      ],
      "name": "supportsInterface",
      "outputs": [
        {
          "internalType": "bool",
          "name": "",
          "type": "bool"
        }
      ],
      "stateMutability": "view",
      "type": "function",
      "constant": true
    },
    {
      "inputs": [],
      "name": "symbol",
      "outputs": [
        {
          "internalType": "string",
          "name": "",
          "type": "string"
        }
      ],
      "stateMutability": "view",
      "type": "function",
      "constant": true
    },
    {
      "inputs": [],
      "name": "totalSupply",
      "outputs": [
        {
          "internalType": "uint256",
          "name": "",
          "type": "uint256"
        }
      ],
      "stateMutability": "view",
      "type": "function",
      "constant": true
    },
    {
      "inputs": [
        {
          "internalType": "address",
          "name": "sender",
          "type": "address"
        },
        {
          "internalType": "address",
          "name": "recipient",
          "type": "address"
        },
        {
          "internalType": "uint256",
          "name": "amount",
          "type": "uint256"
        }
      ],
      "name": "transferFrom",
      "outputs": [
        {
          "internalType": "bool",
          "name": "",
          "type": "bool"
        }
      ],
      "stateMutability": "nonpayable",
      "type": "function"
    },
    {
      "inputs": [
        {
          "internalType": "address",
          "name": "newImplementation",
          "type": "address"
        }
      ],
      "name": "upgradeTo",
      "outputs": [],
      "stateMutability": "nonpayable",
      "type": "function"
    },
    {
      "inputs": [
        {
          "internalType": "address",
          "name": "newImplementation",
          "type": "address"
        },
        {
          "internalType": "bytes",
          "name": "data",
          "type": "bytes"
        }
      ],
      "name": "upgradeToAndCall",
      "outputs": [],
      "stateMutability": "payable",
      "type": "function",
      "payable": true
    },
    {
      "inputs": [
        {
          "internalType": "string",
          "name": "name",
          "type": "string"
        },
        {
          "internalType": "string",
          "name": "symbol",
          "type": "string"
        },
        {
          "internalType": "address",
          "name": "stakerAddress",
          "type": "address"
        }
      ],
      "name": "initialize",
      "outputs": [],
      "stateMutability": "nonpayable",
      "type": "function"
    },
    {
      "inputs": [
        {
          "internalType": "address",
          "name": "to",
          "type": "address"
        },
        {
          "internalType": "uint256",
          "name": "amount",
          "type": "uint256"
        }
      ],
      "name": "mint",
      "outputs": [],
      "stateMutability": "nonpayable",
      "type": "function"
    },
    {
      "inputs": [],
      "name": "pause",
      "outputs": [],
      "stateMutability": "nonpayable",
      "type": "function"
    },
    {
      "inputs": [],
      "name": "unpause",
      "outputs": [],
      "stateMutability": "nonpayable",
      "type": "function"
    },
    {
      "inputs": [
        {
          "internalType": "address",
          "name": "recipient",
          "type": "address"
        },
        {
          "internalType": "uint256",
          "name": "amount",
          "type": "uint256"
        }
      ],
      "name": "transfer",
      "outputs": [
        {
          "internalType": "bool",
          "name": "",
          "type": "bool"
        }
      ],
      "stateMutability": "nonpayable",
      "type": "function"
    }
  ],
  "bytecode": "0x608060405234801561001057600080fd5b50613665806100206000396000f3fe6080604052600436106102465760003560e01c80635c975abb11610139578063a217fddf116100b6578063d53913931161007a578063d5391393146106e0578063d547741f14610702578063dd62ed3e14610722578063e63ab1e914610768578063f1127ed81461078a578063f72c0d8b146107d457610246565b8063a217fddf1461064b578063a457c2d714610660578063a9059cbb14610680578063c3cda520146106a0578063d505accf146106c057610246565b80638456cb59116100fd5780638456cb59146105c15780638e539e8c146105d657806391d14854146105f657806395d89b41146106165780639ab24eb01461062b57610246565b80635c975abb146104fe5780636fcfff451461051657806370a082311461054b57806379cc6790146105815780637ecebe00146105a157610246565b806336568abe116101c757806340c10f191161018b57806340c10f191461043957806342966c68146104595780634f1ef28614610479578063587cde1e1461048c5780635c19a95c146104de57610246565b806336568abe146103a45780633659cfe6146103c457806339509351146103e45780633a46b1a8146104045780633f4ba83a1461042457610246565b806323b872dd1161020e57806323b872dd14610303578063248a9ca3146103235780632f2ff15d14610353578063313ce567146103735780633644e5151461038f57610246565b806301ffc9a71461024b57806306fdde0314610280578063077f224a146102a2578063095ea7b3146102c457806318160ddd146102e4575b600080fd5b34801561025757600080fd5b5061026b6102663660046132e0565b610808565b60405190151581526020015b60405180910390f35b34801561028c57600080fd5b50610295610841565b6040516102779190613417565b3480156102ae57600080fd5b506102c26102bd366004613308565b6108d3565b005b3480156102d057600080fd5b5061026b6102df3660046131e8565b610abf565b3480156102f057600080fd5b506035545b604051908152602001610277565b34801561030f57600080fd5b5061026b61031e366004613087565b610ad5565b34801561032f57600080fd5b506102f561033e3660046132a6565b600090815260fb602052604090206001015490565b34801561035f57600080fd5b506102c261036e3660046132be565b610b81565b34801561037f57600080fd5b5060405160128152602001610277565b34801561039b57600080fd5b506102f5610bad565b3480156103b057600080fd5b506102c26103bf3660046132be565b610bbc565b3480156103d057600080fd5b506102c26103df36600461303b565b610c3a565b3480156103f057600080fd5b5061026b6103ff3660046131e8565b610c61565b34801561041057600080fd5b506102f561041f3660046131e8565b610c9d565b34801561043057600080fd5b506102c2610d11565b34801561044557600080fd5b506102c26104543660046131e8565b610d32565b34801561046557600080fd5b506102c26104743660046132a6565b610d55565b6102c261048736600461312b565b610d5f565b34801561049857600080fd5b506104c66104a736600461303b565b6001600160a01b03908116600090815261019460205260409020541690565b6040516001600160a01b039091168152602001610277565b3480156104ea57600080fd5b506102c26104f936600461303b565b610d74565b34801561050a57600080fd5b5060975460ff1661026b565b34801561052257600080fd5b5061053661053136600461303b565b610d7e565b60405163ffffffff9091168152602001610277565b34801561055757600080fd5b506102f561056636600461303b565b6001600160a01b031660009081526033602052604090205490565b34801561058d57600080fd5b506102c261059c3660046131e8565b610da1565b3480156105ad57600080fd5b506102f56105bc36600461303b565b610e22565b3480156105cd57600080fd5b506102c2610e41565b3480156105e257600080fd5b506102f56105f13660046132a6565b610e62565b34801561060257600080fd5b5061026b6106113660046132be565b610ebf565b34801561062257600080fd5b50610295610eea565b34801561063757600080fd5b506102f561064636600461303b565b610ef9565b34801561065757600080fd5b506102f5600081565b34801561066c57600080fd5b5061026b61067b3660046131e8565b610f90565b34801561068c57600080fd5b5061026b61069b3660046131e8565b611029565b3480156106ac57600080fd5b506102c26106bb366004613211565b611035565b3480156106cc57600080fd5b506102c26106db3660046130c2565b61116b565b3480156106ec57600080fd5b506102f560008051602061361083398151915281565b34801561070e57600080fd5b506102c261071d3660046132be565b6112b2565b34801561072e57600080fd5b506102f561073d366004613055565b6001600160a01b03918216600090815260346020908152604080832093909416825291909152205490565b34801561077457600080fd5b506102f56000805160206135c983398151915281565b34801561079657600080fd5b506107aa6107a5366004613268565b6112d8565b60408051825163ffffffff1681526020928301516001600160e01b03169281019290925201610277565b3480156107e057600080fd5b506102f57f189ab7a9244df0848122154315af71fe140f3db0fe014031783b0946b8c9d2e381565b60006001600160e01b03198216637965db0b60e01b148061083957506301ffc9a760e01b6001600160e01b03198316145b90505b919050565b6060603680546108509061353d565b80601f016020809104026020016040519081016040528092919081815260200182805461087c9061353d565b80156108c95780601f1061089e576101008083540402835291602001916108c9565b820191906000526020600020905b8154815290600101906020018083116108ac57829003601f168201915b5050505050905090565b600054610100900460ff16806108ec575060005460ff16155b6109115760405162461bcd60e51b81526004016109089061344a565b60405180910390fd5b600054610100900460ff16158015610933576000805461ffff19166101011790555b6109a686868080601f01602080910402602001604051908101604052809392919081815260200183838082843760009201919091525050604080516020601f8a01819004810282018101909252888152925088915087908190840183828082843760009201919091525061136b92505050565b6109ae6113ea565b6109b6611465565b6109be6114cc565b6109fd86868080601f01602080910402602001604051908101604052809392919081815260200183838082843760009201919091525061152b92505050565b610a056113ea565b610a10600033610bbc565b610a2860008051602061361083398151915233610bbc565b610a406000805160206135c983398151915233610bbc565b610a4b6000836115cb565b610a63600080516020613610833981519152836115cb565b610a7b6000805160206135c9833981519152836115cb565b610aa57f189ab7a9244df0848122154315af71fe140f3db0fe014031783b0946b8c9d2e3336115cb565b8015610ab7576000805461ff00191690555b505050505050565b6000610acc3384846115d5565b50600192915050565b6000610ae28484846116f9565b6001600160a01b038416600090815260346020908152604080832033845290915290205482811015610b675760405162461bcd60e51b815260206004820152602860248201527f45524332303a207472616e7366657220616d6f756e74206578636565647320616044820152676c6c6f77616e636560c01b6064820152608401610908565b610b7485338584036115d5565b60019150505b9392505050565b600082815260fb6020526040902060010154610b9e81335b6118de565b610ba88383611942565b505050565b6000610bb76119c8565b905090565b6001600160a01b0381163314610c2c5760405162461bcd60e51b815260206004820152602f60248201527f416363657373436f6e74726f6c3a2063616e206f6e6c792072656e6f756e636560448201526e103937b632b9903337b91039b2b63360891b6064820152608401610908565b610c368282611a45565b5050565b610c4381611aac565b610c5e81604051806020016040528060008152506000611ad7565b50565b3360008181526034602090815260408083206001600160a01b03871684529091528120549091610acc918590610c98908690613498565b6115d5565b6000438210610cee5760405162461bcd60e51b815260206004820152601f60248201527f4552433230566f7465733a20626c6f636b206e6f7420796574206d696e6564006044820152606401610908565b6001600160a01b038316600090815261019560205260409020610b7a9083611c5f565b6000805160206135c9833981519152610d2a8133610b99565b610c5e611d38565b600080516020613610833981519152610d4b8133610b99565b610ba88383611dcb565b610c5e3382611dd5565b610d6882611aac565b610c3682826001611ad7565b610c5e3382611ddf565b6001600160a01b0381166000908152610195602052604081205461083990611e5a565b6000610dad833361073d565b905081811015610e0b5760405162461bcd60e51b8152602060048201526024808201527f45524332303a206275726e20616d6f756e74206578636565647320616c6c6f77604482015263616e636560e01b6064820152608401610908565b610e1883338484036115d5565b610ba88383611dd5565b6001600160a01b03811660009081526101616020526040812054610839565b6000805160206135c9833981519152610e5a8133610b99565b610c5e611ec3565b6000438210610eb35760405162461bcd60e51b815260206004820152601f60248201527f4552433230566f7465733a20626c6f636b206e6f7420796574206d696e6564006044820152606401610908565b61083961019683611c5f565b600091825260fb602090815260408084206001600160a01b0393909316845291905290205460ff1690565b6060603780546108509061353d565b6001600160a01b038116600090815261019560205260408120548015610f7d576001600160a01b038316600090815261019560205260409020610f3d6001836134e3565b81548110610f5b57634e487b7160e01b600052603260045260246000fd5b60009182526020909120015464010000000090046001600160e01b0316610f80565b60005b6001600160e01b03169392505050565b3360009081526034602090815260408083206001600160a01b0386168452909152812054828110156110125760405162461bcd60e51b815260206004820152602560248201527f45524332303a2064656372656173656420616c6c6f77616e63652062656c6f77604482015264207a65726f60d81b6064820152608401610908565b61101f33858584036115d5565b5060019392505050565b6000610b7a8383611f3e565b834211156110855760405162461bcd60e51b815260206004820152601d60248201527f4552433230566f7465733a207369676e617475726520657870697265640000006044820152606401610908565b604080517fe48329057bfd03d55e49b547132e39cffd9c1820ad7b9d4c5307691425d15adf60208201526001600160a01b0388169181019190915260608101869052608081018590526000906110ff906110f79060a00160405160208183030381529060405280519060200120611f4b565b858585611f99565b905061110a81612142565b86146111585760405162461bcd60e51b815260206004820152601960248201527f4552433230566f7465733a20696e76616c6964206e6f6e6365000000000000006044820152606401610908565b6111628188611ddf565b50505050505050565b834211156111bb5760405162461bcd60e51b815260206004820152601d60248201527f45524332305065726d69743a206578706972656420646561646c696e650000006044820152606401610908565b6000610162548888886111cd8c612142565b6040805160208101969096526001600160a01b0394851690860152929091166060840152608083015260a082015260c0810186905260e001604051602081830303815290604052805190602001209050600061122882611f4b565b9050600061123882878787611f99565b9050896001600160a01b0316816001600160a01b03161461129b5760405162461bcd60e51b815260206004820152601e60248201527f45524332305065726d69743a20696e76616c6964207369676e617475726500006044820152606401610908565b6112a68a8a8a6115d5565b50505050505050505050565b600082815260fb60205260409020600101546112ce8133610b99565b610ba88383611a45565b60408051808201909152600080825260208201526001600160a01b038316600090815261019560205260409020805463ffffffff841690811061132b57634e487b7160e01b600052603260045260246000fd5b60009182526020918290206040805180820190915291015463ffffffff8116825264010000000090046001600160e01b0316918101919091529392505050565b600054610100900460ff1680611384575060005460ff16155b6113a05760405162461bcd60e51b81526004016109089061344a565b600054610100900460ff161580156113c2576000805461ffff19166101011790555b6113ca61216b565b6113d483836121d5565b8015610ba8576000805461ff0019169055505050565b600054610100900460ff1680611403575060005460ff16155b61141f5760405162461bcd60e51b81526004016109089061344a565b600054610100900460ff16158015611441576000805461ffff19166101011790555b61144961216b565b61145161216b565b8015610c5e576000805461ff001916905550565b600054610100900460ff168061147e575060005460ff16155b61149a5760405162461bcd60e51b81526004016109089061344a565b600054610100900460ff161580156114bc576000805461ffff19166101011790555b6114c461216b565b61145161226a565b600054610100900460ff16806114e5575060005460ff16155b6115015760405162461bcd60e51b81526004016109089061344a565b600054610100900460ff16158015611523576000805461ffff19166101011790555b61144161216b565b600054610100900460ff1680611544575060005460ff16155b6115605760405162461bcd60e51b81526004016109089061344a565b600054610100900460ff16158015611582576000805461ffff19166101011790555b61158a61216b565b6115ad82604051806040016040528060018152602001603160f81b8152506122df565b6115b68261236b565b8015610c36576000805461ff00191690555050565b610c368282611942565b6001600160a01b0383166116375760405162461bcd60e51b8152602060048201526024808201527f45524332303a20617070726f76652066726f6d20746865207a65726f206164646044820152637265737360e01b6064820152608401610908565b6001600160a01b0382166116985760405162461bcd60e51b815260206004820152602260248201527f45524332303a20617070726f766520746f20746865207a65726f206164647265604482015261737360f01b6064820152608401610908565b6001600160a01b0383811660008181526034602090815260408083209487168084529482529182902085905590518481527f8c5be1e5ebec7d5bd14f71427d1e84f3dd0314c0f7b2291e5b200ac8c7c3b925910160405180910390a3505050565b6001600160a01b03831661175d5760405162461bcd60e51b815260206004820152602560248201527f45524332303a207472616e736665722066726f6d20746865207a65726f206164604482015264647265737360d81b6064820152608401610908565b6001600160a01b0382166117bf5760405162461bcd60e51b815260206004820152602360248201527f45524332303a207472616e7366657220746f20746865207a65726f206164647260448201526265737360e81b6064820152608401610908565b6117ca8383836123fc565b6001600160a01b038316600090815260336020526040902054818110156118425760405162461bcd60e51b815260206004820152602660248201527f45524332303a207472616e7366657220616d6f756e7420657863656564732062604482015265616c616e636560d01b6064820152608401610908565b6001600160a01b03808516600090815260336020526040808220858503905591851681529081208054849290611879908490613498565b92505081905550826001600160a01b0316846001600160a01b03167fddf252ad1be2c89b69c2b068fc378daa952ba7f163c4a11628f55a4df523b3ef846040516118c591815260200190565b60405180910390a36118d884848461246a565b50505050565b6118e88282610ebf565b610c3657611900816001600160a01b03166014612475565b61190b836020612475565b60405160200161191c9291906133a2565b60408051601f198184030181529082905262461bcd60e51b825261090891600401613417565b61194c8282610ebf565b610c3657600082815260fb602090815260408083206001600160a01b03851684529091529020805460ff191660011790556119843390565b6001600160a01b0316816001600160a01b0316837f2f8788117e7eff1d82e926ec794901d17c78024a50270940304540a733656f0d60405160405180910390a45050565b6000610bb77f8b73c3c69bb8fe3d512ecc4cf759cc79239f7b179b0ffacaa9a75d522b39400f6119f861012d5490565b61012e546040805160208101859052908101839052606081018290524660808201523060a082015260009060c0016040516020818303038152906040528051906020012090509392505050565b611a4f8282610ebf565b15610c3657600082815260fb602090815260408083206001600160a01b0385168085529252808320805460ff1916905551339285917ff6391f5c32d9c69d2a47ea670b442974b53935d1edc7fd64eb21e047a839171b9190a45050565b7f189ab7a9244df0848122154315af71fe140f3db0fe014031783b0946b8c9d2e3610c368133610b99565b6000611b0a7f360894a13ba1a3210667c828492db98dca3e2076cc3735a920a3ca505d382bbc546001600160a01b031690565b9050611b1584612657565b600083511180611b225750815b15611b3357611b3184846126fc565b505b7f4910fdfa16fed3260ed0e7147f7cc6da11a60208b5b9406d12a635614ffd9143805460ff16611c5857805460ff191660011781556040516001600160a01b0383166024820152611bb290869060440160408051601f198184030181529190526020810180516001600160e01b0316631b2ce7f360e11b1790526126fc565b50805460ff191681557f360894a13ba1a3210667c828492db98dca3e2076cc3735a920a3ca505d382bbc546001600160a01b03838116911614611c4f5760405162461bcd60e51b815260206004820152602f60248201527f45524331393637557067726164653a207570677261646520627265616b73206660448201526e75727468657220757067726164657360881b6064820152608401610908565b611c58856127de565b5050505050565b8154600090815b81811015611cd1576000611c7a828461281e565b905084868281548110611c9d57634e487b7160e01b600052603260045260246000fd5b60009182526020909120015463ffffffff161115611cbd57809250611ccb565b611cc8816001613498565b91505b50611c66565b8115611d235784611ce36001846134e3565b81548110611d0157634e487b7160e01b600052603260045260246000fd5b60009182526020909120015464010000000090046001600160e01b0316611d26565b60005b6001600160e01b031695945050505050565b60975460ff16611d815760405162461bcd60e51b815260206004820152601460248201527314185d5cd8589b194e881b9bdd081c185d5cd95960621b6044820152606401610908565b6097805460ff191690557f5db9ee0a495bf2e6ff9c91a7834c1ba4fdd244a5e8aa4e537bd38aeae4b073aa335b6040516001600160a01b03909116815260200160405180910390a1565b610c368282612875565b610c368282612900565b6001600160a01b0382811660008181526101946020818152604080842080546033845282862054949093528787166001600160a01b03198416811790915590519190951694919391928592917f3134e8a2e6d97e929a7e54011ea5485d7d196dd5f0ba4d4ef95803e8e3fc257f9190a46118d8828483612919565b600063ffffffff821115611ebf5760405162461bcd60e51b815260206004820152602660248201527f53616665436173743a2076616c756520646f65736e27742066697420696e203360448201526532206269747360d01b6064820152608401610908565b5090565b60975460ff1615611f095760405162461bcd60e51b815260206004820152601060248201526f14185d5cd8589b194e881c185d5cd95960821b6044820152606401610908565b6097805460ff191660011790557f62e78cea01bee320cd4e420270b5ea74000d11b0c9f74754ebdbfc544b05a258611dae3390565b6000610acc3384846116f9565b6000610839611f586119c8565b8360405161190160f01b6020820152602281018390526042810182905260009060620160405160208183030381529060405280519060200120905092915050565b60007f7fffffffffffffffffffffffffffffff5d576e7357a4501ddfe92f46681b20a08211156120165760405162461bcd60e51b815260206004820152602260248201527f45434453413a20696e76616c6964207369676e6174757265202773272076616c604482015261756560f01b6064820152608401610908565b8360ff16601b148061202b57508360ff16601c145b6120825760405162461bcd60e51b815260206004820152602260248201527f45434453413a20696e76616c6964207369676e6174757265202776272076616c604482015261756560f01b6064820152608401610908565b6040805160008082526020820180845288905260ff871692820192909252606081018590526080810184905260019060a0016020604051602081039080840390855afa1580156120d6573d6000803e3d6000fd5b5050604051601f1901519150506001600160a01b0381166121395760405162461bcd60e51b815260206004820152601860248201527f45434453413a20696e76616c6964207369676e617475726500000000000000006044820152606401610908565b95945050505050565b6001600160a01b0381166000908152610161602052604090208054600181018255905b50919050565b600054610100900460ff1680612184575060005460ff16155b6121a05760405162461bcd60e51b81526004016109089061344a565b600054610100900460ff16158015611451576000805461ffff19166101011790558015610c5e576000805461ff001916905550565b600054610100900460ff16806121ee575060005460ff16155b61220a5760405162461bcd60e51b81526004016109089061344a565b600054610100900460ff1615801561222c576000805461ffff19166101011790555b825161223f906036906020860190612f3c565b508151612253906037906020850190612f3c565b508015610ba8576000805461ff0019169055505050565b600054610100900460ff1680612283575060005460ff16155b61229f5760405162461bcd60e51b81526004016109089061344a565b600054610100900460ff161580156122c1576000805461ffff19166101011790555b6097805460ff191690558015610c5e576000805461ff001916905550565b600054610100900460ff16806122f8575060005460ff16155b6123145760405162461bcd60e51b81526004016109089061344a565b600054610100900460ff16158015612336576000805461ffff19166101011790555b825160208085019190912083519184019190912061012d9190915561012e558015610ba8576000805461ff0019169055505050565b600054610100900460ff1680612384575060005460ff16155b6123a05760405162461bcd60e51b81526004016109089061344a565b600054610100900460ff161580156123c2576000805461ffff19166101011790555b7f6e71edae12b1b97f4d1f60370fef10105fa2faae0126114a169c64845d6126c9610162558015610c36576000805461ff00191690555050565b60975460ff161580612421575061242160008051602061361083398151915233610611565b6124655760405162461bcd60e51b81526020600482015260156024820152742830bab9b2b21030b732103737ba1036b4b73a32b960591b6044820152606401610908565b610ba8565b610ba8838383612a58565b606060006124848360026134c4565b61248f906002613498565b67ffffffffffffffff8111156124b557634e487b7160e01b600052604160045260246000fd5b6040519080825280601f01601f1916602001820160405280156124df576020820181803683370190505b509050600360fc1b8160008151811061250857634e487b7160e01b600052603260045260246000fd5b60200101906001600160f81b031916908160001a905350600f60fb1b8160018151811061254557634e487b7160e01b600052603260045260246000fd5b60200101906001600160f81b031916908160001a90535060006125698460026134c4565b612574906001613498565b90505b6001811115612608576f181899199a1a9b1b9c1cb0b131b232b360811b85600f16601081106125b657634e487b7160e01b600052603260045260246000fd5b1a60f81b8282815181106125da57634e487b7160e01b600052603260045260246000fd5b60200101906001600160f81b031916908160001a90535060049490941c9361260181613526565b9050612577565b508315610b7a5760405162461bcd60e51b815260206004820181905260248201527f537472696e67733a20686578206c656e67746820696e73756666696369656e746044820152606401610908565b803b6126bb5760405162461bcd60e51b815260206004820152602d60248201527f455243313936373a206e657720696d706c656d656e746174696f6e206973206e60448201526c1bdd08184818dbdb9d1c9858dd609a1b6064820152608401610908565b7f360894a13ba1a3210667c828492db98dca3e2076cc3735a920a3ca505d382bbc80546001600160a01b0319166001600160a01b0392909216919091179055565b6060823b61275b5760405162461bcd60e51b815260206004820152602660248201527f416464726573733a2064656c65676174652063616c6c20746f206e6f6e2d636f6044820152651b9d1c9858dd60d21b6064820152608401610908565b600080846001600160a01b0316846040516127769190613386565b600060405180830381855af49150503d80600081146127b1576040519150601f19603f3d011682016040523d82523d6000602084013e6127b6565b606091505b509150915061213982826040518060600160405280602781526020016135e960279139612a8b565b6127e781612657565b6040516001600160a01b038216907fbc7cd75a20ee27fd9adebab32041f755214dbc6bffa90cc0225b39da2e5c2d3b90600090a250565b6000600261282c8184613572565b612837600286613572565b6128419190613498565b61284b91906134b0565b6128566002846134b0565b6128616002866134b0565b61286b9190613498565b610b7a9190613498565b61287f8282612ac4565b6035546001600160e01b0310156128f15760405162461bcd60e51b815260206004820152603060248201527f4552433230566f7465733a20746f74616c20737570706c79207269736b73206f60448201526f766572666c6f77696e6720766f74657360801b6064820152608401610908565b6118d8610196612bb783612bc3565b61290a8282612d66565b6118d8610196612ec783612bc3565b816001600160a01b0316836001600160a01b03161415801561293b5750600081115b15610ba8576001600160a01b038316156129ca576001600160a01b038316600090815261019560205260408120819061297790612ec785612bc3565b91509150846001600160a01b03167fdec2bacdd2f05b59de34da9b523dff8be42e5e38e818c82fdb0bae774387a72483836040516129bf929190918252602082015260400190565b60405180910390a250505b6001600160a01b03821615610ba8576001600160a01b0382166000908152610195602052604081208190612a0190612bb785612bc3565b91509150836001600160a01b03167fdec2bacdd2f05b59de34da9b523dff8be42e5e38e818c82fdb0bae774387a7248383604051612a49929190918252602082015260400190565b60405180910390a25050505050565b6001600160a01b0383811660009081526101946020526040808220548584168352912054610ba892918216911683612919565b60608315612a9a575081610b7a565b825115612aaa5782518084602001fd5b8160405162461bcd60e51b81526004016109089190613417565b6001600160a01b038216612b1a5760405162461bcd60e51b815260206004820152601f60248201527f45524332303a206d696e7420746f20746865207a65726f2061646472657373006044820152606401610908565b612b26600083836123fc565b8060356000828254612b389190613498565b90915550506001600160a01b03821660009081526033602052604081208054839290612b65908490613498565b90915550506040518181526001600160a01b038316906000907fddf252ad1be2c89b69c2b068fc378daa952ba7f163c4a11628f55a4df523b3ef9060200160405180910390a3610c366000838361246a565b6000610b7a8284613498565b825460009081908015612c1c5785612bdc6001836134e3565b81548110612bfa57634e487b7160e01b600052603260045260246000fd5b60009182526020909120015464010000000090046001600160e01b0316612c1f565b60005b6001600160e01b03169250612c3883858763ffffffff16565b9150600081118015612c8457504386612c526001846134e3565b81548110612c7057634e487b7160e01b600052603260045260246000fd5b60009182526020909120015463ffffffff16145b15612cf257612c9282612ed3565b86612c9e6001846134e3565b81548110612cbc57634e487b7160e01b600052603260045260246000fd5b9060005260206000200160000160046101000a8154816001600160e01b0302191690836001600160e01b03160217905550612d5d565b856040518060400160405280612d0743611e5a565b63ffffffff168152602001612d1b85612ed3565b6001600160e01b0390811690915282546001810184556000938452602093849020835194909301519091166401000000000263ffffffff909316929092179101555b50935093915050565b6001600160a01b038216612dc65760405162461bcd60e51b815260206004820152602160248201527f45524332303a206275726e2066726f6d20746865207a65726f206164647265736044820152607360f81b6064820152608401610908565b612dd2826000836123fc565b6001600160a01b03821660009081526033602052604090205481811015612e465760405162461bcd60e51b815260206004820152602260248201527f45524332303a206275726e20616d6f756e7420657863656564732062616c616e604482015261636560f01b6064820152608401610908565b6001600160a01b0383166000908152603360205260408120838303905560358054849290612e759084906134e3565b90915550506040518281526000906001600160a01b038516907fddf252ad1be2c89b69c2b068fc378daa952ba7f163c4a11628f55a4df523b3ef9060200160405180910390a3610ba88360008461246a565b6000610b7a82846134e3565b60006001600160e01b03821115611ebf5760405162461bcd60e51b815260206004820152602760248201527f53616665436173743a2076616c756520646f65736e27742066697420696e20326044820152663234206269747360c81b6064820152608401610908565b828054612f489061353d565b90600052602060002090601f016020900481019282612f6a5760008555612fb0565b82601f10612f8357805160ff1916838001178555612fb0565b82800160010185558215612fb0579182015b82811115612fb0578251825591602001919060010190612f95565b50611ebf9291505b80821115611ebf5760008155600101612fb8565b80356001600160a01b038116811461083c57600080fd5b60008083601f840112612ff4578182fd5b50813567ffffffffffffffff81111561300b578182fd5b60208301915083602082850101111561302357600080fd5b9250929050565b803560ff8116811461083c57600080fd5b60006020828403121561304c578081fd5b610b7a82612fcc565b60008060408385031215613067578081fd5b61307083612fcc565b915061307e60208401612fcc565b90509250929050565b60008060006060848603121561309b578081fd5b6130a484612fcc565b92506130b260208501612fcc565b9150604084013590509250925092565b600080600080600080600060e0888a0312156130dc578283fd5b6130e588612fcc565b96506130f360208901612fcc565b9550604088013594506060880135935061310f6080890161302a565b925060a0880135915060c0880135905092959891949750929550565b6000806040838503121561313d578182fd5b61314683612fcc565b9150602083013567ffffffffffffffff80821115613162578283fd5b818501915085601f830112613175578283fd5b813581811115613187576131876135b2565b604051601f8201601f19908116603f011681019083821181831017156131af576131af6135b2565b816040528281528860208487010111156131c7578586fd5b82602086016020830137856020848301015280955050505050509250929050565b600080604083850312156131fa578182fd5b61320383612fcc565b946020939093013593505050565b60008060008060008060c08789031215613229578182fd5b61323287612fcc565b9550602087013594506040870135935061324e6060880161302a565b92506080870135915060a087013590509295509295509295565b6000806040838503121561327a578182fd5b61328383612fcc565b9150602083013563ffffffff8116811461329b578182fd5b809150509250929050565b6000602082840312156132b7578081fd5b5035919050565b600080604083850312156132d0578182fd5b8235915061307e60208401612fcc565b6000602082840312156132f1578081fd5b81356001600160e01b031981168114610b7a578182fd5b60008060008060006060868803121561331f578081fd5b853567ffffffffffffffff80821115613336578283fd5b61334289838a01612fe3565b9097509550602088013591508082111561335a578283fd5b5061336788828901612fe3565b909450925061337a905060408701612fcc565b90509295509295909350565b600082516133988184602087016134fa565b9190910192915050565b60007f416363657373436f6e74726f6c3a206163636f756e7420000000000000000000825283516133da8160178501602088016134fa565b7001034b99036b4b9b9b4b733903937b6329607d1b601791840191820152835161340b8160288401602088016134fa565b01602801949350505050565b60006020825282518060208401526134368160408501602087016134fa565b601f01601f19169190910160400192915050565b6020808252602e908201527f496e697469616c697a61626c653a20636f6e747261637420697320616c72656160408201526d191e481a5b9a5d1a585b1a5e995960921b606082015260800190565b600082198211156134ab576134ab613586565b500190565b6000826134bf576134bf61359c565b500490565b60008160001904831182151516156134de576134de613586565b500290565b6000828210156134f5576134f5613586565b500390565b60005b838110156135155781810151838201526020016134fd565b838111156118d85750506000910152565b60008161353557613535613586565b506000190190565b600181811c9082168061355157607f821691505b6020821081141561216557634e487b7160e01b600052602260045260246000fd5b6000826135815761358161359c565b500690565b634e487b7160e01b600052601160045260246000fd5b634e487b7160e01b600052601260045260246000fd5b634e487b7160e01b600052604160045260246000fdfe65d7a28e3265b37a6474929f336521b332c1681b933f6cb9f3376673440d862a416464726573733a206c6f772d6c6576656c2064656c65676174652063616c6c206661696c65649f2df0fed2c77648de5860a4cc508cd0818c85b8b8a1ab4ceeef8d981c8956a6a264697066735822122027cb596268ad8f43e7936dc9eba2ac17a82eb3375e2ae9b877410bf1a8cb151e64736f6c63430008030033",
  "immutableReferences": {},
  "source": "// SPDX-License-Identifier: BUSL-1.1\n\npragma solidity 0.8.3;\n\nimport \"@openzeppelin/contracts-upgradeable/token/ERC20/presets/ERC20PresetMinterPauserUpgradeable.sol\";\n\nimport \"./interfaces/IFloatToken.sol\";\n\nimport \"@openzeppelin/contracts-upgradeable/token/ERC20/ERC20Upgradeable.sol\";\nimport \"@openzeppelin/contracts-upgradeable/token/ERC20/extensions/ERC20BurnableUpgradeable.sol\";\nimport \"@openzeppelin/contracts-upgradeable/security/PausableUpgradeable.sol\";\nimport \"@openzeppelin/contracts-upgradeable/access/AccessControlUpgradeable.sol\";\nimport \"@openzeppelin/contracts-upgradeable/token/ERC20/extensions/draft-ERC20PermitUpgradeable.sol\";\nimport \"@openzeppelin/contracts-upgradeable/token/ERC20/extensions/ERC20VotesUpgradeable.sol\";\nimport \"@openzeppelin/contracts-upgradeable/proxy/utils/Initializable.sol\";\nimport \"@openzeppelin/contracts-upgradeable/proxy/utils/UUPSUpgradeable.sol\";\n\n/**\n @title FloatToken\n @notice The Float Token is the governance token for the Float Capital protocol\n */\ncontract FloatToken is\n  IFloatToken,\n  Initializable,\n  ERC20Upgradeable,\n  ERC20BurnableUpgradeable,\n  PausableUpgradeable,\n  AccessControlUpgradeable,\n  ERC20PermitUpgradeable,\n  ERC20VotesUpgradeable,\n  UUPSUpgradeable\n{\n  bytes32 public constant PAUSER_ROLE = keccak256(\"PAUSER_ROLE\");\n  bytes32 public constant MINTER_ROLE = keccak256(\"MINTER_ROLE\");\n  bytes32 public constant UPGRADER_ROLE = keccak256(\"UPGRADER_ROLE\");\n\n  /**\n   @notice Initialize the Float Token with relevant\n   @dev This function is called `initialize` to differentiate it from `initialize(string,string)` in the parent contract which should NOT be called to initialize this contract. \n   @param name The name of the Float governance token\n   @param symbol The ticker representing the token\n   @param stakerAddress The staker contract that controls minting of the token\n   */\n  function initialize(\n    string calldata name,\n    string calldata symbol,\n    address stakerAddress\n  ) external initializer {\n    __ERC20_init(name, symbol);\n    __ERC20Burnable_init();\n    __Pausable_init();\n    __AccessControl_init();\n    __ERC20Permit_init(name);\n    __UUPSUpgradeable_init();\n\n    renounceRole(DEFAULT_ADMIN_ROLE, msg.sender);\n    renounceRole(MINTER_ROLE, msg.sender);\n    renounceRole(PAUSER_ROLE, msg.sender);\n\n    _setupRole(DEFAULT_ADMIN_ROLE, stakerAddress);\n    _setupRole(MINTER_ROLE, stakerAddress);\n    _setupRole(PAUSER_ROLE, stakerAddress);\n\n    _setupRole(UPGRADER_ROLE, msg.sender);\n  }\n\n  /*\n        FUNCTIONS INHERITED BY ERC20PresetMinterPauserUpgradeable      \n    */\n\n  /** \n  @notice Mints an amount of Float tokens for an address.\n  @dev Can only be called by addresses with a MINTER_ROLE. \n        This should correspond to the Staker contract.\n  @param to The address for which to mint the tokens for.\n  @param amount Amount of synthetic tokens to mint in wei.\n  */\n  function mint(address to, uint256 amount) external override(IFloatToken) onlyRole(MINTER_ROLE) {\n    _mint(to, amount);\n  }\n\n  /**\n   @notice modify token functionality so that a pausing this token doesn't affect minting\n   @dev Pause functionality in the open zeppelin ERC20PresetMinterPauserUpgradeable comes from the below function.\n    We override it to exclude anyone with the minter role (ie the Staker contract)\n   @param from address tokens are being sent from\n   @param to address tokens are being sent to\n   @param amount amount of tokens being sent\n   */\n  function _beforeTokenTransfer(\n    address from,\n    address to,\n    uint256 amount\n  ) internal virtual override {\n    require(!paused() || hasRole(MINTER_ROLE, _msgSender()), \"Paused and not minter\");\n\n    super._beforeTokenTransfer(from, to, amount);\n  }\n\n  function pause() external onlyRole(PAUSER_ROLE) {\n    _pause();\n  }\n\n  function unpause() external onlyRole(PAUSER_ROLE) {\n    _unpause();\n  }\n\n  function _authorizeUpgrade(address newImplementation) internal override onlyRole(UPGRADER_ROLE) {}\n\n  function _afterTokenTransfer(\n    address from,\n    address to,\n    uint256 amount\n  ) internal override(ERC20Upgradeable, ERC20VotesUpgradeable) {\n    super._afterTokenTransfer(from, to, amount);\n  }\n\n  function _mint(address to, uint256 amount)\n    internal\n    override(ERC20Upgradeable, ERC20VotesUpgradeable)\n  {\n    super._mint(to, amount);\n  }\n\n  function _burn(address account, uint256 amount)\n    internal\n    override(ERC20Upgradeable, ERC20VotesUpgradeable)\n  {\n    super._burn(account, amount);\n  }\n\n  function transfer(address recipient, uint256 amount)\n    public\n    virtual\n    override(ERC20Upgradeable, IFloatToken)\n    returns (bool)\n  {\n    return ERC20Upgradeable.transfer(recipient, amount);\n  }\n}\n",
  "sourcePath": "/home/jasoons/Documents/code/monorepo/contracts/contracts/FloatToken.sol",
  "compiler": {
    "name": "solc",
    "version": "0.8.3+commit.8d00100c.Emscripten.clang"
  },
  "schemaVersion": "3.4.3",
  "updatedAt": "2021-08-20T13:02:09.142Z",
  "networkType": "ethereum",
  "devdoc": {
    "kind": "dev",
    "methods": {
      "DOMAIN_SEPARATOR()": {
        "details": "See {IERC20Permit-DOMAIN_SEPARATOR}."
      },
      "allowance(address,address)": {
        "details": "See {IERC20-allowance}."
      },
      "approve(address,uint256)": {
        "details": "See {IERC20-approve}. Requirements: - `spender` cannot be the zero address."
      },
      "balanceOf(address)": {
        "details": "See {IERC20-balanceOf}."
      },
      "burn(uint256)": {
        "details": "Destroys `amount` tokens from the caller. See {ERC20-_burn}."
      },
      "burnFrom(address,uint256)": {
        "details": "Destroys `amount` tokens from `account`, deducting from the caller's allowance. See {ERC20-_burn} and {ERC20-allowance}. Requirements: - the caller must have allowance for ``accounts``'s tokens of at least `amount`."
      },
      "checkpoints(address,uint32)": {
        "details": "Get the `pos`-th checkpoint for `account`."
      },
      "decimals()": {
        "details": "Returns the number of decimals used to get its user representation. For example, if `decimals` equals `2`, a balance of `505` tokens should be displayed to a user as `5,05` (`505 / 10 ** 2`). Tokens usually opt for a value of 18, imitating the relationship between Ether and Wei. This is the value {ERC20} uses, unless this function is overridden; NOTE: This information is only used for _display_ purposes: it in no way affects any of the arithmetic of the contract, including {IERC20-balanceOf} and {IERC20-transfer}."
      },
      "decreaseAllowance(address,uint256)": {
        "details": "Atomically decreases the allowance granted to `spender` by the caller. This is an alternative to {approve} that can be used as a mitigation for problems described in {IERC20-approve}. Emits an {Approval} event indicating the updated allowance. Requirements: - `spender` cannot be the zero address. - `spender` must have allowance for the caller of at least `subtractedValue`."
      },
      "delegate(address)": {
        "details": "Delegate votes from the sender to `delegatee`."
      },
      "delegateBySig(address,uint256,uint256,uint8,bytes32,bytes32)": {
        "details": "Delegates votes from signer to `delegatee`"
      },
      "delegates(address)": {
        "details": "Get the address `account` is currently delegating to."
      },
      "getPastTotalSupply(uint256)": {
        "details": "Retrieve the `totalSupply` at the end of `blockNumber`. Note, this value is the sum of all balances. It is but NOT the sum of all the delegated votes! Requirements: - `blockNumber` must have been already mined"
      },
      "getPastVotes(address,uint256)": {
        "details": "Retrieve the number of votes for `account` at the end of `blockNumber`. Requirements: - `blockNumber` must have been already mined"
      },
      "getRoleAdmin(bytes32)": {
        "details": "Returns the admin role that controls `role`. See {grantRole} and {revokeRole}. To change a role's admin, use {_setRoleAdmin}."
      },
      "getVotes(address)": {
        "details": "Gets the current votes balance for `account`"
      },
      "grantRole(bytes32,address)": {
        "details": "Grants `role` to `account`. If `account` had not been already granted `role`, emits a {RoleGranted} event. Requirements: - the caller must have ``role``'s admin role."
      },
      "hasRole(bytes32,address)": {
        "details": "Returns `true` if `account` has been granted `role`."
      },
      "increaseAllowance(address,uint256)": {
        "details": "Atomically increases the allowance granted to `spender` by the caller. This is an alternative to {approve} that can be used as a mitigation for problems described in {IERC20-approve}. Emits an {Approval} event indicating the updated allowance. Requirements: - `spender` cannot be the zero address."
      },
      "initialize(string,string,address)": {
        "details": "This function is called `initialize` to differentiate it from `initialize(string,string)` in the parent contract which should NOT be called to initialize this contract. ",
        "params": {
          "name": "The name of the Float governance token",
          "stakerAddress": "The staker contract that controls minting of the token",
          "symbol": "The ticker representing the token"
        }
      },
      "mint(address,uint256)": {
        "details": "Can only be called by addresses with a MINTER_ROLE.  This should correspond to the Staker contract.",
        "params": {
          "amount": "Amount of synthetic tokens to mint in wei.",
          "to": "The address for which to mint the tokens for."
        }
      },
      "name()": {
        "details": "Returns the name of the token."
      },
      "nonces(address)": {
        "details": "See {IERC20Permit-nonces}."
      },
      "numCheckpoints(address)": {
        "details": "Get number of checkpoints for `account`."
      },
      "paused()": {
        "details": "Returns true if the contract is paused, and false otherwise."
      },
      "permit(address,address,uint256,uint256,uint8,bytes32,bytes32)": {
        "details": "See {IERC20Permit-permit}."
      },
      "renounceRole(bytes32,address)": {
        "details": "Revokes `role` from the calling account. Roles are often managed via {grantRole} and {revokeRole}: this function's purpose is to provide a mechanism for accounts to lose their privileges if they are compromised (such as when a trusted device is misplaced). If the calling account had been granted `role`, emits a {RoleRevoked} event. Requirements: - the caller must be `account`."
      },
      "revokeRole(bytes32,address)": {
        "details": "Revokes `role` from `account`. If `account` had been granted `role`, emits a {RoleRevoked} event. Requirements: - the caller must have ``role``'s admin role."
      },
      "supportsInterface(bytes4)": {
        "details": "See {IERC165-supportsInterface}."
      },
      "symbol()": {
        "details": "Returns the symbol of the token, usually a shorter version of the name."
      },
      "totalSupply()": {
        "details": "See {IERC20-totalSupply}."
      },
      "transferFrom(address,address,uint256)": {
        "details": "See {IERC20-transferFrom}. Emits an {Approval} event indicating the updated allowance. This is not required by the EIP. See the note at the beginning of {ERC20}. Requirements: - `sender` and `recipient` cannot be the zero address. - `sender` must have a balance of at least `amount`. - the caller must have allowance for ``sender``'s tokens of at least `amount`."
      },
      "upgradeTo(address)": {
        "details": "Upgrade the implementation of the proxy to `newImplementation`. Calls {_authorizeUpgrade}. Emits an {Upgraded} event."
      },
      "upgradeToAndCall(address,bytes)": {
        "details": "Upgrade the implementation of the proxy to `newImplementation`, and subsequently execute the function call encoded in `data`. Calls {_authorizeUpgrade}. Emits an {Upgraded} event."
      }
    },
    "title": "FloatToken",
    "version": 1
  },
  "userdoc": {
    "kind": "user",
    "methods": {
      "initialize(string,string,address)": {
        "notice": "Initialize the Float Token with relevant"
      },
      "mint(address,uint256)": {
        "notice": "Mints an amount of Float tokens for an address."
      }
    },
    "notice": "The Float Token is the governance token for the Float Capital protocol",
    "version": 1
  }
}