{
  "contractName": "LongShort",
  "abi": [
    {
      "anonymous": false,
      "inputs": [
        {
          "indexed": false,
          "internalType": "address",
          "name": "previousAdmin",
          "type": "address"
        },
        {
          "indexed": false,
          "internalType": "address",
          "name": "newAdmin",
          "type": "address"
        }
      ],
      "name": "AdminChanged",
      "type": "event"
    },
    {
      "anonymous": false,
      "inputs": [
        {
          "indexed": true,
          "internalType": "address",
          "name": "beacon",
          "type": "address"
        }
      ],
      "name": "BeaconUpgraded",
      "type": "event"
    },
    {
      "anonymous": false,
      "inputs": [
        {
          "indexed": false,
          "internalType": "address",
          "name": "user",
          "type": "address"
        },
        {
          "indexed": false,
          "internalType": "uint32",
          "name": "marketIndex",
          "type": "uint32"
        },
        {
          "indexed": false,
          "internalType": "bool",
          "name": "isShiftFromLong",
          "type": "bool"
        },
        {
          "indexed": false,
          "internalType": "uint256",
          "name": "amount",
          "type": "uint256"
        }
      ],
      "name": "ExecuteNextPriceMarketSideShiftSettlementUser",
      "type": "event"
    },
    {
      "anonymous": false,
      "inputs": [
        {
          "indexed": false,
          "internalType": "address",
          "name": "user",
          "type": "address"
        },
        {
          "indexed": false,
          "internalType": "uint32",
          "name": "marketIndex",
          "type": "uint32"
        },
        {
          "indexed": false,
          "internalType": "bool",
          "name": "isLong",
          "type": "bool"
        },
        {
          "indexed": false,
          "internalType": "uint256",
          "name": "amount",
          "type": "uint256"
        }
      ],
      "name": "ExecuteNextPriceMintSettlementUser",
      "type": "event"
    },
    {
      "anonymous": false,
      "inputs": [
        {
          "indexed": false,
          "internalType": "address",
          "name": "user",
          "type": "address"
        },
        {
          "indexed": false,
          "internalType": "uint32",
          "name": "marketIndex",
          "type": "uint32"
        },
        {
          "indexed": false,
          "internalType": "bool",
          "name": "isLong",
          "type": "bool"
        },
        {
          "indexed": false,
          "internalType": "uint256",
          "name": "amount",
          "type": "uint256"
        }
      ],
      "name": "ExecuteNextPriceRedeemSettlementUser",
      "type": "event"
    },
    {
      "anonymous": false,
      "inputs": [
        {
          "indexed": false,
          "internalType": "address",
          "name": "user",
          "type": "address"
        },
        {
          "indexed": false,
          "internalType": "uint32",
          "name": "marketIndex",
          "type": "uint32"
        }
      ],
      "name": "ExecuteNextPriceSettlementsUser",
      "type": "event"
    },
    {
      "anonymous": false,
      "inputs": [
        {
          "indexed": false,
          "internalType": "address",
          "name": "admin",
          "type": "address"
        },
        {
          "indexed": false,
          "internalType": "address",
          "name": "tokenFactory",
          "type": "address"
        },
        {
          "indexed": false,
          "internalType": "address",
          "name": "staker",
          "type": "address"
        }
      ],
      "name": "LongShortV1",
      "type": "event"
    },
    {
      "anonymous": false,
      "inputs": [
        {
          "indexed": false,
          "internalType": "uint32",
          "name": "marketIndex",
          "type": "uint32"
        },
        {
          "indexed": false,
          "internalType": "uint256",
          "name": "initialSeed",
          "type": "uint256"
        }
      ],
      "name": "NewMarketLaunchedAndSeeded",
      "type": "event"
    },
    {
      "anonymous": false,
      "inputs": [
        {
          "indexed": false,
          "internalType": "uint32",
          "name": "marketIndex",
          "type": "uint32"
        },
        {
          "indexed": false,
          "internalType": "bool",
          "name": "isLong",
          "type": "bool"
        },
        {
          "indexed": false,
          "internalType": "uint256",
          "name": "depositAdded",
          "type": "uint256"
        },
        {
          "indexed": false,
          "internalType": "address",
          "name": "user",
          "type": "address"
        },
        {
          "indexed": false,
          "internalType": "uint256",
          "name": "oracleUpdateIndex",
          "type": "uint256"
        }
      ],
      "name": "NextPriceDeposit",
      "type": "event"
    },
    {
      "anonymous": false,
      "inputs": [
        {
          "indexed": false,
          "internalType": "uint32",
          "name": "marketIndex",
          "type": "uint32"
        },
        {
          "indexed": false,
          "internalType": "bool",
          "name": "isLong",
          "type": "bool"
        },
        {
          "indexed": false,
          "internalType": "uint256",
          "name": "synthRedeemed",
          "type": "uint256"
        },
        {
          "indexed": false,
          "internalType": "address",
          "name": "user",
          "type": "address"
        },
        {
          "indexed": false,
          "internalType": "uint256",
          "name": "oracleUpdateIndex",
          "type": "uint256"
        }
      ],
      "name": "NextPriceRedeem",
      "type": "event"
    },
    {
      "anonymous": false,
      "inputs": [
        {
          "indexed": false,
          "internalType": "uint32",
          "name": "marketIndex",
          "type": "uint32"
        },
        {
          "indexed": false,
          "internalType": "bool",
          "name": "isShiftFromLong",
          "type": "bool"
        },
        {
          "indexed": false,
          "internalType": "uint256",
          "name": "synthShifted",
          "type": "uint256"
        },
        {
          "indexed": false,
          "internalType": "address",
          "name": "user",
          "type": "address"
        },
        {
          "indexed": false,
          "internalType": "uint256",
          "name": "oracleUpdateIndex",
          "type": "uint256"
        }
      ],
      "name": "NextPriceSyntheticPositionShift",
      "type": "event"
    },
    {
      "anonymous": false,
      "inputs": [
        {
          "indexed": false,
          "internalType": "uint32",
          "name": "marketIndex",
          "type": "uint32"
        },
        {
          "indexed": false,
          "internalType": "address",
          "name": "oldOracleAddress",
          "type": "address"
        },
        {
          "indexed": false,
          "internalType": "address",
          "name": "newOracleAddress",
          "type": "address"
        }
      ],
      "name": "OracleUpdated",
      "type": "event"
    },
    {
      "anonymous": false,
      "inputs": [
        {
          "indexed": false,
          "internalType": "uint32",
          "name": "marketIndex",
          "type": "uint32"
        },
        {
          "indexed": false,
          "internalType": "address",
          "name": "longTokenAddress",
          "type": "address"
        },
        {
          "indexed": false,
          "internalType": "address",
          "name": "shortTokenAddress",
          "type": "address"
        },
        {
          "indexed": false,
          "internalType": "address",
          "name": "paymentToken",
          "type": "address"
        },
        {
          "indexed": false,
          "internalType": "int256",
          "name": "initialAssetPrice",
          "type": "int256"
        },
        {
          "indexed": false,
          "internalType": "string",
          "name": "name",
          "type": "string"
        },
        {
          "indexed": false,
          "internalType": "string",
          "name": "symbol",
          "type": "string"
        },
        {
          "indexed": false,
          "internalType": "address",
          "name": "oracleAddress",
          "type": "address"
        },
        {
          "indexed": false,
          "internalType": "address",
          "name": "yieldManagerAddress",
          "type": "address"
        }
      ],
      "name": "SyntheticMarketCreated",
      "type": "event"
    },
    {
      "anonymous": false,
      "inputs": [
        {
          "indexed": false,
          "internalType": "uint32",
          "name": "marketIndex",
          "type": "uint32"
        },
        {
          "indexed": false,
          "internalType": "uint256",
          "name": "updateIndex",
          "type": "uint256"
        },
        {
          "indexed": false,
          "internalType": "int256",
          "name": "underlyingAssetPrice",
          "type": "int256"
        },
        {
          "indexed": false,
          "internalType": "uint256",
          "name": "longValue",
          "type": "uint256"
        },
        {
          "indexed": false,
          "internalType": "uint256",
          "name": "shortValue",
          "type": "uint256"
        },
        {
          "indexed": false,
          "internalType": "uint256",
          "name": "longPrice",
          "type": "uint256"
        },
        {
          "indexed": false,
          "internalType": "uint256",
          "name": "shortPrice",
          "type": "uint256"
        }
      ],
      "name": "SystemStateUpdated",
      "type": "event"
    },
    {
      "anonymous": false,
      "inputs": [
        {
          "indexed": true,
          "internalType": "address",
          "name": "implementation",
          "type": "address"
        }
      ],
      "name": "Upgraded",
      "type": "event"
    },
    {
      "inputs": [],
      "name": "PERMANENT_INITIAL_LIQUIDITY_HOLDER",
      "outputs": [
        {
          "internalType": "address",
          "name": "",
          "type": "address"
        }
      ],
      "stateMutability": "view",
      "type": "function",
      "constant": true
    },
    {
      "inputs": [],
      "name": "admin",
      "outputs": [
        {
          "internalType": "address",
          "name": "",
          "type": "address"
        }
      ],
      "stateMutability": "view",
      "type": "function",
      "constant": true
    },
    {
      "inputs": [
        {
          "internalType": "uint32",
          "name": "",
          "type": "uint32"
        }
      ],
      "name": "assetPrice",
      "outputs": [
        {
          "internalType": "int256",
          "name": "",
          "type": "int256"
        }
      ],
      "stateMutability": "view",
      "type": "function",
      "constant": true
    },
    {
      "inputs": [
        {
          "internalType": "uint32",
          "name": "",
          "type": "uint32"
        },
        {
          "internalType": "bool",
          "name": "",
          "type": "bool"
        }
      ],
      "name": "batched_amountPaymentToken_deposit",
      "outputs": [
        {
          "internalType": "uint256",
          "name": "",
          "type": "uint256"
        }
      ],
      "stateMutability": "view",
      "type": "function",
      "constant": true
    },
    {
      "inputs": [
        {
          "internalType": "uint32",
          "name": "",
          "type": "uint32"
        },
        {
          "internalType": "bool",
          "name": "",
          "type": "bool"
        }
      ],
      "name": "batched_amountSyntheticToken_redeem",
      "outputs": [
        {
          "internalType": "uint256",
          "name": "",
          "type": "uint256"
        }
      ],
      "stateMutability": "view",
      "type": "function",
      "constant": true
    },
    {
      "inputs": [
        {
          "internalType": "uint32",
          "name": "",
          "type": "uint32"
        },
        {
          "internalType": "bool",
          "name": "",
          "type": "bool"
        }
      ],
      "name": "batched_amountSyntheticToken_toShiftAwayFrom_marketSide",
      "outputs": [
        {
          "internalType": "uint256",
          "name": "",
          "type": "uint256"
        }
      ],
      "stateMutability": "view",
      "type": "function",
      "constant": true
    },
    {
      "inputs": [],
      "name": "latestMarket",
      "outputs": [
        {
          "internalType": "uint32",
          "name": "",
          "type": "uint32"
        }
      ],
      "stateMutability": "view",
      "type": "function",
      "constant": true
    },
    {
      "inputs": [
        {
          "internalType": "uint32",
          "name": "",
          "type": "uint32"
        }
      ],
      "name": "marketExists",
      "outputs": [
        {
          "internalType": "bool",
          "name": "",
          "type": "bool"
        }
      ],
      "stateMutability": "view",
      "type": "function",
      "constant": true
    },
    {
      "inputs": [
        {
          "internalType": "uint32",
          "name": "",
          "type": "uint32"
        },
        {
          "internalType": "bool",
          "name": "",
          "type": "bool"
        }
      ],
      "name": "marketSideValueInPaymentToken",
      "outputs": [
        {
          "internalType": "uint256",
          "name": "",
          "type": "uint256"
        }
      ],
      "stateMutability": "view",
      "type": "function",
      "constant": true
    },
    {
      "inputs": [
        {
          "internalType": "uint32",
          "name": "",
          "type": "uint32"
        }
      ],
      "name": "marketTreasurySplitGradient_e18",
      "outputs": [
        {
          "internalType": "uint256",
          "name": "",
          "type": "uint256"
        }
      ],
      "stateMutability": "view",
      "type": "function",
      "constant": true
    },
    {
      "inputs": [
        {
          "internalType": "uint32",
          "name": "",
          "type": "uint32"
        }
      ],
      "name": "marketUpdateIndex",
      "outputs": [
        {
          "internalType": "uint256",
          "name": "",
          "type": "uint256"
        }
      ],
      "stateMutability": "view",
      "type": "function",
      "constant": true
    },
    {
      "inputs": [
        {
          "internalType": "uint32",
          "name": "",
          "type": "uint32"
        }
      ],
      "name": "oracleManagers",
      "outputs": [
        {
          "internalType": "address",
          "name": "",
          "type": "address"
        }
      ],
      "stateMutability": "view",
      "type": "function",
      "constant": true
    },
    {
      "inputs": [
        {
          "internalType": "uint32",
          "name": "",
          "type": "uint32"
        }
      ],
      "name": "paymentTokens",
      "outputs": [
        {
          "internalType": "address",
          "name": "",
          "type": "address"
        }
      ],
      "stateMutability": "view",
      "type": "function",
      "constant": true
    },
    {
      "inputs": [],
      "name": "staker",
      "outputs": [
        {
          "internalType": "address",
          "name": "",
          "type": "address"
        }
      ],
      "stateMutability": "view",
      "type": "function",
      "constant": true
    },
    {
      "inputs": [
        {
          "internalType": "uint32",
          "name": "",
          "type": "uint32"
        },
        {
          "internalType": "bool",
          "name": "",
          "type": "bool"
        },
        {
          "internalType": "uint256",
          "name": "",
          "type": "uint256"
        }
      ],
      "name": "syntheticToken_priceSnapshot",
      "outputs": [
        {
          "internalType": "uint256",
          "name": "",
          "type": "uint256"
        }
      ],
      "stateMutability": "view",
      "type": "function",
      "constant": true
    },
    {
      "inputs": [
        {
          "internalType": "uint32",
          "name": "",
          "type": "uint32"
        },
        {
          "internalType": "bool",
          "name": "",
          "type": "bool"
        }
      ],
      "name": "syntheticTokens",
      "outputs": [
        {
          "internalType": "address",
          "name": "",
          "type": "address"
        }
      ],
      "stateMutability": "view",
      "type": "function",
      "constant": true
    },
    {
      "inputs": [],
      "name": "tokenFactory",
      "outputs": [
        {
          "internalType": "address",
          "name": "",
          "type": "address"
        }
      ],
      "stateMutability": "view",
      "type": "function",
      "constant": true
    },
    {
      "inputs": [
        {
          "internalType": "address",
          "name": "newImplementation",
          "type": "address"
        }
      ],
      "name": "upgradeTo",
      "outputs": [],
      "stateMutability": "nonpayable",
      "type": "function"
    },
    {
      "inputs": [
        {
          "internalType": "address",
          "name": "newImplementation",
          "type": "address"
        },
        {
          "internalType": "bytes",
          "name": "data",
          "type": "bytes"
        }
      ],
      "name": "upgradeToAndCall",
      "outputs": [],
      "stateMutability": "payable",
      "type": "function",
      "payable": true
    },
    {
      "inputs": [
        {
          "internalType": "uint32",
          "name": "",
          "type": "uint32"
        },
        {
          "internalType": "address",
          "name": "",
          "type": "address"
        }
      ],
      "name": "userNextPrice_currentUpdateIndex",
      "outputs": [
        {
          "internalType": "uint256",
          "name": "",
          "type": "uint256"
        }
      ],
      "stateMutability": "view",
      "type": "function",
      "constant": true
    },
    {
      "inputs": [
        {
          "internalType": "uint32",
          "name": "",
          "type": "uint32"
        },
        {
          "internalType": "bool",
          "name": "",
          "type": "bool"
        },
        {
          "internalType": "address",
          "name": "",
          "type": "address"
        }
      ],
      "name": "userNextPrice_paymentToken_depositAmount",
      "outputs": [
        {
          "internalType": "uint256",
          "name": "",
          "type": "uint256"
        }
      ],
      "stateMutability": "view",
      "type": "function",
      "constant": true
    },
    {
      "inputs": [
        {
          "internalType": "uint32",
          "name": "",
          "type": "uint32"
        },
        {
          "internalType": "bool",
          "name": "",
          "type": "bool"
        },
        {
          "internalType": "address",
          "name": "",
          "type": "address"
        }
      ],
      "name": "userNextPrice_syntheticToken_redeemAmount",
      "outputs": [
        {
          "internalType": "uint256",
          "name": "",
          "type": "uint256"
        }
      ],
      "stateMutability": "view",
      "type": "function",
      "constant": true
    },
    {
      "inputs": [
        {
          "internalType": "uint32",
          "name": "",
          "type": "uint32"
        },
        {
          "internalType": "bool",
          "name": "",
          "type": "bool"
        },
        {
          "internalType": "address",
          "name": "",
          "type": "address"
        }
      ],
      "name": "userNextPrice_syntheticToken_toShiftAwayFrom_marketSide",
      "outputs": [
        {
          "internalType": "uint256",
          "name": "",
          "type": "uint256"
        }
      ],
      "stateMutability": "view",
      "type": "function",
      "constant": true
    },
    {
      "inputs": [
        {
          "internalType": "uint32",
          "name": "",
          "type": "uint32"
        }
      ],
      "name": "yieldManagers",
      "outputs": [
        {
          "internalType": "address",
          "name": "",
          "type": "address"
        }
      ],
      "stateMutability": "view",
      "type": "function",
      "constant": true
    },
    {
      "inputs": [
        {
          "internalType": "address",
          "name": "_admin",
          "type": "address"
        },
        {
          "internalType": "address",
          "name": "_tokenFactory",
          "type": "address"
        },
        {
          "internalType": "address",
          "name": "_staker",
          "type": "address"
        }
      ],
      "name": "initialize",
      "outputs": [],
      "stateMutability": "nonpayable",
      "type": "function"
    },
    {
      "inputs": [
        {
          "internalType": "address",
          "name": "_admin",
          "type": "address"
        }
      ],
      "name": "changeAdmin",
      "outputs": [],
      "stateMutability": "nonpayable",
      "type": "function"
    },
    {
      "inputs": [
        {
          "internalType": "uint32",
          "name": "marketIndex",
          "type": "uint32"
        },
        {
          "internalType": "address",
          "name": "_newOracleManager",
          "type": "address"
        }
      ],
      "name": "updateMarketOracle",
      "outputs": [],
      "stateMutability": "nonpayable",
      "type": "function"
    },
    {
      "inputs": [
        {
          "internalType": "uint32",
          "name": "marketIndex",
          "type": "uint32"
        },
        {
          "internalType": "uint256",
          "name": "_marketTreasurySplitGradient_e18",
          "type": "uint256"
        }
      ],
      "name": "changeMarketTreasurySplitGradient",
      "outputs": [],
      "stateMutability": "nonpayable",
      "type": "function"
    },
    {
      "inputs": [
        {
          "internalType": "string",
          "name": "syntheticName",
          "type": "string"
        },
        {
          "internalType": "string",
          "name": "syntheticSymbol",
          "type": "string"
        },
        {
          "internalType": "address",
          "name": "_paymentToken",
          "type": "address"
        },
        {
          "internalType": "address",
          "name": "_oracleManager",
          "type": "address"
        },
        {
          "internalType": "address",
          "name": "_yieldManager",
          "type": "address"
        }
      ],
      "name": "createNewSyntheticMarket",
      "outputs": [],
      "stateMutability": "nonpayable",
      "type": "function"
    },
    {
      "inputs": [
        {
          "internalType": "string",
          "name": "syntheticName",
          "type": "string"
        },
        {
          "internalType": "string",
          "name": "syntheticSymbol",
          "type": "string"
        },
        {
          "internalType": "address",
          "name": "_longToken",
          "type": "address"
        },
        {
          "internalType": "address",
          "name": "_shortToken",
          "type": "address"
        },
        {
          "internalType": "address",
          "name": "_paymentToken",
          "type": "address"
        },
        {
          "internalType": "address",
          "name": "_oracleManager",
          "type": "address"
        },
        {
          "internalType": "address",
          "name": "_yieldManager",
          "type": "address"
        }
      ],
      "name": "createNewSyntheticMarketUpgradeable",
      "outputs": [],
      "stateMutability": "nonpayable",
      "type": "function"
    },
    {
      "inputs": [
        {
          "internalType": "uint32",
          "name": "marketIndex",
          "type": "uint32"
        },
        {
          "internalType": "uint256",
          "name": "kInitialMultiplier",
          "type": "uint256"
        },
        {
          "internalType": "uint256",
          "name": "kPeriod",
          "type": "uint256"
        },
        {
          "internalType": "uint256",
          "name": "unstakeFee_e18",
          "type": "uint256"
        },
        {
          "internalType": "uint256",
          "name": "initialMarketSeedForEachMarketSide",
          "type": "uint256"
        },
        {
          "internalType": "uint256",
          "name": "balanceIncentiveCurve_exponent",
          "type": "uint256"
        },
        {
          "internalType": "int256",
          "name": "balanceIncentiveCurve_equilibriumOffset",
          "type": "int256"
        },
        {
          "internalType": "uint256",
          "name": "_marketTreasurySplitGradient_e18",
          "type": "uint256"
        }
      ],
      "name": "initializeMarket",
      "outputs": [],
      "stateMutability": "nonpayable",
      "type": "function"
    },
    {
      "inputs": [
        {
          "internalType": "uint32",
          "name": "marketIndex",
          "type": "uint32"
        },
        {
          "internalType": "uint256",
          "name": "amountSyntheticToken_redeemOnOriginSide",
          "type": "uint256"
        },
        {
          "internalType": "bool",
          "name": "isShiftFromLong",
          "type": "bool"
        },
        {
          "internalType": "uint256",
          "name": "priceSnapshotIndex",
          "type": "uint256"
        }
      ],
      "name": "getAmountSyntheticTokenToMintOnTargetSide",
      "outputs": [
        {
          "internalType": "uint256",
          "name": "amountSyntheticTokensToMintOnTargetSide",
          "type": "uint256"
        }
      ],
      "stateMutability": "view",
      "type": "function",
      "constant": true
    },
    {
      "inputs": [
        {
          "internalType": "address",
          "name": "user",
          "type": "address"
        },
        {
          "internalType": "uint32",
          "name": "marketIndex",
          "type": "uint32"
        },
        {
          "internalType": "bool",
          "name": "isLong",
          "type": "bool"
        }
      ],
      "name": "getUsersConfirmedButNotSettledSynthBalance",
      "outputs": [
        {
          "internalType": "uint256",
          "name": "confirmedButNotSettledBalance",
          "type": "uint256"
        }
      ],
      "stateMutability": "view",
      "type": "function",
      "constant": true
    },
    {
      "inputs": [
        {
          "internalType": "uint32",
          "name": "marketIndex",
          "type": "uint32"
        }
      ],
      "name": "updateSystemState",
      "outputs": [],
      "stateMutability": "nonpayable",
      "type": "function"
    },
    {
      "inputs": [
        {
          "internalType": "uint32[]",
          "name": "marketIndexes",
          "type": "uint32[]"
        }
      ],
      "name": "updateSystemStateMulti",
      "outputs": [],
      "stateMutability": "nonpayable",
      "type": "function"
    },
    {
      "inputs": [
        {
          "internalType": "uint32",
          "name": "marketIndex",
          "type": "uint32"
        },
        {
          "internalType": "uint256",
          "name": "amount",
          "type": "uint256"
        }
      ],
      "name": "mintLongNextPrice",
      "outputs": [],
      "stateMutability": "nonpayable",
      "type": "function"
    },
    {
      "inputs": [
        {
          "internalType": "uint32",
          "name": "marketIndex",
          "type": "uint32"
        },
        {
          "internalType": "uint256",
          "name": "amount",
          "type": "uint256"
        }
      ],
      "name": "mintShortNextPrice",
      "outputs": [],
      "stateMutability": "nonpayable",
      "type": "function"
    },
    {
      "inputs": [
        {
          "internalType": "uint32",
          "name": "marketIndex",
          "type": "uint32"
        },
        {
          "internalType": "uint256",
          "name": "tokens_redeem",
          "type": "uint256"
        }
      ],
      "name": "redeemLongNextPrice",
      "outputs": [],
      "stateMutability": "nonpayable",
      "type": "function"
    },
    {
      "inputs": [
        {
          "internalType": "uint32",
          "name": "marketIndex",
          "type": "uint32"
        },
        {
          "internalType": "uint256",
          "name": "tokens_redeem",
          "type": "uint256"
        }
      ],
      "name": "redeemShortNextPrice",
      "outputs": [],
      "stateMutability": "nonpayable",
      "type": "function"
    },
    {
      "inputs": [
        {
          "internalType": "uint32",
          "name": "marketIndex",
          "type": "uint32"
        },
        {
          "internalType": "uint256",
          "name": "amountSyntheticTokensToShift",
          "type": "uint256"
        },
        {
          "internalType": "bool",
          "name": "isShiftFromLong",
          "type": "bool"
        }
      ],
      "name": "shiftPositionNextPrice",
      "outputs": [],
      "stateMutability": "nonpayable",
      "type": "function"
    },
    {
      "inputs": [
        {
          "internalType": "uint32",
          "name": "marketIndex",
          "type": "uint32"
        },
        {
          "internalType": "uint256",
          "name": "amountSyntheticTokensToShift",
          "type": "uint256"
        }
      ],
      "name": "shiftPositionFromLongNextPrice",
      "outputs": [],
      "stateMutability": "nonpayable",
      "type": "function"
    },
    {
      "inputs": [
        {
          "internalType": "uint32",
          "name": "marketIndex",
          "type": "uint32"
        },
        {
          "internalType": "uint256",
          "name": "amountSyntheticTokensToShift",
          "type": "uint256"
        }
      ],
      "name": "shiftPositionFromShortNextPrice",
      "outputs": [],
      "stateMutability": "nonpayable",
      "type": "function"
    },
    {
      "inputs": [
        {
          "internalType": "address",
          "name": "user",
          "type": "address"
        },
        {
          "internalType": "uint32",
          "name": "marketIndex",
          "type": "uint32"
        }
      ],
      "name": "executeOutstandingNextPriceSettlementsUser",
      "outputs": [],
      "stateMutability": "nonpayable",
      "type": "function"
    },
    {
      "inputs": [
        {
          "internalType": "address",
          "name": "user",
          "type": "address"
        },
        {
          "internalType": "uint32[]",
          "name": "marketIndexes",
          "type": "uint32[]"
        }
      ],
      "name": "executeOutstandingNextPriceSettlementsUserMulti",
      "outputs": [],
      "stateMutability": "nonpayable",
      "type": "function"
    }
  ],
  "bytecode": "0x608060405234801561001057600080fd5b506142df806100206000396000f3fe6080604052600436106102675760003560e01c8063897a078611610144578063c2b80072116100b6578063e77772fe1161007a578063e77772fe146108d9578063eeb02352146108f9578063f41cb19514610919578063f68a327f1461094f578063f80c9b921461096f578063f851a440146109a757610267565b8063c2b800721461081b578063c2e1247114610859578063d88905c914610879578063da04ce1414610899578063e6b604e0146108b957610267565b80639dc39e0f116101085780639dc39e0f146106e2578063b054c4a11461071a578063b36f53741461075b578063b3c7e2181461079b578063bb0a4529146107d3578063c0c53b8b146107fb57610267565b8063897a07861461062c5780638f2839701461064c57806391a9fa611461066c57806392f6fe801461068c5780639c5b0ee3146106ac57610267565b80635ebaf1db116101dd5780636c8d2b97116101a15780636c8d2b97146105415780636f486c5b1461056157806371fd96231461059f5780637a0e94f0146105bf578063867dfc6d146105df5780638900bdfa146105ff57610267565b80635ebaf1db14610470578063636190c81461049057806364d16f53146104c957806364e4a81d146104e9578063682ad2861461052157610267565b8063348986841161022f578063348986841461038757806334daaa25146103c55780633659cfe6146103fd578063414ffd501461041d5780634f1ef2861461043d57806358ed63f01461045057610267565b806305c8146f1461026c5780630e5140dc1461028e57806314c88ffa146102df5780631badf5c01461030c57806321658e481461035a575b600080fd5b34801561027857600080fd5b5061028c610287366004613baa565b6109c7565b005b34801561029a57600080fd5b506102cc6102a9366004613c25565b60d260209081526000938452604080852082529284528284209052825290205481565b6040519081526020015b60405180910390f35b3480156102eb57600080fd5b506102cc6102fa366004613baa565b60c46020526000908152604090205481565b34801561031857600080fd5b50610342610327366004613baa565b60c7602052600090815260409020546001600160a01b031681565b6040516001600160a01b0390911681526020016102d6565b34801561036657600080fd5b506102cc610375366004613baa565b60c86020526000908152604090205481565b34801561039357600080fd5b506102cc6103a2366004613c25565b60d160209081526000938452604080852082529284528284209052825290205481565b3480156103d157600080fd5b506102cc6103e0366004613bfa565b60cd60209081526000928352604080842090915290825290205481565b34801561040957600080fd5b5061028c61041836600461373d565b6109d3565b34801561042957600080fd5b5061028c610438366004613d32565b6109f7565b61028c61044b366004613883565b610bac565b34801561045c57600080fd5b5061028c61046b366004613ae0565b610bc5565b34801561047c57600080fd5b50609354610342906001600160a01b031681565b34801561049c57600080fd5b506092546104b490600160a01b900463ffffffff1681565b60405163ffffffff90911681526020016102d6565b3480156104d557600080fd5b5061028c6104e4366004613bc4565b610e7b565b3480156104f557600080fd5b506102cc610504366004613bfa565b60cc60209081526000928352604080842090915290825290205481565b34801561052d57600080fd5b5061028c61053c366004613c90565b610f00565b34801561054d57600080fd5b5061028c61055c366004613996565b610f0c565b34801561056d57600080fd5b506102cc61057c366004613c52565b60cb60209081526000938452604080852082529284528284209052825290205481565b3480156105ab57600080fd5b5061028c6105ba366004613cb9565b610f6d565b3480156105cb57600080fd5b5061028c6105da3660046137bf565b61112f565b3480156105eb57600080fd5b5061028c6105fa366004613c90565b61117f565b34801561060b57600080fd5b506102cc61061a366004613baa565b60c36020526000908152604090205481565b34801561063857600080fd5b5061028c610647366004613925565b61118b565b34801561065857600080fd5b5061028c61066736600461373d565b611195565b34801561067857600080fd5b5061028c610687366004613c90565b6111bf565b34801561069857600080fd5b506102cc6106a7366004613ced565b6111cb565b3480156106b857600080fd5b506103426106c7366004613baa565b60c6602052600090815260409020546001600160a01b031681565b3480156106ee57600080fd5b506102cc6106fd366004613bc4565b60cf60209081526000928352604080842090915290825290205481565b34801561072657600080fd5b50610342610735366004613bfa565b60c96020908152600092835260408084209091529082529020546001600160a01b031681565b34801561076757600080fd5b5061078b610776366004613baa565b60c26020526000908152604090205460ff1681565b60405190151581526020016102d6565b3480156107a757600080fd5b506102cc6107b6366004613bfa565b60ca60209081526000928352604080842090915290825290205481565b3480156107df57600080fd5b5061034273f10a7f10a7f10a7f10a7f10a7f10a7f10a7f10a781565b34801561080757600080fd5b5061028c610816366004613775565b611220565b34801561082757600080fd5b506102cc610836366004613c25565b60d060209081526000938452604080852082529284528284209052825290205481565b34801561086557600080fd5b5061028c610874366004613c90565b611391565b34801561088557600080fd5b5061028c610894366004613a3a565b61139d565b3480156108a557600080fd5b5061028c6108b4366004613c90565b611828565b3480156108c557600080fd5b5061028c6108d4366004613c90565b611849565b3480156108e557600080fd5b50609454610342906001600160a01b031681565b34801561090557600080fd5b5061028c610914366004613c90565b611855565b34801561092557600080fd5b50610342610934366004613baa565b60c5602052600090815260409020546001600160a01b031681565b34801561095b57600080fd5b506102cc61096a366004613959565b611861565b34801561097b57600080fd5b506102cc61098a366004613bfa565b60ce60209081526000928352604080842090915290825290205481565b3480156109b357600080fd5b50609254610342906001600160a01b031681565b6109d0816119c7565b50565b6109dc81611dbd565b6109d081604051806020016040528060008152506000611dc5565b6109ff611f46565b63ffffffff8816600090815260c2602052604090205460ff1615610a605760405162461bcd60e51b8152602060048201526013602482015272185b1c9958591e481a5b9a5d1a585b1a5e9959606a1b60448201526064015b60405180910390fd5b60925463ffffffff600160a01b90910481169089161115610ab45760405162461bcd60e51b815260206004820152600e60248201526d0d2dcc8caf040e8dede40d0d2ced60931b6044820152606401610a57565b63ffffffff8816600081815260c260209081526040808320805460ff1916600190811790915560c8835281842086905560c480845282852082905560935460c9855283862092865291909352818420548480529382902054915163b0956b5f60e01b815260048101959095526001600160a01b0393841660248601529083166044850152606484018b9052608484018a905260a4840189905290830186905260e48301859052169063b0956b5f9061010401600060405180830381600087803b158015610b8057600080fd5b505af1158015610b94573d6000803e3d6000fd5b50505050610ba28489611f8f565b5050505050505050565b610bb582611dbd565b610bc182826001611dc5565b5050565b610bcd611f46565b60006092601481819054906101000a900463ffffffff16610bed906141df565b91906101000a81548163ffffffff021916908363ffffffff16021790559050816001600160a01b031663edf565cc6040518163ffffffff1660e01b8152600401600060405180830381600087803b158015610c4757600080fd5b505af1158015610c5b573d6000803e3d6000fd5b5050505063ffffffff8116600081815260c96020908152604080832060018452825280832080546001600160a01b03199081166001600160a01b038d811691909117909255848052828520805482168c841617905594845260c58352818420805486168a831617905560c683528184208054861688831617905560c7835281842080549095169088169081179094558051630ce74fc560e31b8152905163673a7e2893600480840194938390030190829087803b158015610d1b57600080fd5b505af1158015610d2f573d6000803e3d6000fd5b505050506040513d601f19601f82011682018060405250810190610d539190613a22565b60c360008363ffffffff1663ffffffff168152602001908152602001600020819055507f901e73890694712ca72bdc627d356f05f11be45e7ccf490a8d4924c393bcb5658160c960008463ffffffff1663ffffffff1681526020019081526020016000206000600115151515815260200190815260200160002060009054906101000a90046001600160a01b031660c960008563ffffffff1663ffffffff16815260200190815260200160002060008015151515815260200190815260200160002060009054906101000a90046001600160a01b03168760c360008763ffffffff1663ffffffff168152602001908152602001600020548f8f8f8f8c8c604051610e679b9a99989796959493929190613f1c565b60405180910390a150505050505050505050565b610e83611f46565b63ffffffff8216600081815260c7602090815260409182902080546001600160a01b038681166001600160a01b03198316811790935584519586521691840182905291830191909152907ffc4d69f373858d480cfc3f12e7cc7f9b12201291753ffc3babef0e7a8041979f906060015b60405180910390a1505050565b610bc182826000610f6d565b8060005b81811015610f6757610f55848483818110610f3b57634e487b7160e01b600052603260045260246000fd5b9050602002016020810190610f509190613baa565b6119c7565b80610f5f816141c4565b915050610f10565b50505050565b3383610f78816119c7565b610f828282612201565b63ffffffff8516600090815260c9602090815260408083208615158452909152908190205490516323b872dd60e01b8152336004820152306024820152604481018690526001600160a01b03909116906323b872dd90606401602060405180830381600087803b158015610ff557600080fd5b505af1158015611009573d6000803e3d6000fd5b505050506040513d601f19601f8201168201806040525081019061102d9190613a06565b61103657600080fd5b63ffffffff8516600090815260d2602090815260408083208615158452825280832033845290915281208054869290611070908490614046565b909155505063ffffffff8516600090815260c46020526040812054611096906001614046565b63ffffffff8716600081815260cf60209081526040808320338452825280832085905592825260ce815282822088151583529052908120805492935087929091906110e2908490614046565b90915550506040517fd850f5d8405edb0730cd72e6bb9e228043c91fd591562543ea553efda14970b69061111f9088908790899033908790613fa0565b60405180910390a1505050505050565b805160005b81811015610f675761116d8484838151811061116057634e487b7160e01b600052603260045260246000fd5b6020026020010151612201565b80611177816141c4565b915050611134565b610bc182826001612304565b610bc18282612201565b61119d611f46565b609280546001600160a01b0319166001600160a01b0392909216919091179055565b610bc182826000612304565b63ffffffff8416600090815260cb60209081526040808320851580158552818452828520868652845282852054908552908352818420858552909252822054611215868383612417565b979650505050505050565b600054610100900460ff1680611239575060005460ff16155b61129c5760405162461bcd60e51b815260206004820152602e60248201527f496e697469616c697a61626c653a20636f6e747261637420697320616c72656160448201526d191e481a5b9a5d1a585b1a5e995960921b6064820152608401610a57565b600054610100900460ff161580156112be576000805461ffff19166101011790555b6001600160a01b038416158015906112de57506001600160a01b03831615155b80156112f257506001600160a01b03821615155b6112fb57600080fd5b609280546001600160a01b038681166001600160a01b0319928316811790935560948054878316908416811790915560938054928716929093168217909255604080519384526020840192909252908201527f48aa6e6153c5dedbe00925ab3c8e28c6ce0c1a80652b3369f176065e797b45079060600160405180910390a18015610f67576000805461ff001916905550505050565b610bc182826001612436565b6113a5611f46565b60006092601481819054906101000a900463ffffffff166113c5906141df565b91906101000a81548163ffffffff021916908363ffffffff160217905590506000609360009054906101000a90046001600160a01b03169050826001600160a01b031663edf565cc6040518163ffffffff1660e01b8152600401600060405180830381600087803b15801561143957600080fd5b505af115801561144d573d6000803e3d6000fd5b50506094546040516001600160a01b03909116925063e6d304679150611479908c908c90602001613e62565b604051602081830303815290604052898960405160200161149b929190613e1d565b604051602081830303815290604052848660016040518663ffffffff1660e01b81526004016114ce959493929190613ec8565b602060405180830381600087803b1580156114e857600080fd5b505af11580156114fc573d6000803e3d6000fd5b505050506040513d601f19601f820116820180604052508101906115209190613759565b63ffffffff8316600090815260c9602090815260408083206001845282529182902080546001600160a01b0319166001600160a01b039485161790556094549151919092169163e6d304679161157a918d918d9101613e3b565b604051602081830303815290604052898960405160200161159c929190613dff565b604051602081830303815290604052848660006040518663ffffffff1660e01b81526004016115cf959493929190613ec8565b602060405180830381600087803b1580156115e957600080fd5b505af11580156115fd573d6000803e3d6000fd5b505050506040513d601f19601f820116820180604052508101906116219190613759565b63ffffffff8316600081815260c960209081526040808320838052825280832080546001600160a01b03199081166001600160a01b039788161790915593835260c58252808320805485168b871617905560c682528083208054851689871617905560c7825280832080549094169489169485179093558251630ce74fc560e31b8152925163673a7e2893600480820194918390030190829087803b1580156116c957600080fd5b505af11580156116dd573d6000803e3d6000fd5b505050506040513d601f19601f820116820180604052508101906117019190613a22565b60c360008463ffffffff1663ffffffff168152602001908152602001600020819055507f901e73890694712ca72bdc627d356f05f11be45e7ccf490a8d4924c393bcb5658260c960008563ffffffff1663ffffffff1681526020019081526020016000206000600115151515815260200190815260200160002060009054906101000a90046001600160a01b031660c960008663ffffffff1663ffffffff16815260200190815260200160002060008015151515815260200190815260200160002060009054906101000a90046001600160a01b03168860c360008863ffffffff1663ffffffff168152602001908152602001600020548e8e8e8e8d8d6040516118159b9a99989796959493929190613f1c565b60405180910390a1505050505050505050565b611830611f46565b63ffffffff909116600090815260c86020526040902055565b610bc182826000612436565b610bc182826001610f6d565b60008261186d816125e0565b63ffffffff8416600090815260c4602090815260408083205460cf83528184206001600160a01b038a1685529092529091205480158015906118af5750818111155b156119bd5763ffffffff8616600090815260d060209081526040808320881515845282528083206001600160a01b038b16845290915290205480156119275763ffffffff8716600090815260cb6020908152604080832089151584528252808320858452909152902054611923828261263c565b9550505b63ffffffff8716600090815260d2602090815260408083208915845282528083206001600160a01b038c16845290915290205480156119ba5763ffffffff8816600090815260cb602090815260408083208a1580855281845282852088865284528285205490158552908352818420878552909252909120546119ab838383612417565b6119b59089614046565b975050505b50505b5050509392505050565b806119d1816125e0565b63ffffffff8216600090815260c760209081526040808320548151630ce74fc560e31b815291516001600160a01b039091169263673a7e28926004808201939182900301818787803b158015611a2657600080fd5b505af1158015611a3a573d6000803e3d6000fd5b505050506040513d601f19601f82011682018060405250810190611a5e9190613a22565b63ffffffff8416600090815260c4602090815260408083205460c390925290912054919250908214801590611db65763ffffffff8516600081815260cb60209081526040808320600180855281845282852088865284528285205485805291845282852088865284528285205460935487875260ca86528487209287529190945282852054858052948390205492516317b4d3fb60e31b81526004810196909652602486018890526044860182905260648601849052608486019490945260a48501919091529290916001600160a01b03169063bda69fd89060c401600060405180830381600087803b158015611b5457600080fd5b505af1158015611b68573d6000803e3d6000fd5b50505050600080611b798988612664565b63ffffffff8b16600090815260c9602090815260408083206001845282528083205481516318160ddd60e01b81529151959750939550611c229487946001600160a01b0316936318160ddd93600480850194919392918390030190829087803b158015611be557600080fd5b505af1158015611bf9573d6000803e3d6000fd5b505050506040513d601f19601f82011682018060405250810190611c1d9190613a22565b61263c565b63ffffffff8a16600090815260c96020908152604080832083805282528083205481516318160ddd60e01b81529151949850611c8c9486946001600160a01b03909216936318160ddd93600480820194929392918390030190829087803b158015611be557600080fd5b63ffffffff8a16600090815260c360205260409020889055925085611cb0816141c4565b63ffffffff8b16600090815260c46020908152604080832084905560cb82528083206001845280835281842085855283528184208a905583805282528083208484529091528120869055909750905080611d0b8b8787612856565b9092509050611d1a8285614005565b9350611d268184614005565b63ffffffff8c16600081815260ca6020908152604080832060018452825280832089905582805291829020849055815192835282018b905281018b9052606081018690526080810182905260a0810188905260c081018790529093507f69e662f95898affac086a5bc1177755bdaf7f4a40a3880364c48012170ee57fe9060e00160405180910390a15050505050505b5050505050565b6109d0611f46565b6000611df87f360894a13ba1a3210667c828492db98dca3e2076cc3735a920a3ca505d382bbc546001600160a01b031690565b9050611e0384612b49565b600083511180611e105750815b15611e2157611e1f8484612bf5565b505b7f4910fdfa16fed3260ed0e7147f7cc6da11a60208b5b9406d12a635614ffd9143805460ff16611db657805460ff191660011781556040516001600160a01b0383166024820152611ea090869060440160408051601f198184030181529190526020810180516001600160e01b0316631b2ce7f360e11b179052612bf5565b50805460ff191681557f360894a13ba1a3210667c828492db98dca3e2076cc3735a920a3ca505d382bbc546001600160a01b03838116911614611f3d5760405162461bcd60e51b815260206004820152602f60248201527f45524331393637557067726164653a207570677261646520627265616b73206660448201526e75727468657220757067726164657360881b6064820152608401610a57565b611db685612ce7565b6092546001600160a01b03163314611f8d5760405162461bcd60e51b815260206004820152600a60248201526937b7363c9030b236b4b760b11b6044820152606401610a57565b565b670de0b6b3a7640000821015611fe75760405162461bcd60e51b815260206004820152601860248201527f496e73756666696369656e74206d61726b6574207365656400000000000000006044820152606401610a57565b6000611ff4836002614123565b90506120008282612d27565b63ffffffff8216600090815260c66020526040908190205490516304831f7160e51b8152600481018390526001600160a01b0390911690639063ee2090602401600060405180830381600087803b15801561205a57600080fd5b505af115801561206e573d6000803e3d6000fd5b5050505063ffffffff8216600090815260c96020908152604080832060018452909152908190205490516340c10f1960e01b815273f10a7f10a7f10a7f10a7f10a7f10a7f10a7f10a76004820152602481018590526001600160a01b03909116906340c10f1990604401600060405180830381600087803b1580156120f257600080fd5b505af1158015612106573d6000803e3d6000fd5b5050505063ffffffff8216600090815260c960209081526040808320838052909152908190205490516340c10f1960e01b815273f10a7f10a7f10a7f10a7f10a7f10a7f10a7f10a76004820152602481018590526001600160a01b03909116906340c10f1990604401600060405180830381600087803b15801561218957600080fd5b505af115801561219d573d6000803e3d6000fd5b5050505063ffffffff8216600081815260ca6020908152604080832060018452825280832087905582805291829020869055815192835282018590527f6b73d8f672e796176444c21cb5429d8ea426e6f0f8a3b34e7057a808be5d19c69101610ef3565b63ffffffff8116600090815260cf602090815260408083206001600160a01b0386168452909152902054801580159061224f575063ffffffff8216600090815260c460205260409020548111155b156122ff5761226082846001612d66565b61226c82846000612d66565b61227882846001612f02565b61228482846000612f02565b61229082846001613061565b61229c82846000613061565b63ffffffff8216600081815260cf602090815260408083206001600160a01b038816808552908352818420939093558051928352908201929092527fe03aa867e2345cc967d98e4c81f6b0707b5ef082d9d20bac3dcf95540acdeae49101610ef3565b505050565b338361230f816119c7565b6123198282612201565b6123238585612d27565b63ffffffff8516600090815260cc60209081526040808320861515845290915281208054869290612355908490614046565b909155505063ffffffff8516600090815260d0602090815260408083208615158452825280832033845290915281208054869290612394908490614046565b909155505063ffffffff8516600090815260c460205260408120546123ba906001614046565b63ffffffff8716600090815260cf602090815260408083203380855292529182902083905590519192507f50b8727b538cf16daeb79894e8bde5c1e975985071be8a8d7620675a5dddfc6b9161111f91899188918a918790613fa0565b6000816124248486614123565b61242e919061408c565b949350505050565b3383612441816119c7565b61244b8282612201565b63ffffffff8516600090815260c9602090815260408083208615158452909152908190205490516323b872dd60e01b8152336004820152306024820152604481018690526001600160a01b03909116906323b872dd90606401602060405180830381600087803b1580156124be57600080fd5b505af11580156124d2573d6000803e3d6000fd5b505050506040513d601f19601f820116820180604052508101906124f69190613a06565b5063ffffffff8516600090815260d1602090815260408083208615158452825280832033845290915281208054869290612531908490614046565b909155505063ffffffff8516600090815260c46020526040812054612557906001614046565b63ffffffff8716600081815260cf60209081526040808320338452825280832085905592825260cd815282822088151583529052908120805492935087929091906125a3908490614046565b90915550506040517f191d5f0d51691cdc223884e5321013c9663c6b337a07d550c538d9dcbbd662039061111f9088908790899033908790613fa0565b63ffffffff8116600090815260c2602052604090205460ff166109d05760405162461bcd60e51b81526020600482015260146024820152731b585c9ad95d08191bd95cdb89dd08195e1a5cdd60621b6044820152606401610a57565b60008161265184670de0b6b3a7640000614123565b61265b919061408c565b90505b92915050565b63ffffffff8216600090815260c3602090815260408083205460ca8352818420600185528084528285205485805293529083205491926126a48385614046565b90506000806126b5888787866131dc565b63ffffffff8a16600090815260c6602052604080822054905163452accd960e11b81526004810188905260248101849052939550919350916001600160a01b0390911690638a5599b290604401602060405180830381600087803b15801561271c57600080fd5b505af1158015612730573d6000803e3d6000fd5b505050506040513d601f19601f820116820180604052508101906127549190613a22565b905080156127805782156127735761276c8188614046565b9650612780565b61277d8187614046565b95505b600061278c8888613253565b90506000868261279c828d614142565b6127a691906140a0565b6127b0919061405e565b90506000811215612809576127c481614203565b9050888111156127ec57620186a06127df8a6201869f6140a0565b6127e9919061405e565b90505b6127f6818a614181565b98506128028189614046565b9750612848565b8781111561282f57620186a0612822896201869f6140a0565b61282c919061405e565b90505b612839818a614046565b98506128458189614181565b97505b505050505050509250929050565b63ffffffff8316600090815260cc602090815260408083206001845290915281205481908190819080156128b65763ffffffff8816600090815260cc60209081526040808320600184529091528120559350836128b3818861263c565b92505b5063ffffffff8716600090815260cc60209081526040808320838052909152902054801561290f5763ffffffff8816600090815260cc6020908152604080832083805290915281205592508261290c818761263c565b91505b5063ffffffff8716600090815260ce602090815260408083206001845290915290205480156129a5576000612944828961326b565b90506129508187614142565b955061295c8186614005565b94506129688285614142565b9350612975828989612417565b61297f9084614005565b63ffffffff8a16600090815260ce60209081526040808320600184529091528120559250505b5063ffffffff8716600090815260ce602090815260408083208380529091529020548015612a395760006129d9828861326b565b90506129e58186614142565b94506129f18187614005565b95506129fd8284614142565b9250612a0a82888a612417565b612a149085614005565b63ffffffff8a16600090815260ce602090815260408083208380529091528120559350505b5063ffffffff8716600090815260cd60209081526040808320600184529091529020548015612aa757612a6c818861326b565b612a769086614142565b9450612a828184614142565b63ffffffff8916600090815260cd602090815260408083206001845290915281205592505b5063ffffffff8716600090815260cd602090815260408083208380529091529020548015612b1357612ad9818761326b565b612ae39085614142565b9350612aef8183614142565b63ffffffff8916600090815260cd6020908152604080832083805290915281205591505b612b2688612b218688614005565b613280565b612b328860018561338a565b612b3e8860008461338a565b505050935093915050565b612b52816134b5565b612bb45760405162461bcd60e51b815260206004820152602d60248201527f455243313936373a206e657720696d706c656d656e746174696f6e206973206e60448201526c1bdd08184818dbdb9d1c9858dd609a1b6064820152608401610a57565b7f360894a13ba1a3210667c828492db98dca3e2076cc3735a920a3ca505d382bbc80546001600160a01b0319166001600160a01b0392909216919091179055565b6060612c00836134b5565b612c5b5760405162461bcd60e51b815260206004820152602660248201527f416464726573733a2064656c65676174652063616c6c20746f206e6f6e2d636f6044820152651b9d1c9858dd60d21b6064820152608401610a57565b600080846001600160a01b031684604051612c769190613de3565b600060405180830381855af49150503d8060008114612cb1576040519150601f19603f3d011682016040523d82523d6000602084013e612cb6565b606091505b5091509150612cde8282604051806060016040528060278152602001614283602791396134bf565b95945050505050565b612cf081612b49565b6040516001600160a01b038216907fbc7cd75a20ee27fd9adebab32041f755214dbc6bffa90cc0225b39da2e5c2d3b90600090a250565b63ffffffff808316600090815260c6602090815260408083205460c590925290912054610bc1926001600160a01b03918216923392169085906134ff16565b63ffffffff8316600090815260d060209081526040808320841515845282528083206001600160a01b03861684529091529020548015610f675763ffffffff8416600081815260d0602090815260408083208615158085529083528184206001600160a01b03891680865290845282852085905585855260cb845282852091855290835281842094845260cf8352818420908452825280832054835292905290812054612e1490839061263c565b63ffffffff8616600090815260c96020908152604080832087151584529091529081902054905163a9059cbb60e01b81526001600160a01b0387811660048301526024820184905292935091169063a9059cbb90604401602060405180830381600087803b158015612e8557600080fd5b505af1158015612e99573d6000803e3d6000fd5b505050506040513d601f19601f82011682018060405250810190612ebd9190613a06565b507f2b896bbe6fd98e6571cdb9adb035742b407675559adeedf5f06159e3e56f6dda84868584604051612ef39493929190613e87565b60405180910390a15050505050565b63ffffffff8316600090815260d160209081526040808320841515845282528083206001600160a01b03861684529091529020548015610f675763ffffffff8416600081815260d1602090815260408083208615158085529083528184206001600160a01b03891680865290845282852085905585855260cb845282852091855290835281842094845260cf8352818420908452825280832054835292905290812054612fb090839061326b565b63ffffffff8616600090815260c66020526040908190205490516375b5ffd160e11b81526001600160a01b0387811660048301526024820184905292935091169063eb6bffa290604401600060405180830381600087803b15801561301457600080fd5b505af1158015613028573d6000803e3d6000fd5b505050507f8937f7ec13112bd5042a48b763f209c758b38657c498e81470568e88b0d1970784868584604051612ef39493929190613e87565b63ffffffff8316600090815260d260209081526040808320841515845282528083206001600160a01b03861684529091529020548015610f675763ffffffff8416600090815260cf602090815260408083206001600160a01b03871684529091528120546130d4908690849086906111cb565b63ffffffff8616600081815260d2602090815260408083208815801585529083528184206001600160a01b038b811680875291855283862086905595855260c9845282852091855292529182902054915163a9059cbb60e01b8152600481019190915260248101849052929350169063a9059cbb90604401602060405180830381600087803b15801561316657600080fd5b505af115801561317a573d6000803e3d6000fd5b505050506040513d601f19601f8201168201806040525081019061319e9190613a06565b6131a757600080fd5b7f284b8f45766675af314e474626b6fe315a5c96f2fac530ad6e47991bbf25472384868584604051612ef39493929190613e87565b81831060008082156131f157508484036131f6565b508385035b63ffffffff8716600090815260c8602052604081205485906132189084614123565b613222919061408c565b9050600061323882670de0b6b3a7640000613253565b905080670de0b6b3a764000003935050505094509492505050565b60008183111561326457508061265e565b508161265e565b6000670de0b6b3a76400006126518385614123565b60008113156133005763ffffffff8216600090815260c66020526040908190205490516304831f7160e51b8152600481018390526001600160a01b0390911690639063ee2090602401600060405180830381600087803b1580156132e357600080fd5b505af11580156132f7573d6000803e3d6000fd5b50505050610bc1565b6000811215610bc15763ffffffff8216600090815260c660205260409020546001600160a01b0316631c499b5561333683614203565b6040518263ffffffff1660e01b815260040161335491815260200190565b600060405180830381600087803b15801561336e57600080fd5b505af1158015613382573d6000803e3d6000fd5b505050505050565b600081131561341d5763ffffffff8316600090815260c9602090815260408083208515158452909152908190205490516340c10f1960e01b8152306004820152602481018390526001600160a01b03909116906340c10f1990604401600060405180830381600087803b15801561340057600080fd5b505af1158015613414573d6000803e3d6000fd5b505050506122ff565b60008112156122ff5763ffffffff8316600090815260c96020908152604080832085151584529091529020546001600160a01b03166342966c6861346083614203565b6040518263ffffffff1660e01b815260040161347e91815260200190565b600060405180830381600087803b15801561349857600080fd5b505af11580156134ac573d6000803e3d6000fd5b50505050505050565b803b15155b919050565b606083156134ce5750816134f8565b8251156134de5782518084602001fd5b8160405162461bcd60e51b8152600401610a579190613eb5565b9392505050565b604080516001600160a01b038581166024830152848116604483015260648083018590528351808403909101815260849092018352602080830180516001600160e01b03166323b872dd60e01b17905283518085019094528084527f5361666545524332303a206c6f772d6c6576656c2063616c6c206661696c656490840152610f6792879291600091613597918516908490613614565b8051909150156122ff57808060200190518101906135b59190613a06565b6122ff5760405162461bcd60e51b815260206004820152602a60248201527f5361666545524332303a204552433230206f7065726174696f6e20646964206e6044820152691bdd081cdd58d8d9595960b21b6064820152608401610a57565b606061242e848460008585613628856134b5565b6136745760405162461bcd60e51b815260206004820152601d60248201527f416464726573733a2063616c6c20746f206e6f6e2d636f6e74726163740000006044820152606401610a57565b600080866001600160a01b031685876040516136909190613de3565b60006040518083038185875af1925050503d80600081146136cd576040519150601f19603f3d011682016040523d82523d6000602084013e6136d2565b606091505b50915091506112158282866134bf565b60008083601f8401126136f3578182fd5b50813567ffffffffffffffff81111561370a578182fd5b60208301915083602082850101111561372257600080fd5b9250929050565b803563ffffffff811681146134ba57600080fd5b60006020828403121561374e578081fd5b81356134f88161425f565b60006020828403121561376a578081fd5b81516134f88161425f565b600080600060608486031215613789578182fd5b83356137948161425f565b925060208401356137a48161425f565b915060408401356137b48161425f565b809150509250925092565b600080604083850312156137d1578182fd5b82356137dc8161425f565b915060208381013567ffffffffffffffff808211156137f9578384fd5b818601915086601f83011261380c578384fd5b81358181111561381e5761381e614249565b8060051b915061382f848301613fd4565b8181528481019084860184860187018b1015613849578788fd5b8795505b838610156138725761385e81613729565b83526001959095019491860191860161384d565b508096505050505050509250929050565b60008060408385031215613895578182fd5b82356138a08161425f565b915060208381013567ffffffffffffffff808211156138bd578384fd5b818601915086601f8301126138d0578384fd5b8135818111156138e2576138e2614249565b6138f4601f8201601f19168501613fd4565b91508082528784828501011115613909578485fd5b8084840185840137810190920192909252919491935090915050565b60008060408385031215613937578182fd5b82356139428161425f565b915061395060208401613729565b90509250929050565b60008060006060848603121561396d578283fd5b83356139788161425f565b925061398660208501613729565b915060408401356137b481614274565b600080602083850312156139a8578182fd5b823567ffffffffffffffff808211156139bf578384fd5b818501915085601f8301126139d2578384fd5b8135818111156139e0578485fd5b8660208260051b85010111156139f4578485fd5b60209290920196919550909350505050565b600060208284031215613a17578081fd5b81516134f881614274565b600060208284031215613a33578081fd5b5051919050565b600080600080600080600060a0888a031215613a54578485fd5b873567ffffffffffffffff80821115613a6b578687fd5b613a778b838c016136e2565b909950975060208a0135915080821115613a8f578687fd5b50613a9c8a828b016136e2565b9096509450506040880135613ab08161425f565b92506060880135613ac08161425f565b91506080880135613ad08161425f565b8091505092959891949750929550565b600080600080600080600080600060e08a8c031215613afd578283fd5b893567ffffffffffffffff80821115613b14578485fd5b613b208d838e016136e2565b909b50995060208c0135915080821115613b38578485fd5b50613b458c828d016136e2565b90985096505060408a0135613b598161425f565b945060608a0135613b698161425f565b935060808a0135613b798161425f565b925060a08a0135613b898161425f565b915060c08a0135613b998161425f565b809150509295985092959850929598565b600060208284031215613bbb578081fd5b61265b82613729565b60008060408385031215613bd6578182fd5b613bdf83613729565b91506020830135613bef8161425f565b809150509250929050565b60008060408385031215613c0c578182fd5b613c1583613729565b91506020830135613bef81614274565b600080600060608486031215613c39578081fd5b613c4284613729565b925060208401356137a481614274565b600080600060608486031215613c66578081fd5b613c6f84613729565b92506020840135613c7f81614274565b929592945050506040919091013590565b60008060408385031215613ca2578182fd5b613cab83613729565b946020939093013593505050565b600080600060608486031215613ccd578081fd5b613cd684613729565b92506020840135915060408401356137b481614274565b60008060008060808587031215613d02578182fd5b613d0b85613729565b9350602085013592506040850135613d2281614274565b9396929550929360600135925050565b600080600080600080600080610100898b031215613d4e578182fd5b613d5789613729565b9a60208a01359a5060408a013599606081013599506080810135985060a0810135975060c0810135965060e00135945092505050565b60008284528282602086013780602084860101526020601f19601f85011685010190509392505050565b60008151808452613dcf816020860160208601614198565b601f01601f19169290920160200192915050565b60008251613df5818460208701614198565b9190910192915050565b600061199960f21b8252828460028401379101600201908152919050565b600061667560f01b8252828460028401379101600201908152919050565b60006a0233637b0ba102237bbb7160ad1b82528284600b8401379101600b01908152919050565b6000680233637b0ba102ab8160bd1b8252828460098401379101600901908152919050565b6001600160a01b0394909416845263ffffffff92909216602084015215156040830152606082015260800190565b60006020825261265b6020830184613db7565b600060a08252613edb60a0830188613db7565b8281036020840152613eed8188613db7565b6001600160a01b03969096166040840152505063ffffffff929092166060830152151560809091015292915050565b63ffffffff8c1681526001600160a01b038b811660208301528a8116604083015289811660608301526080820189905261012060a08301819052600091613f668483018a8c613d8d565b915083820360c0850152613f7b82888a613d8d565b925080861660e085015280851661010085015250509c9b505050505050505050505050565b63ffffffff959095168552921515602085015260408401919091526001600160a01b03166060830152608082015260a00190565b604051601f8201601f1916810167ffffffffffffffff81118282101715613ffd57613ffd614249565b604052919050565b600080821280156001600160ff1b03849003851316156140275761402761421d565b600160ff1b83900384128116156140405761404061421d565b50500190565b600082198211156140595761405961421d565b500190565b60008261406d5761406d614233565b600160ff1b8214600019841416156140875761408761421d565b500590565b60008261409b5761409b614233565b500490565b60006001600160ff1b03818413828413808216868404861116156140c6576140c661421d565b600160ff1b848712828116878305891216156140e4576140e461421d565b8587129250878205871284841616156140ff576140ff61421d565b878505871281841616156141155761411561421d565b505050929093029392505050565b600081600019048311821515161561413d5761413d61421d565b500290565b60008083128015600160ff1b8501841216156141605761416061421d565b6001600160ff1b038401831381161561417b5761417b61421d565b50500390565b6000828210156141935761419361421d565b500390565b60005b838110156141b357818101518382015260200161419b565b83811115610f675750506000910152565b60006000198214156141d8576141d861421d565b5060010190565b600063ffffffff808316818114156141f9576141f961421d565b6001019392505050565b6000600160ff1b8214156142195761421961421d565b0390565b634e487b7160e01b600052601160045260246000fd5b634e487b7160e01b600052601260045260246000fd5b634e487b7160e01b600052604160045260246000fd5b6001600160a01b03811681146109d057600080fd5b80151581146109d057600080fdfe416464726573733a206c6f772d6c6576656c2064656c65676174652063616c6c206661696c6564a264697066735822122037249410e4d861312a87df247b3dc791cc4a36c3fe10c5243fdda21ab92cb0a164736f6c63430008030033",
  "immutableReferences": {},
  "source": "// SPDX-License-Identifier: BUSL-1.1\n\npragma solidity 0.8.3;\n\nimport \"@openzeppelin/contracts-upgradeable/proxy/utils/Initializable.sol\";\nimport \"@openzeppelin/contracts/token/ERC20/IERC20.sol\";\nimport \"@openzeppelin/contracts/token/ERC20/utils/SafeERC20.sol\";\nimport \"@openzeppelin/contracts-upgradeable/proxy/utils/UUPSUpgradeable.sol\";\n\nimport \"./interfaces/ITokenFactory.sol\";\nimport \"./interfaces/ISyntheticToken.sol\";\nimport \"./interfaces/IStaker.sol\";\nimport \"./interfaces/ILongShort.sol\";\nimport \"./interfaces/IYieldManager.sol\";\nimport \"./interfaces/IOracleManager.sol\";\n\n/**\n **** visit https://float.capital *****\n */\n\n/// @title Core logic of Float Protocal markets\n/// @author float.capital\n/// @notice visit https://float.capital for more info\n/// @dev All functions in this file are currently `virtual`. This is NOT to encourage inheritance.\n/// It is merely for convenince when unit testing.\n/// @custom:auditors This contract balances long and short sides.\ncontract LongShort is ILongShort, Initializable, UUPSUpgradeable {\n  //Using Open Zeppelin safe transfer library for token transfers\n  using SafeERC20 for IERC20;\n\n  /*\n              VARIABLES          \n    */\n\n  /*  Fixed-precision constants  */\n  /// @notice this is the address that permanently locked initial liquidity for markets is held by.\n  /// These tokens will never move so market can never have zero liquidity on a side.\n  /// @dev f10a7 spells float in hex - for fun - important part is that the private key for this address in not known.\n  address public constant PERMANENT_INITIAL_LIQUIDITY_HOLDER =\n    0xf10A7_F10A7_f10A7_F10a7_F10A7_f10a7_F10A7_f10a7;\n\n  /// @dev an empty allocation of storage for use in future upgrades - inspiration from OZ:\n  ///      https://github.com/OpenZeppelin/openzeppelin-contracts-upgradeable/blob/10f0f1a95b1b0fd5520351886bae7a03490f1056/contracts/token/ERC20/ERC20Upgradeable.sol#L361\n  uint256[45] private __constantsGap;\n\n  /*  Global state  */\n  address public admin;\n  uint32 public latestMarket;\n\n  address public staker;\n  address public tokenFactory;\n  uint256[45] private __globalStateGap;\n\n  /*  Market specific  */\n  mapping(uint32 => bool) public marketExists;\n  mapping(uint32 => int256) public assetPrice;\n  mapping(uint32 => uint256) public marketUpdateIndex;\n  mapping(uint32 => address) public paymentTokens;\n  mapping(uint32 => address) public yieldManagers;\n  mapping(uint32 => address) public oracleManagers;\n  mapping(uint32 => uint256) public marketTreasurySplitGradient_e18;\n\n  /*  Market + position (long/short) specific  */\n  mapping(uint32 => mapping(bool => address)) public syntheticTokens;\n  mapping(uint32 => mapping(bool => uint256)) public marketSideValueInPaymentToken;\n\n  /// @notice synthetic token prices of a given market of a (long/short) at every previous price update\n  mapping(uint32 => mapping(bool => mapping(uint256 => uint256)))\n    public syntheticToken_priceSnapshot;\n\n  mapping(uint32 => mapping(bool => uint256)) public batched_amountPaymentToken_deposit;\n  mapping(uint32 => mapping(bool => uint256)) public batched_amountSyntheticToken_redeem;\n  mapping(uint32 => mapping(bool => uint256))\n    public batched_amountSyntheticToken_toShiftAwayFrom_marketSide;\n\n  /*  User specific  */\n  mapping(uint32 => mapping(address => uint256)) public userNextPrice_currentUpdateIndex;\n\n  mapping(uint32 => mapping(bool => mapping(address => uint256)))\n    public userNextPrice_paymentToken_depositAmount;\n  mapping(uint32 => mapping(bool => mapping(address => uint256)))\n    public userNextPrice_syntheticToken_redeemAmount;\n  mapping(uint32 => mapping(bool => mapping(address => uint256)))\n    public userNextPrice_syntheticToken_toShiftAwayFrom_marketSide;\n\n  /*\n              MODIFIERS          \n    */\n\n  function adminOnlyModifierLogic() internal virtual {\n    require(msg.sender == admin, \"only admin\");\n  }\n\n  modifier adminOnly() {\n    adminOnlyModifierLogic();\n    _;\n  }\n\n  function requireMarketExistsModifierLogic(uint32 marketIndex) internal view virtual {\n    require(marketExists[marketIndex], \"market doesn't exist\");\n  }\n\n  modifier requireMarketExists(uint32 marketIndex) {\n    requireMarketExistsModifierLogic(marketIndex);\n    _;\n  }\n\n  modifier updateSystemStateMarketAndExecuteOutstandingNextPriceSettlements(\n    address user,\n    uint32 marketIndex\n  ) {\n    _updateSystemStateInternal(marketIndex);\n    _executeOutstandingNextPriceSettlements(user, marketIndex);\n    _;\n  }\n\n  /*\n           CONTRACT SET-UP       \n    */\n\n  /// @notice Initializes the contract.\n  /// @dev Calls OpenZeppelin's initializer modifier.\n  /// @param _admin Address of the admin role.\n  /// @param _tokenFactory Address of the contract which creates synthetic asset tokens.\n  /// @param _staker Address of the contract which handles synthetic asset stakes.\n  function initialize(\n    address _admin,\n    address _tokenFactory,\n    address _staker\n  ) external virtual initializer {\n    require(_admin != address(0) && _tokenFactory != address(0) && _staker != address(0));\n\n    admin = _admin;\n    tokenFactory = _tokenFactory;\n    staker = _staker;\n\n    emit LongShortV1(_admin, _tokenFactory, _staker);\n  }\n\n  /*\n           ADMIN       \n    */\n\n  /// @notice Authorizes an upgrade to a new address.\n  /// @dev Can only be called by the current admin.\n  function _authorizeUpgrade(address) internal override adminOnly {}\n\n  /// @notice Changes the admin address for this contract.\n  /// @dev Can only be called by the current admin.\n  /// @param _admin Address of the new admin.\n  function changeAdmin(address _admin) external adminOnly {\n    admin = _admin;\n  }\n\n  /// @notice Update oracle for a market\n  /// @dev Can only be called by the current admin.\n  /// @param marketIndex An uint32 which uniquely identifies a market.\n  /// @param _newOracleManager Address of the replacement oracle manager.\n  function updateMarketOracle(uint32 marketIndex, address _newOracleManager) external adminOnly {\n    // If not a oracle contract this would break things.. Test's arn't validating this\n    // Ie require isOracle interface - ERC165\n    address previousOracleManager = oracleManagers[marketIndex];\n    oracleManagers[marketIndex] = _newOracleManager;\n    emit OracleUpdated(marketIndex, previousOracleManager, _newOracleManager);\n  }\n\n  /// @notice changes the gradient of the line for determining the yield split between market and treasury.\n  function changeMarketTreasurySplitGradient(\n    uint32 marketIndex,\n    uint256 _marketTreasurySplitGradient_e18\n  ) external adminOnly {\n    marketTreasurySplitGradient_e18[marketIndex] = _marketTreasurySplitGradient_e18;\n  }\n\n  /*\n           MARKET CREATION       \n    */\n\n  /// @notice Creates an entirely new long/short market tracking an underlying oracle price.\n  ///  Make sure the synthetic names/symbols are unique.\n  /// @dev This does not make the market active.\n  /// The `initializeMarket` function was split out separately to this function to reduce costs.\n  /// @param syntheticName Name of the synthetic asset\n  /// @param syntheticSymbol Symbol for the synthetic asset\n  /// @param _paymentToken The address of the erc20 token used to buy this synthetic asset\n  /// this will likely always be DAI\n  /// @param _oracleManager The address of the oracle manager that provides the price feed for this market\n  /// @param _yieldManager The contract that manages depositing the paymentToken into a yield bearing protocol\n  function createNewSyntheticMarket(\n    string calldata syntheticName,\n    string calldata syntheticSymbol,\n    address _paymentToken,\n    address _oracleManager,\n    address _yieldManager\n  ) external adminOnly {\n    uint32 marketIndex = ++latestMarket;\n    address _staker = staker;\n\n    // Ensure new markets don't use the same yield manager\n    IYieldManager(_yieldManager).initializeForMarket();\n\n    // Create new synthetic long token.\n    syntheticTokens[marketIndex][true] = ITokenFactory(tokenFactory).createSyntheticToken(\n      string(abi.encodePacked(\"Float Up \", syntheticName)),\n      string(abi.encodePacked(\"fu\", syntheticSymbol)),\n      _staker,\n      marketIndex,\n      true\n    );\n\n    // Create new synthetic short token.\n    syntheticTokens[marketIndex][false] = ITokenFactory(tokenFactory).createSyntheticToken(\n      string(abi.encodePacked(\"Float Down \", syntheticName)),\n      string(abi.encodePacked(\"fd\", syntheticSymbol)),\n      _staker,\n      marketIndex,\n      false\n    );\n\n    // Initial market state.\n    paymentTokens[marketIndex] = _paymentToken;\n    yieldManagers[marketIndex] = _yieldManager;\n    oracleManagers[marketIndex] = _oracleManager;\n    assetPrice[marketIndex] = IOracleManager(oracleManagers[marketIndex]).updatePrice();\n\n    emit SyntheticMarketCreated(\n      marketIndex,\n      syntheticTokens[marketIndex][true],\n      syntheticTokens[marketIndex][false],\n      _paymentToken,\n      assetPrice[marketIndex],\n      syntheticName,\n      syntheticSymbol,\n      _oracleManager,\n      _yieldManager\n    );\n  }\n\n  /// @notice Creates an entirely new long/short market tracking an underlying oracle price.\n  ///  Uses already created synthetic tokens.\n  /// @dev This does not make the market active.\n  /// The `initializeMarket` function was split out separately to this function to reduce costs.\n  /// @param syntheticName Name of the synthetic asset\n  /// @param syntheticSymbol Symbol for the synthetic asset\n  /// @param _longToken Address for the long token.\n  /// @param _shortToken Address for the short token.\n  /// @param _paymentToken The address of the erc20 token used to buy this synthetic asset\n  /// this will likely always be DAI\n  /// @param _oracleManager The address of the oracle manager that provides the price feed for this market\n  /// @param _yieldManager The contract that manages depositing the paymentToken into a yield bearing protocol\n  function createNewSyntheticMarketUpgradeable(\n    string calldata syntheticName,\n    string calldata syntheticSymbol,\n    address _longToken,\n    address _shortToken,\n    address _paymentToken,\n    address _oracleManager,\n    address _yieldManager\n  ) external adminOnly {\n    uint32 marketIndex = ++latestMarket;\n\n    // Ensure new markets don't use the same yield manager\n    IYieldManager(_yieldManager).initializeForMarket();\n\n    // Assign new synthetic long token.\n    syntheticTokens[marketIndex][true] = _longToken;\n\n    // Assign new synthetic short token.\n    syntheticTokens[marketIndex][false] = _shortToken;\n\n    // Initial market state.\n    paymentTokens[marketIndex] = _paymentToken;\n    yieldManagers[marketIndex] = _yieldManager;\n    oracleManagers[marketIndex] = _oracleManager;\n    assetPrice[marketIndex] = IOracleManager(oracleManagers[marketIndex]).updatePrice();\n\n    emit SyntheticMarketCreated(\n      marketIndex,\n      syntheticTokens[marketIndex][true],\n      syntheticTokens[marketIndex][false],\n      _paymentToken,\n      assetPrice[marketIndex],\n      syntheticName,\n      syntheticSymbol,\n      _oracleManager,\n      _yieldManager\n    );\n  }\n\n  /// @notice Seeds a new market with initial capital.\n  /// @dev Only called when initializing a market.\n  /// @param initialMarketSeedForEachMarketSide Amount in wei for which to seed both sides of the market.\n  /// @param marketIndex An uint32 which uniquely identifies a market.\n  function _seedMarketInitially(uint256 initialMarketSeedForEachMarketSide, uint32 marketIndex)\n    internal\n    virtual\n  {\n    require(\n      // You require at least 1e18 (1 payment token with 18 decimal places) of the underlying payment token to seed the market.\n      initialMarketSeedForEachMarketSide >= 1e18,\n      \"Insufficient market seed\"\n    );\n\n    uint256 amountToLockInYieldManager = initialMarketSeedForEachMarketSide * 2;\n    _transferPaymentTokensFromUserToYieldManager(marketIndex, amountToLockInYieldManager);\n    IYieldManager(yieldManagers[marketIndex]).depositPaymentToken(amountToLockInYieldManager);\n\n    ISyntheticToken(syntheticTokens[marketIndex][true]).mint(\n      PERMANENT_INITIAL_LIQUIDITY_HOLDER,\n      initialMarketSeedForEachMarketSide\n    );\n    ISyntheticToken(syntheticTokens[marketIndex][false]).mint(\n      PERMANENT_INITIAL_LIQUIDITY_HOLDER,\n      initialMarketSeedForEachMarketSide\n    );\n\n    marketSideValueInPaymentToken[marketIndex][true] = initialMarketSeedForEachMarketSide;\n    marketSideValueInPaymentToken[marketIndex][false] = initialMarketSeedForEachMarketSide;\n\n    emit NewMarketLaunchedAndSeeded(marketIndex, initialMarketSeedForEachMarketSide);\n  }\n\n  /// @notice Sets a market as active once it has already been setup by createNewSyntheticMarket.\n  /// @dev Seperated from createNewSyntheticMarket due to gas considerations.\n  /// @param marketIndex An int32 which uniquely identifies the market.\n  /// @param kInitialMultiplier Linearly decreasing multiplier for Float token issuance for the market when staking synths.\n  /// @param kPeriod Time which kInitialMultiplier will last\n  /// @param unstakeFee_e18 Base 1e18 percentage fee levied when unstaking for the market.\n  /// @param balanceIncentiveCurve_exponent Sets the degree to which Float token issuance differs\n  /// for market sides in unbalanced markets. See Staker.sol\n  /// @param balanceIncentiveCurve_equilibriumOffset An offset to account for naturally imbalanced markets\n  /// when Float token issuance should differ for market sides. See Staker.sol\n  /// @param initialMarketSeedForEachMarketSide Amount of payment token that will be deposited in each market side to seed the market.\n  function initializeMarket(\n    uint32 marketIndex,\n    uint256 kInitialMultiplier,\n    uint256 kPeriod,\n    uint256 unstakeFee_e18,\n    uint256 initialMarketSeedForEachMarketSide,\n    uint256 balanceIncentiveCurve_exponent,\n    int256 balanceIncentiveCurve_equilibriumOffset,\n    uint256 _marketTreasurySplitGradient_e18\n  ) external adminOnly {\n    require(!marketExists[marketIndex], \"already initialized\");\n    require(marketIndex <= latestMarket, \"index too high\");\n\n    marketExists[marketIndex] = true;\n\n    marketTreasurySplitGradient_e18[marketIndex] = _marketTreasurySplitGradient_e18;\n\n    // Set this value to one initially - 0 is a null value and thus potentially bug prone.\n    marketUpdateIndex[marketIndex] = 1;\n\n    // Add new staker funds with fresh synthetic tokens.\n    IStaker(staker).addNewStakingFund(\n      marketIndex,\n      syntheticTokens[marketIndex][true],\n      syntheticTokens[marketIndex][false],\n      kInitialMultiplier,\n      kPeriod,\n      unstakeFee_e18,\n      balanceIncentiveCurve_exponent,\n      balanceIncentiveCurve_equilibriumOffset\n    );\n\n    _seedMarketInitially(initialMarketSeedForEachMarketSide, marketIndex);\n  }\n\n  /*\n           GETTER FUNCTIONS       \n    */\n\n  /// @notice Return the minimum of the 2 parameters. If they are equal return the first parameter.\n  /// @param a Any uint256\n  /// @param b Any uint256\n  /// @return min The minimum of the 2 parameters.\n  function _getMin(uint256 a, uint256 b) internal pure virtual returns (uint256) {\n    if (a > b) {\n      return b;\n    } else {\n      return a;\n    }\n  }\n\n  /// @notice Calculates the conversion rate from synthetic tokens to payment tokens.\n  /// @dev Synth tokens have a fixed 18 decimals.\n  /// @param amountPaymentTokenBackingSynth Amount of payment tokens in that token's lowest denomination.\n  /// @param amountSyntheticToken Amount of synth token in wei.\n  /// @return syntheticTokenPrice The calculated conversion rate in base 1e18.\n  function _getSyntheticTokenPrice(\n    uint256 amountPaymentTokenBackingSynth,\n    uint256 amountSyntheticToken\n  ) internal pure virtual returns (uint256 syntheticTokenPrice) {\n    return (amountPaymentTokenBackingSynth * 1e18) / amountSyntheticToken;\n  }\n\n  /// @notice Converts synth token amounts to payment token amounts at a synth token price.\n  /// @dev Price assumed base 1e18.\n  /// @param amountSyntheticToken Amount of synth token in wei.\n  /// @param syntheticTokenPriceInPaymentTokens The conversion rate from synth to payment tokens in base 1e18.\n  /// @return amountPaymentToken The calculated amount of payment tokens in token's lowest denomination.\n  function _getAmountPaymentToken(\n    uint256 amountSyntheticToken,\n    uint256 syntheticTokenPriceInPaymentTokens\n  ) internal pure virtual returns (uint256 amountPaymentToken) {\n    return (amountSyntheticToken * syntheticTokenPriceInPaymentTokens) / 1e18;\n  }\n\n  /// @notice Converts payment token amounts to synth token amounts at a synth token price.\n  /// @dev  Price assumed base 1e18.\n  /// @param amountPaymentTokenBackingSynth Amount of payment tokens in that token's lowest denomination.\n  /// @param syntheticTokenPriceInPaymentTokens The conversion rate from synth to payment tokens in base 1e18.\n  /// @return amountSyntheticToken The calculated amount of synthetic token in wei.\n  function _getAmountSyntheticToken(\n    uint256 amountPaymentTokenBackingSynth,\n    uint256 syntheticTokenPriceInPaymentTokens\n  ) internal pure virtual returns (uint256 amountSyntheticToken) {\n    return (amountPaymentTokenBackingSynth * 1e18) / syntheticTokenPriceInPaymentTokens;\n  }\n\n  /**\n  @notice Calculate the amount of target side synthetic tokens that are worth the same\n          amount of payment tokens as X many synthetic tokens on origin side.\n          The resulting equation comes from simplifying this function\n\n            _getAmountSyntheticToken(\n              _getAmountPaymentToken(\n                amountOriginSynth,\n                priceOriginSynth\n              ),\n              priceTargetSynth)\n\n            Unpacking the function we get:\n            ((amountOriginSynth * priceOriginSynth) / 1e18) * 1e18 / priceTargetSynth\n              And simplifying this we get:\n            (amountOriginSynth * priceOriginSynth) / priceTargetSynth\n  @param amountSyntheticTokens_originSide Amount of synthetic tokens on origin side\n  @param syntheticTokenPrice_originSide Price of origin side's synthetic token\n  @param syntheticTokenPrice_targetSide Price of target side's synthetic token\n  @return equivalentAmountSyntheticTokensOnTargetSide Amount of synthetic token on target side\n  */\n  function _getEquivalentAmountSyntheticTokensOnTargetSide(\n    uint256 amountSyntheticTokens_originSide,\n    uint256 syntheticTokenPrice_originSide,\n    uint256 syntheticTokenPrice_targetSide\n  ) internal pure virtual returns (uint256 equivalentAmountSyntheticTokensOnTargetSide) {\n    equivalentAmountSyntheticTokensOnTargetSide =\n      (amountSyntheticTokens_originSide * syntheticTokenPrice_originSide) /\n      syntheticTokenPrice_targetSide;\n  }\n\n  /// @notice Given an executed next price shift from tokens on one market side to the other,\n  /// determines how many other side tokens the shift was worth.\n  /// @dev Intended for use primarily by Staker.sol\n  /// @param marketIndex An uint32 which uniquely identifies a market.\n  /// @param amountSyntheticToken_redeemOnOriginSide Amount of synth token in wei.\n  /// @param isShiftFromLong Whether the token shift is from long to short (true), or short to long (false).\n  /// @param priceSnapshotIndex Index which identifies which synth prices to use.\n  /// @return amountSyntheticTokensToMintOnTargetSide The amount in wei of tokens for the other side that the shift was worth.\n  function getAmountSyntheticTokenToMintOnTargetSide(\n    uint32 marketIndex,\n    uint256 amountSyntheticToken_redeemOnOriginSide,\n    bool isShiftFromLong,\n    uint256 priceSnapshotIndex\n  ) public view virtual override returns (uint256 amountSyntheticTokensToMintOnTargetSide) {\n    uint256 syntheticTokenPriceOnOriginSide = syntheticToken_priceSnapshot[marketIndex][\n      isShiftFromLong\n    ][priceSnapshotIndex];\n    uint256 syntheticTokenPriceOnTargetSide = syntheticToken_priceSnapshot[marketIndex][\n      !isShiftFromLong\n    ][priceSnapshotIndex];\n\n    amountSyntheticTokensToMintOnTargetSide = _getEquivalentAmountSyntheticTokensOnTargetSide(\n      amountSyntheticToken_redeemOnOriginSide,\n      syntheticTokenPriceOnOriginSide,\n      syntheticTokenPriceOnTargetSide\n    );\n  }\n\n  /**\n  @notice The amount of a synth token a user is owed following a batch execution.\n    4 possible states for next price actions:\n        - \"Pending\" - means the next price update hasn't happened or been enacted on by the updateSystemState function.\n        - \"Confirmed\" - means the next price has been updated by the updateSystemState function. There is still\n        -               outstanding (lazy) computation that needs to be executed per user in the batch.\n        - \"Settled\" - there is no more computation left for the user.\n        - \"Non-existent\" - user has no next price actions.\n    This function returns a calculated value only in the case of 'confirmed' next price actions.\n    It should return zero for all other types of next price actions.\n  @dev Used in SyntheticToken.sol balanceOf to allow for automatic reflection of next price actions.\n  @param user The address of the user for whom to execute the function for.\n  @param marketIndex An uint32 which uniquely identifies a market.\n  @param isLong Whether it is for the long synthetic asset or the short synthetic asset.\n  @return confirmedButNotSettledBalance The amount in wei of tokens that the user is owed.\n  */\n  function getUsersConfirmedButNotSettledSynthBalance(\n    address user,\n    uint32 marketIndex,\n    bool isLong\n  )\n    external\n    view\n    virtual\n    override\n    requireMarketExists(marketIndex)\n    returns (uint256 confirmedButNotSettledBalance)\n  {\n    uint256 currentMarketUpdateIndex = marketUpdateIndex[marketIndex];\n    uint256 userNextPrice_currentUpdateIndex_forMarket = userNextPrice_currentUpdateIndex[\n      marketIndex\n    ][user];\n    if (\n      userNextPrice_currentUpdateIndex_forMarket != 0 &&\n      userNextPrice_currentUpdateIndex_forMarket <= currentMarketUpdateIndex\n    ) {\n      uint256 amountPaymentTokenDeposited = userNextPrice_paymentToken_depositAmount[marketIndex][\n        isLong\n      ][user];\n\n      if (amountPaymentTokenDeposited > 0) {\n        uint256 syntheticTokenPrice = syntheticToken_priceSnapshot[marketIndex][isLong][\n          userNextPrice_currentUpdateIndex_forMarket\n        ];\n\n        confirmedButNotSettledBalance = _getAmountSyntheticToken(\n          amountPaymentTokenDeposited,\n          syntheticTokenPrice\n        );\n      }\n\n\n        uint256 amountSyntheticTokensToBeShiftedAwayFromOriginSide\n       = userNextPrice_syntheticToken_toShiftAwayFrom_marketSide[marketIndex][!isLong][user];\n\n      if (amountSyntheticTokensToBeShiftedAwayFromOriginSide > 0) {\n        uint256 syntheticTokenPriceOnOriginSide = syntheticToken_priceSnapshot[marketIndex][\n          !isLong\n        ][userNextPrice_currentUpdateIndex_forMarket];\n        uint256 syntheticTokenPriceOnTargetSide = syntheticToken_priceSnapshot[marketIndex][isLong][\n          userNextPrice_currentUpdateIndex_forMarket\n        ];\n\n        confirmedButNotSettledBalance += _getEquivalentAmountSyntheticTokensOnTargetSide(\n          amountSyntheticTokensToBeShiftedAwayFromOriginSide,\n          syntheticTokenPriceOnOriginSide,\n          syntheticTokenPriceOnTargetSide\n        );\n      }\n    }\n  }\n\n  /**\n   @notice Calculates the percentage in base 1e18 of how much of the accrued yield\n   for a market should be allocated to treasury.\n   @dev For gas considerations also returns whether the long side is imbalanced.\n   @dev For gas considerations totalValueLockedInMarket is passed as a parameter as the function\n   calling this function has pre calculated the value\n   @param longValue The current total payment token value of the long side of the market.\n   @param shortValue The current total payment token value of the short side of the market.\n   @param totalValueLockedInMarket Total payment token value of both sides of the market.\n   @return isLongSideUnderbalanced Whether the long side initially had less value than the short side.\n   @return treasuryYieldPercent_e18 The percentage in base 1e18 of how much of the accrued yield\n   for a market should be allocated to treasury.\n   */\n  function _getYieldSplit(\n    uint32 marketIndex,\n    uint256 longValue,\n    uint256 shortValue,\n    uint256 totalValueLockedInMarket\n  ) internal view virtual returns (bool isLongSideUnderbalanced, uint256 treasuryYieldPercent_e18) {\n    isLongSideUnderbalanced = longValue < shortValue;\n    uint256 imbalance;\n\n    unchecked {\n      if (isLongSideUnderbalanced) {\n        imbalance = shortValue - longValue;\n      } else {\n        imbalance = longValue - shortValue;\n      }\n    }\n\n    // marketTreasurySplitGradient_e18 may be adjusted to ensure yield is given\n    // to the market at a desired rate e.g. if a market tends to become imbalanced\n    // frequently then the gradient can be increased to funnel yield to the market\n    // quicker.\n    // See this equation in latex: https://ipfs.io/ipfs/QmXsW4cHtxpJ5BFwRcMSUw7s5G11Qkte13NTEfPLTKEx4x\n    // Interact with this equation: https://www.desmos.com/calculator/pnl43tfv5b\n    uint256 marketPercentCalculated_e18 = (imbalance *\n      marketTreasurySplitGradient_e18[marketIndex]) / totalValueLockedInMarket;\n\n    uint256 marketPercent_e18 = _getMin(marketPercentCalculated_e18, 1e18);\n\n    unchecked {\n      treasuryYieldPercent_e18 = 1e18 - marketPercent_e18;\n    }\n  }\n\n  /*\n           HELPER FUNCTIONS       \n    */\n\n  /// @notice First gets yield from the yield manager and allocates it to market and treasury.\n  /// It then allocates the full market yield portion to the underbalanced side of the market.\n  /// NB this function also adjusts the value of the long and short side based on the latest\n  /// price of the underlying asset received from the oracle. This function should ideally be\n  /// called everytime there is an price update from the oracle. We have built a bot that does this.\n  /// The system is still perectly safe if not called every price update, the synthetic will just\n  /// less closely track the underlying asset.\n  /// @dev In one function as yield should be allocated before rebalancing.\n  /// This prevents an attack whereby the user imbalances a side to capture all accrued yield.\n  /// @param marketIndex The market for which to execute the function for.\n  /// @param newAssetPrice The new asset price.\n  /// @return longValue The value of the long side after rebalancing.\n  /// @return shortValue The value of the short side after rebalancing.\n  function _claimAndDistributeYieldThenRebalanceMarket(uint32 marketIndex, int256 newAssetPrice)\n    internal\n    virtual\n    returns (uint256 longValue, uint256 shortValue)\n  {\n    int256 oldAssetPrice = assetPrice[marketIndex];\n    // Claiming and distributing the yield\n    longValue = marketSideValueInPaymentToken[marketIndex][true];\n    shortValue = marketSideValueInPaymentToken[marketIndex][false];\n    uint256 totalValueLockedInMarket = longValue + shortValue;\n\n    (bool isLongSideUnderbalanced, uint256 treasuryYieldPercent_e18) = _getYieldSplit(\n      marketIndex,\n      longValue,\n      shortValue,\n      totalValueLockedInMarket\n    );\n\n    uint256 marketAmount = IYieldManager(yieldManagers[marketIndex])\n    .distributeYieldForTreasuryAndReturnMarketAllocation(\n      totalValueLockedInMarket,\n      treasuryYieldPercent_e18\n    );\n\n    if (marketAmount > 0) {\n      if (isLongSideUnderbalanced) {\n        longValue += marketAmount;\n      } else {\n        shortValue += marketAmount;\n      }\n    }\n\n    // Adjusting value of long and short pool based on price movement\n    // The side/position with less liquidity has 100% percent exposure to the price movement.\n    // The side/position with more liquidity will have exposure < 100% to the price movement.\n    // I.e. Imagine $100 in longValue and $50 shortValue\n    // long side would have $50/$100 = 50% exposure to price movements based on the liquidity imbalance.\n    // min(longValue, shortValue) = $50 , therefore if the price change was -10% then\n    // $50 * 10% = $5 gained for short side and conversely $5 lost for long side.\n    int256 underbalancedSideValue = int256(_getMin(longValue, shortValue));\n\n    // See this equation in latex: https://ipfs.io/ipfs/QmPeJ3SZdn1GfxqCD4GDYyWTJGPMSHkjPJaxrzk2qTTPSE\n    // Interact with this equation: https://www.desmos.com/calculator/t8gr6j5vsq\n    int256 valueChange = ((newAssetPrice - oldAssetPrice) * underbalancedSideValue) / oldAssetPrice;\n\n    if (valueChange < 0) {\n      valueChange = -valueChange; // make value change positive\n\n      // handle 'impossible' edge case where underlying price feed changes more than 100% downwards gracefully.\n      if (uint256(valueChange) > longValue) {\n        valueChange = (int256(longValue) * 99999) / 100000;\n      }\n      longValue -= uint256(valueChange);\n      shortValue += uint256(valueChange);\n    } else {\n      // handle 'impossible' edge case where underlying price feed changes more than 100% upwards gracefully.\n      if (uint256(valueChange) > shortValue) {\n        valueChange = (int256(shortValue) * 99999) / 100000;\n      }\n      longValue += uint256(valueChange);\n      shortValue -= uint256(valueChange);\n    }\n  }\n\n  /*\n         UPDATING SYSTEM STATE     \n    */\n\n  /// @notice Updates the value of the long and short sides to account for latest oracle price updates\n  /// and batches all next price actions.\n  /// @dev To prevent front-running only executes on price change from an oracle.\n  /// We assume the function will be called for each market at least once per price update.\n  /// Note Even if not called on every price update, this won't affect security, it will only affect how closely\n  /// the synthetic asset actually tracks the underlying asset.\n  /// @param marketIndex The market index for which to update.\n  function _updateSystemStateInternal(uint32 marketIndex)\n    internal\n    virtual\n    requireMarketExists(marketIndex)\n  {\n    // If a negative int is return this should fail.\n    int256 newAssetPrice = IOracleManager(oracleManagers[marketIndex]).updatePrice();\n\n    uint256 currentMarketIndex = marketUpdateIndex[marketIndex];\n\n    bool assetPriceHasChanged = assetPrice[marketIndex] != newAssetPrice;\n\n    if (assetPriceHasChanged) {\n      uint256 syntheticTokenPrice_inPaymentTokens_long = syntheticToken_priceSnapshot[marketIndex][\n        true\n      ][currentMarketIndex];\n      uint256 syntheticTokenPrice_inPaymentTokens_short = syntheticToken_priceSnapshot[marketIndex][\n        false\n      ][currentMarketIndex];\n      // if there is a price change and the 'staker' contract has pending updates, push the stakers price snapshot index to the staker\n      // (so the staker can handle its internal accounting)\n\n      IStaker(staker).pushUpdatedMarketPricesToUpdateFloatIssuanceCalculations(\n        marketIndex,\n        currentMarketIndex,\n        syntheticTokenPrice_inPaymentTokens_long,\n        syntheticTokenPrice_inPaymentTokens_short,\n        marketSideValueInPaymentToken[marketIndex][true],\n        marketSideValueInPaymentToken[marketIndex][false]\n      );\n\n      (\n        uint256 newLongPoolValue,\n        uint256 newShortPoolValue\n      ) = _claimAndDistributeYieldThenRebalanceMarket(marketIndex, newAssetPrice);\n\n      syntheticTokenPrice_inPaymentTokens_long = _getSyntheticTokenPrice(\n        newLongPoolValue,\n        ISyntheticToken(syntheticTokens[marketIndex][true]).totalSupply()\n      );\n      syntheticTokenPrice_inPaymentTokens_short = _getSyntheticTokenPrice(\n        newShortPoolValue,\n        ISyntheticToken(syntheticTokens[marketIndex][false]).totalSupply()\n      );\n\n      assetPrice[marketIndex] = newAssetPrice;\n\n      currentMarketIndex++;\n      marketUpdateIndex[marketIndex] = currentMarketIndex;\n\n      syntheticToken_priceSnapshot[marketIndex][true][\n        currentMarketIndex\n      ] = syntheticTokenPrice_inPaymentTokens_long;\n\n      syntheticToken_priceSnapshot[marketIndex][false][\n        currentMarketIndex\n      ] = syntheticTokenPrice_inPaymentTokens_short;\n\n      (\n        int256 long_changeInMarketValue_inPaymentToken,\n        int256 short_changeInMarketValue_inPaymentToken\n      ) = _batchConfirmOutstandingPendingActions(\n        marketIndex,\n        syntheticTokenPrice_inPaymentTokens_long,\n        syntheticTokenPrice_inPaymentTokens_short\n      );\n\n      newLongPoolValue = uint256(\n        int256(newLongPoolValue) + long_changeInMarketValue_inPaymentToken\n      );\n      newShortPoolValue = uint256(\n        int256(newShortPoolValue) + short_changeInMarketValue_inPaymentToken\n      );\n      marketSideValueInPaymentToken[marketIndex][true] = newLongPoolValue;\n      marketSideValueInPaymentToken[marketIndex][false] = newShortPoolValue;\n\n      emit SystemStateUpdated(\n        marketIndex,\n        currentMarketIndex,\n        newAssetPrice,\n        newLongPoolValue,\n        newShortPoolValue,\n        syntheticTokenPrice_inPaymentTokens_long,\n        syntheticTokenPrice_inPaymentTokens_short\n      );\n    }\n  }\n\n  /// @notice Updates the state of a market to account for the latest oracle price update.\n  /// @param marketIndex An uint32 which uniquely identifies a market.\n  function updateSystemState(uint32 marketIndex) external override {\n    _updateSystemStateInternal(marketIndex);\n  }\n\n  /// @notice Updates the state of multiples markets to account for their latest oracle price updates.\n  /// @param marketIndexes An array of int32s which uniquely identify markets.\n  function updateSystemStateMulti(uint32[] calldata marketIndexes) external override {\n    uint256 length = marketIndexes.length;\n    for (uint256 i = 0; i < length; i++) {\n      _updateSystemStateInternal(marketIndexes[i]);\n    }\n  }\n\n  /*\n              DEPOSIT          \n    */\n\n  /// @notice Transfers payment tokens for a market from msg.sender to this contract.\n  /// @dev Tokens are transferred directly to this contract to be deposited by the yield manager in the batch to earn yield.\n  ///      Since we check the return value of the transferFrom method, all payment tokens we use must conform to the ERC20 standard.\n  /// @param marketIndex An uint32 which uniquely identifies a market.\n  /// @param amount Amount of payment tokens in that token's lowest denominationto deposit.\n  function _transferPaymentTokensFromUserToYieldManager(uint32 marketIndex, uint256 amount)\n    internal\n    virtual\n  {\n    IERC20(paymentTokens[marketIndex]).safeTransferFrom(\n      msg.sender,\n      yieldManagers[marketIndex],\n      amount\n    );\n  }\n\n  /*\n           MINT POSITION       \n    */\n\n  /// @notice Allows users to mint synthetic assets for a market. To prevent front-running these mints are executed on the next price update from the oracle.\n  /// @dev Called by external functions to mint either long or short. If a user mints multiple times before a price update, these are treated as a single mint.\n  /// @param marketIndex An uint32 which uniquely identifies a market.\n  /// @param amount Amount of payment tokens in that token's lowest denominationfor which to mint synthetic assets at next price.\n  /// @param isLong Whether the mint is for a long or short synth.\n  function _mintNextPrice(\n    uint32 marketIndex,\n    uint256 amount,\n    bool isLong\n  )\n    internal\n    virtual\n    updateSystemStateMarketAndExecuteOutstandingNextPriceSettlements(msg.sender, marketIndex)\n  {\n    _transferPaymentTokensFromUserToYieldManager(marketIndex, amount);\n\n    batched_amountPaymentToken_deposit[marketIndex][isLong] += amount;\n    userNextPrice_paymentToken_depositAmount[marketIndex][isLong][msg.sender] += amount;\n    uint256 nextUpdateIndex = marketUpdateIndex[marketIndex] + 1;\n    userNextPrice_currentUpdateIndex[marketIndex][msg.sender] = nextUpdateIndex;\n\n    emit NextPriceDeposit(marketIndex, isLong, amount, msg.sender, nextUpdateIndex);\n  }\n\n  /// @notice Allows users to mint long synthetic assets for a market. To prevent front-running these mints are executed on the next price update from the oracle.\n  /// @param marketIndex An uint32 which uniquely identifies a market.\n  /// @param amount Amount of payment tokens in that token's lowest denominationfor which to mint synthetic assets at next price.\n  function mintLongNextPrice(uint32 marketIndex, uint256 amount) external override {\n    _mintNextPrice(marketIndex, amount, true);\n  }\n\n  /// @notice Allows users to mint short synthetic assets for a market. To prevent front-running these mints are executed on the next price update from the oracle.\n  /// @param marketIndex An uint32 which uniquely identifies a market.\n  /// @param amount Amount of payment tokens in that token's lowest denominationfor which to mint synthetic assets at next price.\n  function mintShortNextPrice(uint32 marketIndex, uint256 amount) external override {\n    _mintNextPrice(marketIndex, amount, false);\n  }\n\n  /*\n          REDEEM POSITION      \n    */\n\n  /// @notice Allows users to redeem their synthetic tokens for payment tokens. To prevent front-running these redeems are executed on the next price update from the oracle.\n  /// @dev Called by external functions to redeem either long or short. Payment tokens are actually transferred to the user when executeOutstandingNextPriceSettlements is called from a function call by the user.\n  /// @param marketIndex An uint32 which uniquely identifies a market.\n  /// @param tokens_redeem Amount in wei of synth tokens to redeem.\n  /// @param isLong Whether this redeem is for a long or short synth.\n  function _redeemNextPrice(\n    uint32 marketIndex,\n    uint256 tokens_redeem,\n    bool isLong\n  )\n    internal\n    virtual\n    updateSystemStateMarketAndExecuteOutstandingNextPriceSettlements(msg.sender, marketIndex)\n  {\n    ISyntheticToken(syntheticTokens[marketIndex][isLong]).transferFrom(\n      msg.sender,\n      address(this),\n      tokens_redeem\n    );\n\n    userNextPrice_syntheticToken_redeemAmount[marketIndex][isLong][msg.sender] += tokens_redeem;\n    uint256 nextUpdateIndex = marketUpdateIndex[marketIndex] + 1;\n    userNextPrice_currentUpdateIndex[marketIndex][msg.sender] = nextUpdateIndex;\n\n    batched_amountSyntheticToken_redeem[marketIndex][isLong] += tokens_redeem;\n\n    emit NextPriceRedeem(marketIndex, isLong, tokens_redeem, msg.sender, nextUpdateIndex);\n  }\n\n  /// @notice  Allows users to redeem long synthetic assets for a market. To prevent front-running these redeems are executed on the next price update from the oracle.\n  /// @param marketIndex An uint32 which uniquely identifies a market.\n  /// @param tokens_redeem Amount in wei of synth tokens to redeem at the next oracle price.\n  function redeemLongNextPrice(uint32 marketIndex, uint256 tokens_redeem) external {\n    _redeemNextPrice(marketIndex, tokens_redeem, true);\n  }\n\n  /// @notice  Allows users to redeem short synthetic assets for a market. To prevent front-running these redeems are executed on the next price update from the oracle.\n  /// @param marketIndex An uint32 which uniquely identifies a market.\n  /// @param tokens_redeem Amount in wei of synth tokens to redeem at the next oracle price.\n  function redeemShortNextPrice(uint32 marketIndex, uint256 tokens_redeem) external {\n    _redeemNextPrice(marketIndex, tokens_redeem, false);\n  }\n\n  /*\n           SHIFT POSITION      \n    */\n\n  /// @notice  Allows users to shift their position from one side of the market to the other in a single transaction. To prevent front-running these shifts are executed on the next price update from the oracle.\n  /// @dev Called by external functions to shift either way. Intended for primary use by Staker.sol\n  /// @param marketIndex An uint32 which uniquely identifies a market.\n  /// @param amountSyntheticTokensToShift Amount in wei of synthetic tokens to shift from the one side to the other at the next oracle price update.\n  /// @param isShiftFromLong Whether the token shift is from long to short (true), or short to long (false).\n  function shiftPositionNextPrice(\n    uint32 marketIndex,\n    uint256 amountSyntheticTokensToShift,\n    bool isShiftFromLong\n  )\n    public\n    virtual\n    override\n    updateSystemStateMarketAndExecuteOutstandingNextPriceSettlements(msg.sender, marketIndex)\n  {\n    require(\n      ISyntheticToken(syntheticTokens[marketIndex][isShiftFromLong]).transferFrom(\n        msg.sender,\n        address(this),\n        amountSyntheticTokensToShift\n      )\n    );\n\n    userNextPrice_syntheticToken_toShiftAwayFrom_marketSide[marketIndex][isShiftFromLong][\n      msg.sender\n    ] += amountSyntheticTokensToShift;\n    uint256 nextUpdateIndex = marketUpdateIndex[marketIndex] + 1;\n    userNextPrice_currentUpdateIndex[marketIndex][msg.sender] = nextUpdateIndex;\n\n    batched_amountSyntheticToken_toShiftAwayFrom_marketSide[marketIndex][\n      isShiftFromLong\n    ] += amountSyntheticTokensToShift;\n\n    emit NextPriceSyntheticPositionShift(\n      marketIndex,\n      isShiftFromLong,\n      amountSyntheticTokensToShift,\n      msg.sender,\n      nextUpdateIndex\n    );\n  }\n\n  /// @notice Allows users to shift their position from long to short in a single transaction. To prevent front-running these shifts are executed on the next price update from the oracle.\n  /// @param marketIndex An uint32 which uniquely identifies a market.\n  /// @param amountSyntheticTokensToShift Amount in wei of synthetic tokens to shift from long to short the next oracle price update.\n  function shiftPositionFromLongNextPrice(uint32 marketIndex, uint256 amountSyntheticTokensToShift)\n    external\n    override\n  {\n    shiftPositionNextPrice(marketIndex, amountSyntheticTokensToShift, true);\n  }\n\n  /// @notice Allows users to shift their position from short to long in a single transaction. To prevent front-running these shifts are executed on the next price update from the oracle.\n  /// @param marketIndex An uint32 which uniquely identifies a market.\n  /// @param amountSyntheticTokensToShift Amount in wei of synthetic tokens to shift from the short to long at the next oracle price update.\n  function shiftPositionFromShortNextPrice(uint32 marketIndex, uint256 amountSyntheticTokensToShift)\n    external\n    override\n  {\n    shiftPositionNextPrice(marketIndex, amountSyntheticTokensToShift, false);\n  }\n\n  /*\n         NEXT PRICE SETTLEMENTS     \n    */\n\n  /// @notice Transfers outstanding synth tokens from a next price mint to the user.\n  /// @dev The outstanding synths should already be reflected for the user due to balanceOf in SyntheticToken.sol, this just does the accounting.\n  /// @param marketIndex An uint32 which uniquely identifies a market.\n  /// @param user The address of the user for whom to execute the function for.\n  /// @param isLong Whether this is for the long or short synth for the market.\n  function _executeOutstandingNextPriceMints(\n    uint32 marketIndex,\n    address user,\n    bool isLong\n  ) internal virtual {\n    uint256 currentPaymentTokenDepositAmount = userNextPrice_paymentToken_depositAmount[\n      marketIndex\n    ][isLong][user];\n    if (currentPaymentTokenDepositAmount > 0) {\n      userNextPrice_paymentToken_depositAmount[marketIndex][isLong][user] = 0;\n      uint256 amountSyntheticTokensToTransferToUser = _getAmountSyntheticToken(\n        currentPaymentTokenDepositAmount,\n        syntheticToken_priceSnapshot[marketIndex][isLong][\n          userNextPrice_currentUpdateIndex[marketIndex][user]\n        ]\n      );\n      ISyntheticToken(syntheticTokens[marketIndex][isLong]).transfer(\n        user,\n        amountSyntheticTokensToTransferToUser\n      );\n\n      emit ExecuteNextPriceMintSettlementUser(\n        user,\n        marketIndex,\n        isLong,\n        amountSyntheticTokensToTransferToUser\n      );\n    }\n  }\n\n  /// @notice Transfers outstanding payment tokens from a next price redemption to the user.\n  /// @param marketIndex An uint32 which uniquely identifies a market.\n  /// @param user The address of the user for whom to execute the function for.\n  /// @param isLong Whether this is for the long or short synth for the market.\n  function _executeOutstandingNextPriceRedeems(\n    uint32 marketIndex,\n    address user,\n    bool isLong\n  ) internal virtual {\n    uint256 currentSyntheticTokenRedemptions = userNextPrice_syntheticToken_redeemAmount[\n      marketIndex\n    ][isLong][user];\n    if (currentSyntheticTokenRedemptions > 0) {\n      userNextPrice_syntheticToken_redeemAmount[marketIndex][isLong][user] = 0;\n      uint256 amountPaymentToken_toRedeem = _getAmountPaymentToken(\n        currentSyntheticTokenRedemptions,\n        syntheticToken_priceSnapshot[marketIndex][isLong][\n          userNextPrice_currentUpdateIndex[marketIndex][user]\n        ]\n      );\n\n      IYieldManager(yieldManagers[marketIndex]).transferPaymentTokensToUser(\n        user,\n        amountPaymentToken_toRedeem\n      );\n\n      emit ExecuteNextPriceRedeemSettlementUser(\n        user,\n        marketIndex,\n        isLong,\n        amountPaymentToken_toRedeem\n      );\n    }\n  }\n\n  /// @notice Transfers outstanding synth tokens from a next price position shift to the user.\n  /// @dev The outstanding synths should already be reflected for the user due to balanceOf in SyntheticToken.sol, this just does the accounting.\n  /// @param marketIndex An uint32 which uniquely identifies a market.\n  /// @param user The address of the user for whom to execute the function for.\n  /// @param isShiftFromLong Whether the token shift was from long to short (true), or short to long (false).\n  function _executeOutstandingNextPriceTokenShifts(\n    uint32 marketIndex,\n    address user,\n    bool isShiftFromLong\n  ) internal virtual {\n\n      uint256 syntheticToken_toShiftAwayFrom_marketSide\n     = userNextPrice_syntheticToken_toShiftAwayFrom_marketSide[marketIndex][isShiftFromLong][user];\n    if (syntheticToken_toShiftAwayFrom_marketSide > 0) {\n      uint256 syntheticToken_toShiftTowardsTargetSide = getAmountSyntheticTokenToMintOnTargetSide(\n        marketIndex,\n        syntheticToken_toShiftAwayFrom_marketSide,\n        isShiftFromLong,\n        userNextPrice_currentUpdateIndex[marketIndex][user]\n      );\n\n      userNextPrice_syntheticToken_toShiftAwayFrom_marketSide[marketIndex][isShiftFromLong][\n        user\n      ] = 0;\n\n      require(\n        ISyntheticToken(syntheticTokens[marketIndex][!isShiftFromLong]).transfer(\n          user,\n          syntheticToken_toShiftTowardsTargetSide\n        )\n      );\n\n      emit ExecuteNextPriceMarketSideShiftSettlementUser(\n        user,\n        marketIndex,\n        isShiftFromLong,\n        syntheticToken_toShiftTowardsTargetSide\n      );\n    }\n  }\n\n  /// @notice After markets have been batched updated on a new oracle price, transfers any owed tokens to a user from their next price actions for that update to that user.\n  /// @dev Once the market has updated for the next price, should be guaranteed (through modifiers) to execute for a user before user initiation of new next price actions.\n  /// @param user The address of the user for whom to execute the function.\n  /// @param marketIndex An uint32 which uniquely identifies a market.\n  function _executeOutstandingNextPriceSettlements(address user, uint32 marketIndex)\n    internal\n    virtual\n  {\n    uint256 userCurrentUpdateIndex = userNextPrice_currentUpdateIndex[marketIndex][user];\n    if (userCurrentUpdateIndex != 0 && userCurrentUpdateIndex <= marketUpdateIndex[marketIndex]) {\n      _executeOutstandingNextPriceMints(marketIndex, user, true);\n      _executeOutstandingNextPriceMints(marketIndex, user, false);\n      _executeOutstandingNextPriceRedeems(marketIndex, user, true);\n      _executeOutstandingNextPriceRedeems(marketIndex, user, false);\n      _executeOutstandingNextPriceTokenShifts(marketIndex, user, true);\n      _executeOutstandingNextPriceTokenShifts(marketIndex, user, false);\n\n      userNextPrice_currentUpdateIndex[marketIndex][user] = 0;\n\n      emit ExecuteNextPriceSettlementsUser(user, marketIndex);\n    }\n  }\n\n  /// @notice After markets have been batched updated on a new oracle price, transfers any owed tokens to a user from their next price actions for that update to that user.\n  /// @param user The address of the user for whom to execute the function.\n  /// @param marketIndex An uint32 which uniquely identifies a market.\n  function executeOutstandingNextPriceSettlementsUser(address user, uint32 marketIndex)\n    external\n    override\n  {\n    _executeOutstandingNextPriceSettlements(user, marketIndex);\n  }\n\n  /// @notice Executes outstanding next price settlements for a user for multiple markets.\n  /// @param user The address of the user for whom to execute the function.\n  /// @param marketIndexes An array of int32s which each uniquely identify a market.\n  function executeOutstandingNextPriceSettlementsUserMulti(\n    address user,\n    uint32[] memory marketIndexes\n  ) external {\n    uint256 length = marketIndexes.length;\n    for (uint256 i = 0; i < length; i++) {\n      _executeOutstandingNextPriceSettlements(user, marketIndexes[i]);\n    }\n  }\n\n  /*\n       BATCHED NEXT PRICE SETTLEMENT ACTIONS   \n    */\n\n  /// @notice Either transfers funds from the yield manager to this contract if redeems > deposits,\n  /// and vice versa. The yield manager handles depositing and withdrawing the funds from a yield market.\n  /// @dev When all batched next price actions are handled the total value in the market can either increase or decrease based on the value of mints and redeems.\n  /// @param marketIndex An uint32 which uniquely identifies a market.\n  /// @param totalPaymentTokenValueChangeForMarket An int256 which indicates the magnitude and direction of the change in market value.\n  function _handleTotalPaymentTokenValueChangeForMarketWithYieldManager(\n    uint32 marketIndex,\n    int256 totalPaymentTokenValueChangeForMarket\n  ) internal virtual {\n    if (totalPaymentTokenValueChangeForMarket > 0) {\n      IYieldManager(yieldManagers[marketIndex]).depositPaymentToken(\n        uint256(totalPaymentTokenValueChangeForMarket)\n      );\n    } else if (totalPaymentTokenValueChangeForMarket < 0) {\n      // NB there will be issues here if not enough liquidity exists to withdraw\n      // Boolean should be returned from yield manager and think how to appropriately handle this\n      IYieldManager(yieldManagers[marketIndex]).removePaymentTokenFromMarket(\n        uint256(-totalPaymentTokenValueChangeForMarket)\n      );\n    }\n  }\n\n  /// @notice Given a desired change in synth token supply, either mints or burns tokens to achieve that desired change.\n  /// @dev When all batched next price actions are executed total supply for a synth can either increase or decrease.\n  /// @param marketIndex An uint32 which uniquely identifies a market.\n  /// @param isLong Whether this function should execute for the long or short synth for the market.\n  /// @param changeInSyntheticTokensTotalSupply The amount in wei by which synth token supply should change.\n  function _handleChangeInSyntheticTokensTotalSupply(\n    uint32 marketIndex,\n    bool isLong,\n    int256 changeInSyntheticTokensTotalSupply\n  ) internal virtual {\n    if (changeInSyntheticTokensTotalSupply > 0) {\n      ISyntheticToken(syntheticTokens[marketIndex][isLong]).mint(\n        address(this),\n        uint256(changeInSyntheticTokensTotalSupply)\n      );\n    } else if (changeInSyntheticTokensTotalSupply < 0) {\n      ISyntheticToken(syntheticTokens[marketIndex][isLong]).burn(\n        uint256(-changeInSyntheticTokensTotalSupply)\n      );\n    }\n  }\n\n  /**\n  @notice Performs all batched next price actions on an oracle price update.\n  @dev Mints or burns all synthetic tokens for this contract.\n\n    After this function is executed all user actions in that batch are confirmed and can be settled individually by\n      calling _executeOutstandingNexPriceSettlements for a given user.\n\n    The maths here is safe from rounding errors since it always over estimates on the batch with division.\n      (as an example (5/3) + (5/3) = 2 but (5+5)/3 = 10/3 = 3, so the batched action would mint one more)\n  @param marketIndex An uint32 which uniquely identifies a market.\n  @param syntheticTokenPrice_inPaymentTokens_long The long synthetic token price for this oracle price update.\n  @param syntheticTokenPrice_inPaymentTokens_short The short synthetic token price for this oracle price update.\n  @return long_changeInMarketValue_inPaymentToken The total value change for the long side after all batched actions are executed.\n  @return short_changeInMarketValue_inPaymentToken The total value change for the short side after all batched actions are executed.\n  */\n  function _batchConfirmOutstandingPendingActions(\n    uint32 marketIndex,\n    uint256 syntheticTokenPrice_inPaymentTokens_long,\n    uint256 syntheticTokenPrice_inPaymentTokens_short\n  )\n    internal\n    virtual\n    returns (\n      int256 long_changeInMarketValue_inPaymentToken,\n      int256 short_changeInMarketValue_inPaymentToken\n    )\n  {\n    int256 changeInSupply_syntheticToken_long;\n    int256 changeInSupply_syntheticToken_short;\n\n    // NOTE: the only reason we are reusing amountForCurrentAction_workingVariable for all actions (redeemLong, redeemShort, mintLong, mintShort, shiftFromLong, shiftFromShort) is to reduce stack usage\n    uint256 amountForCurrentAction_workingVariable = batched_amountPaymentToken_deposit[\n      marketIndex\n    ][true];\n\n    // Handle batched deposits LONG\n    if (amountForCurrentAction_workingVariable > 0) {\n      long_changeInMarketValue_inPaymentToken = int256(amountForCurrentAction_workingVariable);\n\n      batched_amountPaymentToken_deposit[marketIndex][true] = 0;\n\n      changeInSupply_syntheticToken_long = int256(\n        _getAmountSyntheticToken(\n          amountForCurrentAction_workingVariable,\n          syntheticTokenPrice_inPaymentTokens_long\n        )\n      );\n    }\n\n    // Handle batched deposits SHORT\n    amountForCurrentAction_workingVariable = batched_amountPaymentToken_deposit[marketIndex][false];\n    if (amountForCurrentAction_workingVariable > 0) {\n      short_changeInMarketValue_inPaymentToken = int256(amountForCurrentAction_workingVariable);\n\n      batched_amountPaymentToken_deposit[marketIndex][false] = 0;\n\n      changeInSupply_syntheticToken_short = int256(\n        _getAmountSyntheticToken(\n          amountForCurrentAction_workingVariable,\n          syntheticTokenPrice_inPaymentTokens_short\n        )\n      );\n    }\n\n    // Handle shift tokens from LONG to SHORT\n    amountForCurrentAction_workingVariable = batched_amountSyntheticToken_toShiftAwayFrom_marketSide[\n      marketIndex\n    ][true];\n\n    if (amountForCurrentAction_workingVariable > 0) {\n      int256 paymentTokenValueChangeForShiftToShort = int256(\n        _getAmountPaymentToken(\n          amountForCurrentAction_workingVariable,\n          syntheticTokenPrice_inPaymentTokens_long\n        )\n      );\n\n      long_changeInMarketValue_inPaymentToken -= paymentTokenValueChangeForShiftToShort;\n      short_changeInMarketValue_inPaymentToken += paymentTokenValueChangeForShiftToShort;\n\n      changeInSupply_syntheticToken_long -= int256(amountForCurrentAction_workingVariable);\n      changeInSupply_syntheticToken_short += int256(\n        _getEquivalentAmountSyntheticTokensOnTargetSide(\n          amountForCurrentAction_workingVariable,\n          syntheticTokenPrice_inPaymentTokens_long,\n          syntheticTokenPrice_inPaymentTokens_short\n        )\n      );\n\n      batched_amountSyntheticToken_toShiftAwayFrom_marketSide[marketIndex][true] = 0;\n    }\n\n    // Handle shift tokens from SHORT to LONG\n    amountForCurrentAction_workingVariable = batched_amountSyntheticToken_toShiftAwayFrom_marketSide[\n      marketIndex\n    ][false];\n    if (amountForCurrentAction_workingVariable > 0) {\n      int256 paymentTokenValueChangeForShiftToLong = int256(\n        _getAmountPaymentToken(\n          amountForCurrentAction_workingVariable,\n          syntheticTokenPrice_inPaymentTokens_short\n        )\n      );\n\n      short_changeInMarketValue_inPaymentToken -= paymentTokenValueChangeForShiftToLong;\n      long_changeInMarketValue_inPaymentToken += paymentTokenValueChangeForShiftToLong;\n\n      changeInSupply_syntheticToken_short -= int256(amountForCurrentAction_workingVariable);\n      changeInSupply_syntheticToken_long += int256(\n        _getEquivalentAmountSyntheticTokensOnTargetSide(\n          amountForCurrentAction_workingVariable,\n          syntheticTokenPrice_inPaymentTokens_short,\n          syntheticTokenPrice_inPaymentTokens_long\n        )\n      );\n\n      batched_amountSyntheticToken_toShiftAwayFrom_marketSide[marketIndex][false] = 0;\n    }\n\n    // Handle batched redeems LONG\n    amountForCurrentAction_workingVariable = batched_amountSyntheticToken_redeem[marketIndex][true];\n    if (amountForCurrentAction_workingVariable > 0) {\n      long_changeInMarketValue_inPaymentToken -= int256(\n        _getAmountPaymentToken(\n          amountForCurrentAction_workingVariable,\n          syntheticTokenPrice_inPaymentTokens_long\n        )\n      );\n      changeInSupply_syntheticToken_long -= int256(amountForCurrentAction_workingVariable);\n\n      batched_amountSyntheticToken_redeem[marketIndex][true] = 0;\n    }\n\n    // Handle batched redeems SHORT\n    amountForCurrentAction_workingVariable = batched_amountSyntheticToken_redeem[marketIndex][\n      false\n    ];\n    if (amountForCurrentAction_workingVariable > 0) {\n      short_changeInMarketValue_inPaymentToken -= int256(\n        _getAmountPaymentToken(\n          amountForCurrentAction_workingVariable,\n          syntheticTokenPrice_inPaymentTokens_short\n        )\n      );\n      changeInSupply_syntheticToken_short -= int256(amountForCurrentAction_workingVariable);\n\n      batched_amountSyntheticToken_redeem[marketIndex][false] = 0;\n    }\n\n    // Batch settle payment tokens\n    _handleTotalPaymentTokenValueChangeForMarketWithYieldManager(\n      marketIndex,\n      long_changeInMarketValue_inPaymentToken + short_changeInMarketValue_inPaymentToken\n    );\n    // Batch settle synthetic tokens\n    _handleChangeInSyntheticTokensTotalSupply(\n      marketIndex,\n      true,\n      changeInSupply_syntheticToken_long\n    );\n    _handleChangeInSyntheticTokensTotalSupply(\n      marketIndex,\n      false,\n      changeInSupply_syntheticToken_short\n    );\n  }\n}\n",
  "sourcePath": "/home/jasoons/Documents/code/monorepo/contracts/contracts/LongShort.sol",
  "compiler": {
    "name": "solc",
    "version": "0.8.3+commit.8d00100c.Emscripten.clang"
  },
  "schemaVersion": "3.4.3",
  "updatedAt": "2021-08-20T13:02:09.095Z",
  "networkType": "ethereum",
  "devdoc": {
    "author": "float.capital",
    "custom:auditors": "This contract balances long and short sides.",
    "details": "All functions in this file are currently `virtual`. This is NOT to encourage inheritance. It is merely for convenince when unit testing.",
    "kind": "dev",
    "methods": {
      "changeAdmin(address)": {
        "details": "Can only be called by the current admin.",
        "params": {
          "_admin": "Address of the new admin."
        }
      },
      "createNewSyntheticMarket(string,string,address,address,address)": {
        "details": "This does not make the market active. The `initializeMarket` function was split out separately to this function to reduce costs.",
        "params": {
          "_oracleManager": "The address of the oracle manager that provides the price feed for this market",
          "_paymentToken": "The address of the erc20 token used to buy this synthetic asset this will likely always be DAI",
          "_yieldManager": "The contract that manages depositing the paymentToken into a yield bearing protocol",
          "syntheticName": "Name of the synthetic asset",
          "syntheticSymbol": "Symbol for the synthetic asset"
        }
      },
      "createNewSyntheticMarketUpgradeable(string,string,address,address,address,address,address)": {
        "details": "This does not make the market active. The `initializeMarket` function was split out separately to this function to reduce costs.",
        "params": {
          "_longToken": "Address for the long token.",
          "_oracleManager": "The address of the oracle manager that provides the price feed for this market",
          "_paymentToken": "The address of the erc20 token used to buy this synthetic asset this will likely always be DAI",
          "_shortToken": "Address for the short token.",
          "_yieldManager": "The contract that manages depositing the paymentToken into a yield bearing protocol",
          "syntheticName": "Name of the synthetic asset",
          "syntheticSymbol": "Symbol for the synthetic asset"
        }
      },
      "executeOutstandingNextPriceSettlementsUser(address,uint32)": {
        "params": {
          "marketIndex": "An uint32 which uniquely identifies a market.",
          "user": "The address of the user for whom to execute the function."
        }
      },
      "executeOutstandingNextPriceSettlementsUserMulti(address,uint32[])": {
        "params": {
          "marketIndexes": "An array of int32s which each uniquely identify a market.",
          "user": "The address of the user for whom to execute the function."
        }
      },
      "getAmountSyntheticTokenToMintOnTargetSide(uint32,uint256,bool,uint256)": {
        "details": "Intended for use primarily by Staker.sol",
        "params": {
          "amountSyntheticToken_redeemOnOriginSide": "Amount of synth token in wei.",
          "isShiftFromLong": "Whether the token shift is from long to short (true), or short to long (false).",
          "marketIndex": "An uint32 which uniquely identifies a market.",
          "priceSnapshotIndex": "Index which identifies which synth prices to use."
        },
        "returns": {
          "amountSyntheticTokensToMintOnTargetSide": "The amount in wei of tokens for the other side that the shift was worth."
        }
      },
      "getUsersConfirmedButNotSettledSynthBalance(address,uint32,bool)": {
        "details": "Used in SyntheticToken.sol balanceOf to allow for automatic reflection of next price actions.",
        "params": {
          "isLong": "Whether it is for the long synthetic asset or the short synthetic asset.",
          "marketIndex": "An uint32 which uniquely identifies a market.",
          "user": "The address of the user for whom to execute the function for."
        },
        "returns": {
          "confirmedButNotSettledBalance": "The amount in wei of tokens that the user is owed."
        }
      },
      "initialize(address,address,address)": {
        "details": "Calls OpenZeppelin's initializer modifier.",
        "params": {
          "_admin": "Address of the admin role.",
          "_staker": "Address of the contract which handles synthetic asset stakes.",
          "_tokenFactory": "Address of the contract which creates synthetic asset tokens."
        }
      },
      "initializeMarket(uint32,uint256,uint256,uint256,uint256,uint256,int256,uint256)": {
        "details": "Seperated from createNewSyntheticMarket due to gas considerations.",
        "params": {
          "balanceIncentiveCurve_equilibriumOffset": "An offset to account for naturally imbalanced markets when Float token issuance should differ for market sides. See Staker.sol",
          "balanceIncentiveCurve_exponent": "Sets the degree to which Float token issuance differs for market sides in unbalanced markets. See Staker.sol",
          "initialMarketSeedForEachMarketSide": "Amount of payment token that will be deposited in each market side to seed the market.",
          "kInitialMultiplier": "Linearly decreasing multiplier for Float token issuance for the market when staking synths.",
          "kPeriod": "Time which kInitialMultiplier will last",
          "marketIndex": "An int32 which uniquely identifies the market.",
          "unstakeFee_e18": "Base 1e18 percentage fee levied when unstaking for the market."
        }
      },
      "mintLongNextPrice(uint32,uint256)": {
        "params": {
          "amount": "Amount of payment tokens in that token's lowest denominationfor which to mint synthetic assets at next price.",
          "marketIndex": "An uint32 which uniquely identifies a market."
        }
      },
      "mintShortNextPrice(uint32,uint256)": {
        "params": {
          "amount": "Amount of payment tokens in that token's lowest denominationfor which to mint synthetic assets at next price.",
          "marketIndex": "An uint32 which uniquely identifies a market."
        }
      },
      "redeemLongNextPrice(uint32,uint256)": {
        "params": {
          "marketIndex": "An uint32 which uniquely identifies a market.",
          "tokens_redeem": "Amount in wei of synth tokens to redeem at the next oracle price."
        }
      },
      "redeemShortNextPrice(uint32,uint256)": {
        "params": {
          "marketIndex": "An uint32 which uniquely identifies a market.",
          "tokens_redeem": "Amount in wei of synth tokens to redeem at the next oracle price."
        }
      },
      "shiftPositionFromLongNextPrice(uint32,uint256)": {
        "params": {
          "amountSyntheticTokensToShift": "Amount in wei of synthetic tokens to shift from long to short the next oracle price update.",
          "marketIndex": "An uint32 which uniquely identifies a market."
        }
      },
      "shiftPositionFromShortNextPrice(uint32,uint256)": {
        "params": {
          "amountSyntheticTokensToShift": "Amount in wei of synthetic tokens to shift from the short to long at the next oracle price update.",
          "marketIndex": "An uint32 which uniquely identifies a market."
        }
      },
      "shiftPositionNextPrice(uint32,uint256,bool)": {
        "details": "Called by external functions to shift either way. Intended for primary use by Staker.sol",
        "params": {
          "amountSyntheticTokensToShift": "Amount in wei of synthetic tokens to shift from the one side to the other at the next oracle price update.",
          "isShiftFromLong": "Whether the token shift is from long to short (true), or short to long (false).",
          "marketIndex": "An uint32 which uniquely identifies a market."
        }
      },
      "updateMarketOracle(uint32,address)": {
        "details": "Can only be called by the current admin.",
        "params": {
          "_newOracleManager": "Address of the replacement oracle manager.",
          "marketIndex": "An uint32 which uniquely identifies a market."
        }
      },
      "updateSystemState(uint32)": {
        "params": {
          "marketIndex": "An uint32 which uniquely identifies a market."
        }
      },
      "updateSystemStateMulti(uint32[])": {
        "params": {
          "marketIndexes": "An array of int32s which uniquely identify markets."
        }
      },
      "upgradeTo(address)": {
        "details": "Upgrade the implementation of the proxy to `newImplementation`. Calls {_authorizeUpgrade}. Emits an {Upgraded} event."
      },
      "upgradeToAndCall(address,bytes)": {
        "details": "Upgrade the implementation of the proxy to `newImplementation`, and subsequently execute the function call encoded in `data`. Calls {_authorizeUpgrade}. Emits an {Upgraded} event."
      }
    },
    "stateVariables": {
      "PERMANENT_INITIAL_LIQUIDITY_HOLDER": {
        "details": "f10a7 spells float in hex - for fun - important part is that the private key for this address in not known."
      },
      "__constantsGap": {
        "details": "an empty allocation of storage for use in future upgrades - inspiration from OZ:      https://github.com/OpenZeppelin/openzeppelin-contracts-upgradeable/blob/10f0f1a95b1b0fd5520351886bae7a03490f1056/contracts/token/ERC20/ERC20Upgradeable.sol#L361"
      }
    },
    "title": "Core logic of Float Protocal markets",
    "version": 1
  },
  "userdoc": {
    "kind": "user",
    "methods": {
      "PERMANENT_INITIAL_LIQUIDITY_HOLDER()": {
        "notice": "this is the address that permanently locked initial liquidity for markets is held by. These tokens will never move so market can never have zero liquidity on a side."
      },
      "changeAdmin(address)": {
        "notice": "Changes the admin address for this contract."
      },
      "changeMarketTreasurySplitGradient(uint32,uint256)": {
        "notice": "changes the gradient of the line for determining the yield split between market and treasury."
      },
      "createNewSyntheticMarket(string,string,address,address,address)": {
        "notice": "Creates an entirely new long/short market tracking an underlying oracle price.  Make sure the synthetic names/symbols are unique."
      },
      "createNewSyntheticMarketUpgradeable(string,string,address,address,address,address,address)": {
        "notice": "Creates an entirely new long/short market tracking an underlying oracle price.  Uses already created synthetic tokens."
      },
      "executeOutstandingNextPriceSettlementsUser(address,uint32)": {
        "notice": "After markets have been batched updated on a new oracle price, transfers any owed tokens to a user from their next price actions for that update to that user."
      },
      "executeOutstandingNextPriceSettlementsUserMulti(address,uint32[])": {
        "notice": "Executes outstanding next price settlements for a user for multiple markets."
      },
      "getAmountSyntheticTokenToMintOnTargetSide(uint32,uint256,bool,uint256)": {
        "notice": "Given an executed next price shift from tokens on one market side to the other, determines how many other side tokens the shift was worth."
      },
      "getUsersConfirmedButNotSettledSynthBalance(address,uint32,bool)": {
        "notice": "The amount of a synth token a user is owed following a batch execution. 4 possible states for next price actions: - \"Pending\" - means the next price update hasn't happened or been enacted on by the updateSystemState function. - \"Confirmed\" - means the next price has been updated by the updateSystemState function. There is still -               outstanding (lazy) computation that needs to be executed per user in the batch. - \"Settled\" - there is no more computation left for the user. - \"Non-existent\" - user has no next price actions. This function returns a calculated value only in the case of 'confirmed' next price actions. It should return zero for all other types of next price actions."
      },
      "initialize(address,address,address)": {
        "notice": "Initializes the contract."
      },
      "initializeMarket(uint32,uint256,uint256,uint256,uint256,uint256,int256,uint256)": {
        "notice": "Sets a market as active once it has already been setup by createNewSyntheticMarket."
      },
      "mintLongNextPrice(uint32,uint256)": {
        "notice": "Allows users to mint long synthetic assets for a market. To prevent front-running these mints are executed on the next price update from the oracle."
      },
      "mintShortNextPrice(uint32,uint256)": {
        "notice": "Allows users to mint short synthetic assets for a market. To prevent front-running these mints are executed on the next price update from the oracle."
      },
      "redeemLongNextPrice(uint32,uint256)": {
        "notice": "Allows users to redeem long synthetic assets for a market. To prevent front-running these redeems are executed on the next price update from the oracle."
      },
      "redeemShortNextPrice(uint32,uint256)": {
        "notice": "Allows users to redeem short synthetic assets for a market. To prevent front-running these redeems are executed on the next price update from the oracle."
      },
      "shiftPositionFromLongNextPrice(uint32,uint256)": {
        "notice": "Allows users to shift their position from long to short in a single transaction. To prevent front-running these shifts are executed on the next price update from the oracle."
      },
      "shiftPositionFromShortNextPrice(uint32,uint256)": {
        "notice": "Allows users to shift their position from short to long in a single transaction. To prevent front-running these shifts are executed on the next price update from the oracle."
      },
      "shiftPositionNextPrice(uint32,uint256,bool)": {
        "notice": "Allows users to shift their position from one side of the market to the other in a single transaction. To prevent front-running these shifts are executed on the next price update from the oracle."
      },
      "syntheticToken_priceSnapshot(uint32,bool,uint256)": {
        "notice": "synthetic token prices of a given market of a (long/short) at every previous price update"
      },
      "updateMarketOracle(uint32,address)": {
        "notice": "Update oracle for a market"
      },
      "updateSystemState(uint32)": {
        "notice": "Updates the state of a market to account for the latest oracle price update."
      },
      "updateSystemStateMulti(uint32[])": {
        "notice": "Updates the state of multiples markets to account for their latest oracle price updates."
      }
    },
    "notice": "visit https://float.capital for more info",
    "version": 1
  }
}