{
  "contractName": "Staker",
  "abi": [
    {
      "anonymous": false,
      "inputs": [
        {
          "indexed": false,
          "internalType": "uint32",
          "name": "marketIndex",
          "type": "uint32"
        },
        {
          "indexed": false,
          "internalType": "uint256",
          "name": "accumulativeFloatIssuanceSnapshotIndex",
          "type": "uint256"
        },
        {
          "indexed": false,
          "internalType": "uint256",
          "name": "accumulativeLong",
          "type": "uint256"
        },
        {
          "indexed": false,
          "internalType": "uint256",
          "name": "accumulativeShort",
          "type": "uint256"
        }
      ],
      "name": "AccumulativeIssuancePerStakedSynthSnapshotCreated",
      "type": "event"
    },
    {
      "anonymous": false,
      "inputs": [
        {
          "indexed": false,
          "internalType": "address",
          "name": "previousAdmin",
          "type": "address"
        },
        {
          "indexed": false,
          "internalType": "address",
          "name": "newAdmin",
          "type": "address"
        }
      ],
      "name": "AdminChanged",
      "type": "event"
    },
    {
      "anonymous": false,
      "inputs": [
        {
          "indexed": false,
          "internalType": "uint32",
          "name": "marketIndex",
          "type": "uint32"
        },
        {
          "indexed": false,
          "internalType": "int256",
          "name": "balanceIncentiveEquilibriumOffset",
          "type": "int256"
        }
      ],
      "name": "BalanceIncentiveEquilibriumOffsetUpdated",
      "type": "event"
    },
    {
      "anonymous": false,
      "inputs": [
        {
          "indexed": false,
          "internalType": "uint32",
          "name": "marketIndex",
          "type": "uint32"
        },
        {
          "indexed": false,
          "internalType": "uint256",
          "name": "balanceIncentiveExponent",
          "type": "uint256"
        }
      ],
      "name": "BalanceIncentiveExponentUpdated",
      "type": "event"
    },
    {
      "anonymous": false,
      "inputs": [
        {
          "indexed": true,
          "internalType": "address",
          "name": "beacon",
          "type": "address"
        }
      ],
      "name": "BeaconUpgraded",
      "type": "event"
    },
    {
      "anonymous": false,
      "inputs": [
        {
          "indexed": false,
          "internalType": "address",
          "name": "newAdmin",
          "type": "address"
        }
      ],
      "name": "ChangeAdmin",
      "type": "event"
    },
    {
      "anonymous": false,
      "inputs": [
        {
          "indexed": false,
          "internalType": "address",
          "name": "user",
          "type": "address"
        },
        {
          "indexed": false,
          "internalType": "uint32",
          "name": "marketIndex",
          "type": "uint32"
        },
        {
          "indexed": false,
          "internalType": "uint256",
          "name": "amountFloatMinted",
          "type": "uint256"
        }
      ],
      "name": "FloatMinted",
      "type": "event"
    },
    {
      "anonymous": false,
      "inputs": [
        {
          "indexed": false,
          "internalType": "uint256",
          "name": "floatPercentage",
          "type": "uint256"
        }
      ],
      "name": "FloatPercentageUpdated",
      "type": "event"
    },
    {
      "anonymous": false,
      "inputs": [
        {
          "indexed": false,
          "internalType": "uint32",
          "name": "marketIndex",
          "type": "uint32"
        },
        {
          "indexed": false,
          "internalType": "uint256",
          "name": "exitFee_e18",
          "type": "uint256"
        },
        {
          "indexed": false,
          "internalType": "uint256",
          "name": "period",
          "type": "uint256"
        },
        {
          "indexed": false,
          "internalType": "uint256",
          "name": "multiplier",
          "type": "uint256"
        },
        {
          "indexed": false,
          "internalType": "uint256",
          "name": "balanceIncentiveExponent",
          "type": "uint256"
        },
        {
          "indexed": false,
          "internalType": "int256",
          "name": "balanceIncentiveEquilibriumOffset",
          "type": "int256"
        }
      ],
      "name": "MarketAddedToStaker",
      "type": "event"
    },
    {
      "anonymous": false,
      "inputs": [
        {
          "indexed": false,
          "internalType": "uint32",
          "name": "marketIndex",
          "type": "uint32"
        },
        {
          "indexed": false,
          "internalType": "uint256",
          "name": "period",
          "type": "uint256"
        },
        {
          "indexed": false,
          "internalType": "uint256",
          "name": "multiplier",
          "type": "uint256"
        }
      ],
      "name": "MarketLaunchIncentiveParametersChanges",
      "type": "event"
    },
    {
      "anonymous": false,
      "inputs": [
        {
          "indexed": false,
          "internalType": "address",
          "name": "user",
          "type": "address"
        },
        {
          "indexed": false,
          "internalType": "address",
          "name": "token",
          "type": "address"
        },
        {
          "indexed": false,
          "internalType": "uint256",
          "name": "amount",
          "type": "uint256"
        },
        {
          "indexed": false,
          "internalType": "uint256",
          "name": "lastMintIndex",
          "type": "uint256"
        }
      ],
      "name": "StakeAdded",
      "type": "event"
    },
    {
      "anonymous": false,
      "inputs": [
        {
          "indexed": false,
          "internalType": "uint32",
          "name": "marketIndex",
          "type": "uint32"
        },
        {
          "indexed": false,
          "internalType": "uint256",
          "name": "stakeWithdralFee",
          "type": "uint256"
        }
      ],
      "name": "StakeWithdrawalFeeUpdated",
      "type": "event"
    },
    {
      "anonymous": false,
      "inputs": [
        {
          "indexed": false,
          "internalType": "address",
          "name": "user",
          "type": "address"
        },
        {
          "indexed": false,
          "internalType": "address",
          "name": "token",
          "type": "address"
        },
        {
          "indexed": false,
          "internalType": "uint256",
          "name": "amount",
          "type": "uint256"
        }
      ],
      "name": "StakeWithdrawn",
      "type": "event"
    },
    {
      "anonymous": false,
      "inputs": [
        {
          "indexed": false,
          "internalType": "address",
          "name": "admin",
          "type": "address"
        },
        {
          "indexed": false,
          "internalType": "address",
          "name": "floatTreasury",
          "type": "address"
        },
        {
          "indexed": false,
          "internalType": "address",
          "name": "floatCapital",
          "type": "address"
        },
        {
          "indexed": false,
          "internalType": "address",
          "name": "floatToken",
          "type": "address"
        },
        {
          "indexed": false,
          "internalType": "uint256",
          "name": "floatPercentage",
          "type": "uint256"
        }
      ],
      "name": "StakerV1",
      "type": "event"
    },
    {
      "anonymous": false,
      "inputs": [
        {
          "indexed": true,
          "internalType": "address",
          "name": "implementation",
          "type": "address"
        }
      ],
      "name": "Upgraded",
      "type": "event"
    },
    {
      "inputs": [],
      "name": "FLOAT_ISSUANCE_FIXED_DECIMAL",
      "outputs": [
        {
          "internalType": "uint256",
          "name": "",
          "type": "uint256"
        }
      ],
      "stateMutability": "view",
      "type": "function",
      "constant": true
    },
    {
      "inputs": [
        {
          "internalType": "uint32",
          "name": "",
          "type": "uint32"
        },
        {
          "internalType": "uint256",
          "name": "",
          "type": "uint256"
        }
      ],
      "name": "accumulativeFloatPerSyntheticTokenSnapshots",
      "outputs": [
        {
          "internalType": "uint256",
          "name": "timestamp",
          "type": "uint256"
        },
        {
          "internalType": "uint256",
          "name": "accumulativeFloatPerSyntheticToken_long",
          "type": "uint256"
        },
        {
          "internalType": "uint256",
          "name": "accumulativeFloatPerSyntheticToken_short",
          "type": "uint256"
        }
      ],
      "stateMutability": "view",
      "type": "function",
      "constant": true
    },
    {
      "inputs": [],
      "name": "admin",
      "outputs": [
        {
          "internalType": "address",
          "name": "",
          "type": "address"
        }
      ],
      "stateMutability": "view",
      "type": "function",
      "constant": true
    },
    {
      "inputs": [
        {
          "internalType": "uint32",
          "name": "",
          "type": "uint32"
        }
      ],
      "name": "balanceIncentiveCurve_equilibriumOffset",
      "outputs": [
        {
          "internalType": "int256",
          "name": "",
          "type": "int256"
        }
      ],
      "stateMutability": "view",
      "type": "function",
      "constant": true
    },
    {
      "inputs": [
        {
          "internalType": "uint32",
          "name": "",
          "type": "uint32"
        }
      ],
      "name": "balanceIncentiveCurve_exponent",
      "outputs": [
        {
          "internalType": "uint256",
          "name": "",
          "type": "uint256"
        }
      ],
      "stateMutability": "view",
      "type": "function",
      "constant": true
    },
    {
      "inputs": [],
      "name": "floatCapital",
      "outputs": [
        {
          "internalType": "address",
          "name": "",
          "type": "address"
        }
      ],
      "stateMutability": "view",
      "type": "function",
      "constant": true
    },
    {
      "inputs": [],
      "name": "floatPercentage",
      "outputs": [
        {
          "internalType": "uint256",
          "name": "",
          "type": "uint256"
        }
      ],
      "stateMutability": "view",
      "type": "function",
      "constant": true
    },
    {
      "inputs": [],
      "name": "floatToken",
      "outputs": [
        {
          "internalType": "address",
          "name": "",
          "type": "address"
        }
      ],
      "stateMutability": "view",
      "type": "function",
      "constant": true
    },
    {
      "inputs": [],
      "name": "floatTreasury",
      "outputs": [
        {
          "internalType": "address",
          "name": "",
          "type": "address"
        }
      ],
      "stateMutability": "view",
      "type": "function",
      "constant": true
    },
    {
      "inputs": [
        {
          "internalType": "uint32",
          "name": "",
          "type": "uint32"
        }
      ],
      "name": "latestRewardIndex",
      "outputs": [
        {
          "internalType": "uint256",
          "name": "",
          "type": "uint256"
        }
      ],
      "stateMutability": "view",
      "type": "function",
      "constant": true
    },
    {
      "inputs": [],
      "name": "longShort",
      "outputs": [
        {
          "internalType": "address",
          "name": "",
          "type": "address"
        }
      ],
      "stateMutability": "view",
      "type": "function",
      "constant": true
    },
    {
      "inputs": [
        {
          "internalType": "address",
          "name": "",
          "type": "address"
        }
      ],
      "name": "marketIndexOfToken",
      "outputs": [
        {
          "internalType": "uint32",
          "name": "",
          "type": "uint32"
        }
      ],
      "stateMutability": "view",
      "type": "function",
      "constant": true
    },
    {
      "inputs": [
        {
          "internalType": "uint32",
          "name": "",
          "type": "uint32"
        }
      ],
      "name": "marketLaunchIncentive_multipliers",
      "outputs": [
        {
          "internalType": "uint256",
          "name": "",
          "type": "uint256"
        }
      ],
      "stateMutability": "view",
      "type": "function",
      "constant": true
    },
    {
      "inputs": [
        {
          "internalType": "uint32",
          "name": "",
          "type": "uint32"
        }
      ],
      "name": "marketLaunchIncentive_period",
      "outputs": [
        {
          "internalType": "uint256",
          "name": "",
          "type": "uint256"
        }
      ],
      "stateMutability": "view",
      "type": "function",
      "constant": true
    },
    {
      "inputs": [
        {
          "internalType": "uint32",
          "name": "",
          "type": "uint32"
        }
      ],
      "name": "marketUnstakeFee_e18",
      "outputs": [
        {
          "internalType": "uint256",
          "name": "",
          "type": "uint256"
        }
      ],
      "stateMutability": "view",
      "type": "function",
      "constant": true
    },
    {
      "inputs": [],
      "name": "safeExponentBitShifting",
      "outputs": [
        {
          "internalType": "uint256",
          "name": "",
          "type": "uint256"
        }
      ],
      "stateMutability": "view",
      "type": "function",
      "constant": true
    },
    {
      "inputs": [
        {
          "internalType": "uint32",
          "name": "",
          "type": "uint32"
        },
        {
          "internalType": "bool",
          "name": "",
          "type": "bool"
        }
      ],
      "name": "syntheticTokens",
      "outputs": [
        {
          "internalType": "address",
          "name": "",
          "type": "address"
        }
      ],
      "stateMutability": "view",
      "type": "function",
      "constant": true
    },
    {
      "inputs": [
        {
          "internalType": "address",
          "name": "newImplementation",
          "type": "address"
        }
      ],
      "name": "upgradeTo",
      "outputs": [],
      "stateMutability": "nonpayable",
      "type": "function"
    },
    {
      "inputs": [
        {
          "internalType": "address",
          "name": "newImplementation",
          "type": "address"
        },
        {
          "internalType": "bytes",
          "name": "data",
          "type": "bytes"
        }
      ],
      "name": "upgradeToAndCall",
      "outputs": [],
      "stateMutability": "payable",
      "type": "function",
      "payable": true
    },
    {
      "inputs": [
        {
          "internalType": "address",
          "name": "",
          "type": "address"
        },
        {
          "internalType": "address",
          "name": "",
          "type": "address"
        }
      ],
      "name": "userAmountStaked",
      "outputs": [
        {
          "internalType": "uint256",
          "name": "",
          "type": "uint256"
        }
      ],
      "stateMutability": "view",
      "type": "function",
      "constant": true
    },
    {
      "inputs": [
        {
          "internalType": "uint32",
          "name": "",
          "type": "uint32"
        },
        {
          "internalType": "address",
          "name": "",
          "type": "address"
        }
      ],
      "name": "userIndexOfLastClaimedReward",
      "outputs": [
        {
          "internalType": "uint256",
          "name": "",
          "type": "uint256"
        }
      ],
      "stateMutability": "view",
      "type": "function",
      "constant": true
    },
    {
      "inputs": [
        {
          "internalType": "uint32",
          "name": "",
          "type": "uint32"
        },
        {
          "internalType": "bool",
          "name": "",
          "type": "bool"
        },
        {
          "internalType": "address",
          "name": "",
          "type": "address"
        }
      ],
      "name": "userNextPrice_amountStakedSyntheticToken_toShiftAwayFrom",
      "outputs": [
        {
          "internalType": "uint256",
          "name": "",
          "type": "uint256"
        }
      ],
      "stateMutability": "view",
      "type": "function",
      "constant": true
    },
    {
      "inputs": [
        {
          "internalType": "uint32",
          "name": "",
          "type": "uint32"
        },
        {
          "internalType": "address",
          "name": "",
          "type": "address"
        }
      ],
      "name": "userNextPrice_stakedSyntheticTokenShiftIndex",
      "outputs": [
        {
          "internalType": "uint256",
          "name": "",
          "type": "uint256"
        }
      ],
      "stateMutability": "view",
      "type": "function",
      "constant": true
    },
    {
      "inputs": [
        {
          "internalType": "address",
          "name": "_admin",
          "type": "address"
        },
        {
          "internalType": "address",
          "name": "_longShort",
          "type": "address"
        },
        {
          "internalType": "address",
          "name": "_floatToken",
          "type": "address"
        },
        {
          "internalType": "address",
          "name": "_floatTreasury",
          "type": "address"
        },
        {
          "internalType": "address",
          "name": "_floatCapital",
          "type": "address"
        },
        {
          "internalType": "uint256",
          "name": "_floatPercentage",
          "type": "uint256"
        }
      ],
      "name": "initialize",
      "outputs": [],
      "stateMutability": "nonpayable",
      "type": "function"
    },
    {
      "inputs": [
        {
          "internalType": "address",
          "name": "_admin",
          "type": "address"
        }
      ],
      "name": "changeAdmin",
      "outputs": [],
      "stateMutability": "nonpayable",
      "type": "function"
    },
    {
      "inputs": [
        {
          "internalType": "uint256",
          "name": "newFloatPercentage",
          "type": "uint256"
        }
      ],
      "name": "changeFloatPercentage",
      "outputs": [],
      "stateMutability": "nonpayable",
      "type": "function"
    },
    {
      "inputs": [
        {
          "internalType": "uint32",
          "name": "marketIndex",
          "type": "uint32"
        },
        {
          "internalType": "uint256",
          "name": "newMarketUnstakeFee_e18",
          "type": "uint256"
        }
      ],
      "name": "changeUnstakeFee",
      "outputs": [],
      "stateMutability": "nonpayable",
      "type": "function"
    },
    {
      "inputs": [
        {
          "internalType": "uint32",
          "name": "marketIndex",
          "type": "uint32"
        },
        {
          "internalType": "uint256",
          "name": "_balanceIncentiveCurve_exponent",
          "type": "uint256"
        }
      ],
      "name": "changeBalanceIncentiveExponent",
      "outputs": [],
      "stateMutability": "nonpayable",
      "type": "function"
    },
    {
      "inputs": [
        {
          "internalType": "uint32",
          "name": "marketIndex",
          "type": "uint32"
        },
        {
          "internalType": "int256",
          "name": "_balanceIncentiveCurve_equilibriumOffset",
          "type": "int256"
        }
      ],
      "name": "changeBalanceIncentiveEquilibriumOffset",
      "outputs": [],
      "stateMutability": "nonpayable",
      "type": "function"
    },
    {
      "inputs": [
        {
          "internalType": "uint32",
          "name": "marketIndex",
          "type": "uint32"
        },
        {
          "internalType": "address",
          "name": "longToken",
          "type": "address"
        },
        {
          "internalType": "address",
          "name": "shortToken",
          "type": "address"
        },
        {
          "internalType": "uint256",
          "name": "kInitialMultiplier",
          "type": "uint256"
        },
        {
          "internalType": "uint256",
          "name": "kPeriod",
          "type": "uint256"
        },
        {
          "internalType": "uint256",
          "name": "unstakeFee_e18",
          "type": "uint256"
        },
        {
          "internalType": "uint256",
          "name": "_balanceIncentiveCurve_exponent",
          "type": "uint256"
        },
        {
          "internalType": "int256",
          "name": "_balanceIncentiveCurve_equilibriumOffset",
          "type": "int256"
        }
      ],
      "name": "addNewStakingFund",
      "outputs": [],
      "stateMutability": "nonpayable",
      "type": "function"
    },
    {
      "inputs": [
        {
          "internalType": "uint32",
          "name": "marketIndex",
          "type": "uint32"
        },
        {
          "internalType": "uint256",
          "name": "marketUpdateIndex",
          "type": "uint256"
        },
        {
          "internalType": "uint256",
          "name": "longPrice",
          "type": "uint256"
        },
        {
          "internalType": "uint256",
          "name": "shortPrice",
          "type": "uint256"
        },
        {
          "internalType": "uint256",
          "name": "longValue",
          "type": "uint256"
        },
        {
          "internalType": "uint256",
          "name": "shortValue",
          "type": "uint256"
        }
      ],
      "name": "pushUpdatedMarketPricesToUpdateFloatIssuanceCalculations",
      "outputs": [],
      "stateMutability": "nonpayable",
      "type": "function"
    },
    {
      "inputs": [
        {
          "internalType": "uint32[]",
          "name": "marketIndexes",
          "type": "uint32[]"
        }
      ],
      "name": "claimFloatCustom",
      "outputs": [],
      "stateMutability": "nonpayable",
      "type": "function"
    },
    {
      "inputs": [
        {
          "internalType": "uint32[]",
          "name": "marketIndexes",
          "type": "uint32[]"
        },
        {
          "internalType": "address",
          "name": "user",
          "type": "address"
        }
      ],
      "name": "claimFloatCustomFor",
      "outputs": [],
      "stateMutability": "nonpayable",
      "type": "function"
    },
    {
      "inputs": [
        {
          "internalType": "address",
          "name": "from",
          "type": "address"
        },
        {
          "internalType": "uint256",
          "name": "amount",
          "type": "uint256"
        }
      ],
      "name": "stakeFromUser",
      "outputs": [],
      "stateMutability": "nonpayable",
      "type": "function"
    },
    {
      "inputs": [
        {
          "internalType": "uint256",
          "name": "amountSyntheticTokensToShift",
          "type": "uint256"
        },
        {
          "internalType": "uint32",
          "name": "marketIndex",
          "type": "uint32"
        },
        {
          "internalType": "bool",
          "name": "isShiftFromLong",
          "type": "bool"
        }
      ],
      "name": "shiftTokens",
      "outputs": [],
      "stateMutability": "nonpayable",
      "type": "function"
    },
    {
      "inputs": [
        {
          "internalType": "uint32",
          "name": "marketIndex",
          "type": "uint32"
        },
        {
          "internalType": "bool",
          "name": "isWithdrawFromLong",
          "type": "bool"
        },
        {
          "internalType": "uint256",
          "name": "amount",
          "type": "uint256"
        }
      ],
      "name": "withdraw",
      "outputs": [],
      "stateMutability": "nonpayable",
      "type": "function"
    },
    {
      "inputs": [
        {
          "internalType": "uint32",
          "name": "marketIndex",
          "type": "uint32"
        },
        {
          "internalType": "bool",
          "name": "isWithdrawFromLong",
          "type": "bool"
        }
      ],
      "name": "withdrawAll",
      "outputs": [],
      "stateMutability": "nonpayable",
      "type": "function"
    }
  ],
  "bytecode": "0x608060405234801561001057600080fd5b50613275806100206000396000f3fe60806040526004361061021a5760003560e01c8063b054c4a111610123578063e68f3dbe116100ab578063f2c0e6b71161006f578063f2c0e6b714610755578063f344acc91461076a578063f851a4401461078a578063f9fe734e146107aa578063fdd3c2fd146107d75761021a565b8063e68f3dbe146106a8578063e955a348146106c8578063eae5a8d9146106e8578063edb010d714610708578063ef9c3052146107285761021a565b8063bda69fd8116100f2578063bda69fd8146105d6578063c16199e3146105f6578063c17f8ce914610616578063dc86fe501461064e578063e39ac0441461067b5761021a565b8063b054c4a114610535578063b0956b5f14610576578063b80dd32914610596578063ba89f7b8146105b65761021a565b80635ac76ce1116101a65780638f283970116101755780638f283970146104775780639441752f1461049757806395b6ef0c146104d55780639e59fd0f146104f5578063a538415c146105155761021a565b80635ac76ce1146103cc5780636a5304df14610404578063738f4b8e1461043157806386cbde1f146104515761021a565b8063320d621d116101ed578063320d621d146103015780633659cfe6146103215780633ebff44f146103415780634f1ef286146103a35780635892457d146103b65761021a565b80630ca5a0521461021f57806313e8868a1461024157806315f2081d1461028157806329949872146102c9575b600080fd5b34801561022b57600080fd5b5061023f61023a366004612dc0565b61080f565b005b34801561024d57600080fd5b5061026e61025c366004612c6c565b606d6020526000908152604090205481565b6040519081526020015b60405180910390f35b34801561028d57600080fd5b506102b461029c3660046129b1565b60716020526000908152604090205463ffffffff1681565b60405163ffffffff9091168152602001610278565b3480156102d557600080fd5b506069546102e9906001600160a01b031681565b6040516001600160a01b039091168152602001610278565b34801561030d57600080fd5b5061023f61031c366004612dc0565b610865565b34801561032d57600080fd5b5061023f61033c3660046129b1565b6108b3565b34801561034d57600080fd5b5061038861035c366004612dc0565b607360209081526000928352604080842090915290825290208054600182015460029092015490919083565b60408051938452602084019290925290820152606001610278565b61023f6103b1366004612a69565b6108da565b3480156103c257600080fd5b5061026e60685481565b3480156103d857600080fd5b5061026e6103e7366004612c86565b607460209081526000928352604080842090915290825290205481565b34801561041057600080fd5b5061026e61041f366004612c6c565b606b6020526000908152604090205481565b34801561043d57600080fd5b5061023f61044c366004612b4f565b6108f3565b34801561045d57600080fd5b5061026e710b7abc627050305adf14a3d9e4000000000081565b34801561048357600080fd5b5061023f6104923660046129b1565b610962565b3480156104a357600080fd5b5061026e6104b2366004612d47565b607760209081526000938452604080852082529284528284209052825290205481565b3480156104e157600080fd5b5061023f6104f03660046129fd565b6109bf565b34801561050157600080fd5b5061023f610510366004612bfd565b610b36565b34801561052157600080fd5b5061023f610530366004612d11565b610b77565b34801561054157600080fd5b506102e9610550366004612d11565b60706020908152600092835260408084209091529082529020546001600160a01b031681565b34801561058257600080fd5b5061023f610591366004612ca1565b610c6b565b3480156105a257600080fd5b5061023f6105b1366004612dc0565b610e6c565b3480156105c257600080fd5b506066546102e9906001600160a01b031681565b3480156105e257600080fd5b5061023f6105f1366004612ddb565b610eba565b34801561060257600080fd5b506067546102e9906001600160a01b031681565b34801561062257600080fd5b5061026e6106313660046129cb565b607560209081526000928352604080842090915290825290205481565b34801561065a57600080fd5b5061026e610669366004612c6c565b606f6020526000908152604090205481565b34801561068757600080fd5b5061026e610696366004612c6c565b60726020526000908152604090205481565b3480156106b457600080fd5b5061023f6106c3366004612b26565b610f71565b3480156106d457600080fd5b5061023f6106e3366004612d82565b6110f8565b3480156106f457600080fd5b50606a546102e9906001600160a01b031681565b34801561071457600080fd5b5061023f610723366004612c2d565b611257565b34801561073457600080fd5b5061026e610743366004612c6c565b606c6020526000908152604090205481565b34801561076157600080fd5b5061026e603481565b34801561077657600080fd5b5061023f610785366004612b8f565b61140f565b34801561079657600080fd5b506065546102e9906001600160a01b031681565b3480156107b657600080fd5b5061026e6107c5366004612c6c565b606e6020526000908152604090205481565b3480156107e357600080fd5b5061026e6107f2366004612c86565b607660209081526000928352604080842090915290825290205481565b610817611483565b61082182826114cb565b6040805163ffffffff84168152602081018390527feb76801ec75076256b8590fd7c621c2541531e6b9ac568389fa5cdf72e66484491015b60405180910390a15050565b61086d611483565b61087782826114f8565b6040805163ffffffff84168152602081018390527f0430c32559bfcf3b024f216d4e0db41b7b521dcffe63ad1fc25826cf89fc1ced9101610859565b6108bc8161159a565b6108d7816040518060200160405280600081525060006115a2565b50565b6108e38261159a565b6108ef828260016115a2565b5050565b606954604051636c8d2b9760e01b81526001600160a01b0390911690636c8d2b97906109259085908590600401612e40565b600060405180830381600087803b15801561093f57600080fd5b505af1158015610953573d6000803e3d6000fd5b505050506108ef828233611723565b61096a611483565b606580546001600160a01b0319166001600160a01b0383169081179091556040519081527f927cc064d7b7fa546fa7706bc01845d27d06f15af3ae90a672cc44735928e961906020015b60405180910390a150565b600054610100900460ff16806109d8575060005460ff16155b610a405760405162461bcd60e51b815260206004820152602e60248201527f496e697469616c697a61626c653a20636f6e747261637420697320616c72656160448201526d191e481a5b9a5d1a585b1a5e995960921b60648201526084015b60405180910390fd5b600054610100900460ff16158015610a62576000805461ffff19166101011790555b606580546001600160a01b03199081166001600160a01b038a811691909117909255606680548216868416179055606780548216878416179055606980548216898416179055606a8054909116918716919091179055610ac1826118e8565b604080516001600160a01b038981168252868116602083015285811682840152871660608201526080810184905290517faf92ca815edd9a90dc4aa1dfc722fb1624d5b5f914b25ae3cf979ce6600f0a969181900360a00190a18015610b2d576000805461ff00191690555b50505050505050565b610b3e611483565b610b47816118e8565b6040518181527f062ffcd555faf2b2c81f26010ee6db2e23106941bfed5ae979abd111975d815d906020016109b4565b6069546040516305c8146f60e01b815263ffffffff841660048201526001600160a01b03909116906305c8146f90602401600060405180830381600087803b158015610bc257600080fd5b505af1158015610bd6573d6000803e3d6000fd5b50505050610be4823361190e565b63ffffffff82166000818152607060209081526040808320851515808552908352818420546001600160a01b03168085526075845282852033808752818652848720805498885260778752858820948852938652848720908752855292909420549190925290819055909190610c648584610c5f848661314c565b6119b3565b5050505050565b610c73611b58565b6001600160a01b038088166000818152607160209081526040808320805463ffffffff8f1663ffffffff199182168117909255958c16808552828520805490971682179096558084526073835281842084805283528184204290558352607082528083206001845280835281842080546001600160a01b03199081169096179055838052909152902080549091169091179055610d108883611ba2565b610d1a88826114f8565b670de0b6b3a7640000851015610d8a5760405162461bcd60e51b815260206004820152602f60248201527f6d61726b65744c61756e6368496e63656e746976654d756c7469706c6965722060448201526e0daeae6e840c4ca407c7a4062ca627608b1b6064820152608401610a37565b63ffffffff88166000908152606b60209081526040808320879055606c9091529020859055610db988846114cb565b6040805163ffffffff8a16815260208101859052908101859052606081018690526080810183905260a081018290527f6bc257e0096888bfe19c27bfedca683fc71f53daaf42d4b9ff8e42ea783d67cf9060c00160405180910390a16040805163ffffffff8a168152600060208201819052818301819052606082015290517f65663e89e16ccfe470dd659bacdf6fddae8185e108d00bc980d34be7e86466d09181900360800190a15050505050505050565b610e74611483565b610e7e8282611ba2565b6040805163ffffffff84168152602081018390527f45029298b28ebd606098e088e84698aad69cbe7d56cec6064a87ab6d85551e119101610859565b610ec2611b58565b600080610edd88610ed460018a61314c565b88888888611c2c565b63ffffffff8a1660008181526073602090815260408083208d84528252808320600181018790556002810186905542815584845260728352928190208d905580519384529083018c90528201849052606082018390529294509092507f65663e89e16ccfe470dd659bacdf6fddae8185e108d00bc980d34be7e86466d09060800160405180910390a1505050505050505050565b33610f7b81611cd3565b33600090815260716020526040908190205460695491516305c8146f60e01b815263ffffffff90911660048201819052916001600160a01b0316906305c8146f90602401600060405180830381600087803b158015610fd957600080fd5b505af1158015610fed573d6000803e3d6000fd5b5050505063ffffffff811660008181526074602090815260408083206001600160a01b03891684528252808320549383526072909152902054811580159061103457508082105b1561104357611043838761190e565b3360009081526075602090815260408083206001600160a01b038a16845290915281208054879290611076908490612efd565b909155505063ffffffff831660009081526074602090815260408083206001600160a01b038a1680855290835292819020849055805192835233918301919091528101869052606081018290527fef7c8dfef14cbefdf829b8f066b068b677992411137321d64b3ed4538c2b36379060800160405180910390a1505050505050565b63ffffffff831660008181526070602090815260408083208615158452909152908190205460695491516305c8146f60e01b815260048101939093526001600160a01b03908116929116906305c8146f90602401600060405180830381600087803b15801561116657600080fd5b505af115801561117a573d6000803e3d6000fd5b50505050611188843361190e565b6001600160a01b0381166000908152607560209081526040808320338085529083528184205463ffffffff89168552607784528285208815158652845282852091855292529091205483810182101561121c5760405162461bcd60e51b81526020600482015260166024820152756e6f7420656e6f75676820746f20776974686472617760501b6044820152606401610a37565b6001600160a01b03831660009081526075602090815260408083203384529091529020848303905561124f8684866119b3565b505050505050565b81336112638282611d30565b63ffffffff84166000818152607060209081526040808320871515808552908352818420549484526077835281842090845282528083203384529091528120546001600160a01b03909216916112b99088612efd565b6001600160a01b038316600090815260756020908152604080832033845290915290205490915081111561132f5760405162461bcd60e51b815260206004820152601a60248201527f4e6f7420656e6f75676820746f6b656e7320746f2073686966740000000000006044820152606401610a37565b6069546040516371fd962360e01b815263ffffffff881660048201526024810189905286151560448201526001600160a01b03909116906371fd962390606401600060405180830381600087803b15801561138957600080fd5b505af115801561139d573d6000803e3d6000fd5b50505063ffffffff871660008181526077602090815260408083208a15158452825280832033845282528083208690559282526072905220546113e291506001612efd565b63ffffffff9096166000908152607660209081526040808320338452909152902095909555505050505050565b606954604051636c8d2b9760e01b81526001600160a01b0390911690636c8d2b97906114419086908690600401612e40565b600060405180830381600087803b15801561145b57600080fd5b505af115801561146f573d6000803e3d6000fd5b5050505061147e838383611723565b505050565b6065546001600160a01b031633146114c95760405162461bcd60e51b81526020600482015260096024820152683737ba1030b236b4b760b91b6044820152606401610a37565b565b66b1a2bc2ec500008111156114df57600080fd5b63ffffffff9091166000908152606d6020526040902055565b670c7d713b49d9ffff19811380156115175750670c7d713b49da000081125b6115815760405162461bcd60e51b815260206004820152603560248201527f62616c616e6365496e63656e7469766543757276655f657175696c69627269756044820152746d4f6666736574206f7574206f6620626f756e647360581b6064820152608401610a37565b63ffffffff9091166000908152606f6020526040902055565b6108d7611483565b60006115d57f360894a13ba1a3210667c828492db98dca3e2076cc3735a920a3ca505d382bbc546001600160a01b031690565b90506115e084611d96565b6000835111806115ed5750815b156115fe576115fc8484611e42565b505b7f4910fdfa16fed3260ed0e7147f7cc6da11a60208b5b9406d12a635614ffd9143805460ff16610c6457805460ff191660011781556040516001600160a01b038316602482015261167d90869060440160408051601f198184030181529190526020810180516001600160e01b0316631b2ce7f360e11b179052611e42565b50805460ff191681557f360894a13ba1a3210667c828492db98dca3e2076cc3735a920a3ca505d382bbc546001600160a01b0383811691161461171a5760405162461bcd60e51b815260206004820152602f60248201527f45524331393637557067726164653a207570677261646520627265616b73206660448201526e75727468657220757067726164657360881b6064820152608401610a37565b610c6485611f36565b600082815b818110156118d757600061177087878481811061175557634e487b7160e01b600052603260045260246000fd5b905060200201602081019061176a9190612c6c565b86611f76565b905080156118c4576072600088888581811061179c57634e487b7160e01b600052603260045260246000fd5b90506020020160208101906117b19190612c6c565b63ffffffff1663ffffffff16815260200190815260200160002054607460008989868181106117f057634e487b7160e01b600052603260045260246000fd5b90506020020160208101906118059190612c6c565b63ffffffff168152602080820192909252604090810160009081206001600160a01b038a16825290925290205561183c8185612efd565b93507f2f0b57f663333228518fca119813fe0f6daeb5f19d087965f56b45fecf2d52058588888581811061188057634e487b7160e01b600052603260045260246000fd5b90506020020160208101906118959190612c6c565b604080516001600160a01b03909316835263ffffffff9091166020830152810183905260600160405180910390a15b50806118cf81613193565b915050611728565b508115610c6457610c648383612342565b670de0b6b3a764000081111580156119005750600081115b61190957600080fd5b606855565b600061191a8383611f76565b9050801561147e5763ffffffff8316600090815260726020908152604080832054607483528184206001600160a01b03871685529092529091205561195f8282612342565b604080516001600160a01b038416815263ffffffff851660208201529081018290527f2f0b57f663333228518fca119813fe0f6daeb5f19d087965f56b45fecf2d52059060600160405180910390a1505050565b63ffffffff83166000908152606d6020526040812054670de0b6b3a7640000906119dd90846130ee565b6119e79190612f43565b60675460405163a9059cbb60e01b81526001600160a01b0391821660048201526024810183905291925084169063a9059cbb90604401602060405180830381600087803b158015611a3757600080fd5b505af1158015611a4b573d6000803e3d6000fd5b505050506040513d601f19601f82011682018060405250810190611a6f9190612be1565b506001600160a01b03831663a9059cbb33611a8a848661314c565b6040516001600160e01b031960e085901b1681526001600160a01b0390921660048301526024820152604401602060405180830381600087803b158015611ad057600080fd5b505af1158015611ae4573d6000803e3d6000fd5b505050506040513d601f19601f82011682018060405250810190611b089190612be1565b50604080513381526001600160a01b03851660208201529081018390527fb7c918e0e249f999e965cafeb6c664271b3f4317d296461500e71da39f0cbda39060600160405180910390a150505050565b6069546001600160a01b031633146114c95760405162461bcd60e51b815260206004820152600d60248201526c1b9bdd08131bdb99d4da1bdc9d609a1b6044820152606401610a37565b600081118015611bb25750600681105b611c135760405162461bcd60e51b815260206004820152602c60248201527f62616c616e6365496e63656e7469766543757276655f6578706f6e656e74206f60448201526b7574206f6620626f756e647360a01b6064820152608401610a37565b63ffffffff9091166000908152606e6020526040902055565b600080600080611c3f8a8989898961243e565b915091506000611c4f8b8b6126cd565b9050611c5b83826130ee565b63ffffffff8c1660009081526073602090815260408083208e8452909152902060010154611c899190612efd565b611c9383836130ee565b63ffffffff8d1660009081526073602090815260408083208f8452909152902060020154611cc19190612efd565b94509450505050965096945050505050565b6001600160a01b03811660009081526071602052604090205463ffffffff166108d75760405162461bcd60e51b815260206004820152600f60248201526e0dcdee840ecc2d8d2c840e6f2dce8d608b1b6044820152606401610a37565b63ffffffff8216600090815260766020908152604080832033845290915290205415801590611d87575063ffffffff8216600090815260726020908152604080832054607683528184203385529092529091205411155b156108ef576108ef823361190e565b611d9f816126ff565b611e015760405162461bcd60e51b815260206004820152602d60248201527f455243313936373a206e657720696d706c656d656e746174696f6e206973206e60448201526c1bdd08184818dbdb9d1c9858dd609a1b6064820152608401610a37565b7f360894a13ba1a3210667c828492db98dca3e2076cc3735a920a3ca505d382bbc80546001600160a01b0319166001600160a01b0392909216919091179055565b6060611e4d836126ff565b611ea85760405162461bcd60e51b815260206004820152602660248201527f416464726573733a2064656c65676174652063616c6c20746f206e6f6e2d636f6044820152651b9d1c9858dd60d21b6064820152608401610a37565b600080846001600160a01b031684604051611ec39190612e24565b600060405180830381855af49150503d8060008114611efe576040519150601f19603f3d011682016040523d82523d6000602084013e611f03565b606091505b5091509150611f2b828260405180606001604052806027815260200161321960279139612709565b925050505b92915050565b611f3f81611d96565b6040516001600160a01b038216907fbc7cd75a20ee27fd9adebab32041f755214dbc6bffa90cc0225b39da2e5c2d3b90600090a250565b63ffffffff8216600081815260706020908152604080832060018452825280832054838052818420546001600160a01b039182168086526075808652848720898516808952908752858820549490931680885290865284872083885286528487205488885260748752858820938852928652848720549787526072909552928520549495929491929091808214156120175760009650505050505050611f30565b63ffffffff891660009081526076602090815260408083206001600160a01b038c16845290915290205480158015906120505750818111155b15612325576120628a86868685612742565b63ffffffff8b1660009081526077602090815260408083206001845282528083206001600160a01b038e168452909152902054909850801561218057606954604051630125edfd60e71b815263ffffffff8d1660048201526024810183905260016044820152606481018490526001600160a01b03909116906392f6fe809060840160206040518083038186803b1580156120fc57600080fd5b505afa158015612110573d6000803e3d6000fd5b505050506040513d601f19601f820116820180604052508101906121349190612c15565b61213e9086612efd565b945061214a818761314c565b63ffffffff8c1660009081526077602090815260408083206001845282528083206001600160a01b038f16845290915281205595505b5063ffffffff8a16600090815260776020908152604080832083805282528083206001600160a01b038d168452909152902054801561229a57606954604051630125edfd60e71b815263ffffffff8d1660048201526024810183905260006044820152606481018490526001600160a01b03909116906392f6fe809060840160206040518083038186803b15801561221757600080fd5b505afa15801561222b573d6000803e3d6000fd5b505050506040513d601f19601f8201168201806040525081019061224f9190612c15565b6122599087612efd565b9550612265818661314c565b63ffffffff8c16600090815260776020908152604080832083805282528083206001600160a01b038f16845290915281205594505b6001600160a01b0380891660009081526075602081815260408084208f86168086529083528185208c9055948c16845291815281832093835292909252208590556122e88b87878587612742565b6122f2908a612efd565b63ffffffff8c1660009081526076602090815260408083206001600160a01b038f16845290915281205598506123359050565b6123328a86868686612742565b97505b5050505050505092915050565b606a546040516340c10f1960e01b81526001600160a01b03848116600483015260248201849052909116906340c10f1990604401600060405180830381600087803b15801561239057600080fd5b505af11580156123a4573d6000803e3d6000fd5b5050606a546066546068546001600160a01b0392831694506340c10f199350911690670de0b6b3a7640000906123da90866130ee565b6123e49190612f43565b6040516001600160e01b031960e085901b1681526001600160a01b0390921660048301526024820152604401600060405180830381600087803b15801561242a57600080fd5b505af115801561124f573d6000803e3d6000fd5b600080600061244c88612839565b9050600061245a8587612efd565b63ffffffff8a166000908152606f602052604081205491925090671bc16d674ec800009061248990849061306b565b6124939190612f15565b9050866124a182600261306b565b6124ab908861310d565b12156125c8578581126124d05760006124c489856130ee565b945094505050506126c3565b63ffffffff8a166000908152606e60205260408120546124f26001603461314c565b6124fc848a61310d565b61250792911c612f9d565b63ffffffff8c166000908152606e60205260408120549192509061252f90603486901c612f9d565b9050600081612546846706f05b59d3b200006130ee565b6125509190612f43565b9050600061256682670de0b6b3a764000061314c565b9050670de0b6b3a76400008d61257c89856130ee565b61258691906130ee565b6125909190612f43565b670de0b6b3a76400008d6125a48a856130ee565b6125ae91906130ee565b6125b89190612f43565b98509850505050505050506126c3565b866125d2826131ae565b126125ef576125e189846130ee565b6000945094505050506126c3565b63ffffffff8a166000908152606e60205260408120546126116001603461314c565b61261b848b612ebc565b61262692911c612f9d565b63ffffffff8c166000908152606e60205260408120549192509061264e90603486901c612f9d565b9050600081612665846706f05b59d3b200006130ee565b61266f9190612f43565b9050600061268582670de0b6b3a764000061314c565b9050670de0b6b3a76400008d61269b89846130ee565b6126a591906130ee565b6126af9190612f43565b670de0b6b3a76400008d6125a48a866130ee565b9550959350505050565b63ffffffff821660009081526073602090815260408083208484529091528120546126f8904261314c565b9392505050565b803b15155b919050565b606083156127185750816126f8565b8251156127285782518084602001fd5b8160405162461bcd60e51b8152600401610a379190612e89565b600084156127ba5763ffffffff861660009081526073602090815260408083208684529091528082206001908101548584529183200154612783919061314c565b9050710b7abc627050305adf14a3d9e400000000006127a287836130ee565b6127ac9190612f43565b6127b69083612efd565b9150505b83156128305763ffffffff8616600090815260736020908152604080832086845290915280822060029081015485845291832001546127f9919061314c565b9050710b7abc627050305adf14a3d9e4000000000061281886836130ee565b6128229190612f43565b61282c9083612efd565b9150505b95945050505050565b6000806000612847846128fa565b91509150670de0b6b3a764000081101561287157634e487b7160e01b600052600160045260246000fd5b63ffffffff841660009081526073602090815260408083208380529091529020548261289d824261314c565b116128e757826128ad824261314c565b6128bf670de0b6b3a76400008561314c565b6128c991906130ee565b6128d39190612f43565b6128dd908361314c565b9350505050612704565b670de0b6b3a76400009350505050612704565b63ffffffff81166000908152606b6020908152604080832054606c90925290912054670de0b6b3a76400008110156129375750670de0b6b3a76400005b915091565b80356001600160a01b038116811461270457600080fd5b60008083601f840112612964578081fd5b50813567ffffffffffffffff81111561297b578182fd5b6020830191508360208260051b850101111561299657600080fd5b9250929050565b803563ffffffff8116811461270457600080fd5b6000602082840312156129c2578081fd5b6126f88261293c565b600080604083850312156129dd578081fd5b6129e68361293c565b91506129f46020840161293c565b90509250929050565b60008060008060008060c08789031215612a15578182fd5b612a1e8761293c565b9550612a2c6020880161293c565b9450612a3a6040880161293c565b9350612a486060880161293c565b9250612a566080880161293c565b915060a087013590509295509295509295565b60008060408385031215612a7b578182fd5b612a848361293c565b9150602083013567ffffffffffffffff80821115612aa0578283fd5b818501915085601f830112612ab3578283fd5b813581811115612ac557612ac56131f4565b604051601f8201601f19908116603f01168101908382118183101715612aed57612aed6131f4565b81604052828152886020848701011115612b05578586fd5b82602086016020830137856020848301015280955050505050509250929050565b60008060408385031215612b38578182fd5b612b418361293c565b946020939093013593505050565b60008060208385031215612b61578182fd5b823567ffffffffffffffff811115612b77578283fd5b612b8385828601612953565b90969095509350505050565b600080600060408486031215612ba3578283fd5b833567ffffffffffffffff811115612bb9578384fd5b612bc586828701612953565b9094509250612bd890506020850161293c565b90509250925092565b600060208284031215612bf2578081fd5b81516126f88161320a565b600060208284031215612c0e578081fd5b5035919050565b600060208284031215612c26578081fd5b5051919050565b600080600060608486031215612c41578283fd5b83359250612c516020850161299d565b91506040840135612c618161320a565b809150509250925092565b600060208284031215612c7d578081fd5b6126f88261299d565b60008060408385031215612c98578182fd5b6129e68361299d565b600080600080600080600080610100898b031215612cbd578586fd5b612cc68961299d565b9750612cd460208a0161293c565b9650612ce260408a0161293c565b979a96995096976060810135975060808101359660a0820135965060c0820135955060e0909101359350915050565b60008060408385031215612d23578182fd5b612d2c8361299d565b91506020830135612d3c8161320a565b809150509250929050565b600080600060608486031215612d5b578081fd5b612d648461299d565b92506020840135612d748161320a565b9150612bd86040850161293c565b600080600060608486031215612d96578081fd5b612d9f8461299d565b92506020840135612daf8161320a565b929592945050506040919091013590565b60008060408385031215612dd2578182fd5b612b418361299d565b60008060008060008060c08789031215612df3578384fd5b612dfc8761299d565b9860208801359850604088013597606081013597506080810135965060a00135945092505050565b60008251612e36818460208701613163565b9190910192915050565b60208082528181018390526000908460408401835b86811015612e7e5763ffffffff612e6b8461299d565b1682529183019190830190600101612e55565b509695505050505050565b6000602082528251806020840152612ea8816040850160208701613163565b601f01601f19169190910160400192915050565b600080821280156001600160ff1b0384900385131615612ede57612ede6131c8565b600160ff1b8390038412811615612ef757612ef76131c8565b50500190565b60008219821115612f1057612f106131c8565b500190565b600082612f2457612f246131de565b600160ff1b821460001984141615612f3e57612f3e6131c8565b500590565b600082612f5257612f526131de565b500490565b80825b6001808611612f695750612f94565b818704821115612f7b57612f7b6131c8565b80861615612f8857918102915b9490941c938002612f5a565b94509492505050565b60006126f86000198484600082612fb6575060016126f8565b81612fc3575060006126f8565b8160018114612fd95760028114612fe357613010565b60019150506126f8565b60ff841115612ff457612ff46131c8565b6001841b91508482111561300a5761300a6131c8565b506126f8565b5060208310610133831016604e8410600b8410161715613043575081810a8381111561303e5761303e6131c8565b6126f8565b6130508484846001612f57565b808604821115613062576130626131c8565b02949350505050565b60006001600160ff1b0381841382841380821686840486111615613091576130916131c8565b600160ff1b848712828116878305891216156130af576130af6131c8565b8587129250878205871284841616156130ca576130ca6131c8565b878505871281841616156130e0576130e06131c8565b505050929093029392505050565b6000816000190483118215151615613108576131086131c8565b500290565b60008083128015600160ff1b85018412161561312b5761312b6131c8565b6001600160ff1b0384018313811615613146576131466131c8565b50500390565b60008282101561315e5761315e6131c8565b500390565b60005b8381101561317e578181015183820152602001613166565b8381111561318d576000848401525b50505050565b60006000198214156131a7576131a76131c8565b5060010190565b6000600160ff1b8214156131c4576131c46131c8565b0390565b634e487b7160e01b600052601160045260246000fd5b634e487b7160e01b600052601260045260246000fd5b634e487b7160e01b600052604160045260246000fd5b80151581146108d757600080fdfe416464726573733a206c6f772d6c6576656c2064656c65676174652063616c6c206661696c6564a264697066735822122094dda660e969c1a9a3f2f62f481e443559f814bacd0d10c76248dcbe8185803064736f6c63430008030033",
  "immutableReferences": {},
  "source": "// SPDX-License-Identifier: BUSL-1.1\n\npragma solidity 0.8.3;\n\nimport \"@openzeppelin/contracts-upgradeable/token/ERC20/presets/ERC20PresetMinterPauserUpgradeable.sol\";\nimport \"@openzeppelin/contracts-upgradeable/proxy/utils/UUPSUpgradeable.sol\";\n\nimport \"./interfaces/IFloatToken.sol\";\nimport \"./interfaces/ILongShort.sol\";\nimport \"./interfaces/IStaker.sol\";\nimport \"./interfaces/ISyntheticToken.sol\";\n\ncontract Staker is IStaker, Initializable, UUPSUpgradeable {\n  /*\n              VARIABLES          \n    */\n\n  /*  Fixed-precision constants  */\n  uint256 public constant FLOAT_ISSUANCE_FIXED_DECIMAL = 1e42;\n  // 2^52 ~= 4.5e15\n  // With an exponent of 5, the largest total liquidity possible in a market (to avoid integer overflow on exponentiation) is ~10^31 DAI decimal units or 10 Trillion DAI (10^13\n  // NOTE: this also means if the total market value is less than 2^52 there will be a division by zero error\n  uint256 public constant safeExponentBitShifting = 52;\n\n  /*  Global state  */\n  address public admin;\n  address public floatCapital;\n  address public floatTreasury;\n  uint256 public floatPercentage;\n\n  address public longShort;\n  address public floatToken;\n\n  /*  Market specific  */\n  mapping(uint32 => uint256) public marketLaunchIncentive_period; // seconds\n  mapping(uint32 => uint256) public marketLaunchIncentive_multipliers; // e18 scale\n  mapping(uint32 => uint256) public marketUnstakeFee_e18;\n  mapping(uint32 => uint256) public balanceIncentiveCurve_exponent;\n  mapping(uint32 => int256) public balanceIncentiveCurve_equilibriumOffset;\n\n  mapping(uint32 => mapping(bool => address)) public syntheticTokens;\n\n  mapping(address => uint32) public marketIndexOfToken;\n\n  /*  Reward specific  */\n  mapping(uint32 => uint256) public latestRewardIndex; // This is synced to be the same as LongShort\n  mapping(uint32 => mapping(uint256 => AccumulativeIssuancePerStakedSynthSnapshot))\n    public accumulativeFloatPerSyntheticTokenSnapshots;\n  struct AccumulativeIssuancePerStakedSynthSnapshot {\n    uint256 timestamp;\n    uint256 accumulativeFloatPerSyntheticToken_long;\n    uint256 accumulativeFloatPerSyntheticToken_short;\n  }\n\n  /*  User specific  */\n  mapping(uint32 => mapping(address => uint256)) public userIndexOfLastClaimedReward;\n  mapping(address => mapping(address => uint256)) public userAmountStaked;\n\n  /*  Token shift management specific  */\n  /// @dev marketIndex => usersAddress => stakerTokenShiftIndex\n  mapping(uint32 => mapping(address => uint256))\n    public userNextPrice_stakedSyntheticTokenShiftIndex;\n  /// @dev marketIndex => usersAddress => amountUserRequestedToShiftAwayFromLongOnNextUpdate\n  mapping(uint32 => mapping(bool => mapping(address => uint256)))\n    public userNextPrice_amountStakedSyntheticToken_toShiftAwayFrom;\n\n  /*\n              MODIFIERS          \n    */\n\n  function onlyAdminModifierLogic() internal virtual {\n    require(msg.sender == admin, \"not admin\");\n  }\n\n  modifier onlyAdmin() {\n    onlyAdminModifierLogic();\n    _;\n  }\n\n  function onlyValidSyntheticModifierLogic(address _synth) internal virtual {\n    require(marketIndexOfToken[_synth] != 0, \"not valid synth\");\n  }\n\n  modifier onlyValidSynthetic(address _synth) {\n    onlyValidSyntheticModifierLogic(_synth);\n    _;\n  }\n\n  function onlyLongShortModifierLogic() internal virtual {\n    require(msg.sender == address(longShort), \"not LongShort\");\n  }\n\n  modifier onlyLongShort() {\n    onlyLongShortModifierLogic();\n    _;\n  }\n\n  function _updateUsersStakedPosition_mintAccumulatedFloatAndExecuteOutstandingShifts(\n    uint32 marketIndex,\n    address user\n  ) internal virtual {\n    if (\n      userNextPrice_stakedSyntheticTokenShiftIndex[marketIndex][msg.sender] != 0 &&\n      userNextPrice_stakedSyntheticTokenShiftIndex[marketIndex][msg.sender] <=\n      latestRewardIndex[marketIndex]\n    ) {\n      _mintAccumulatedFloatAndExecuteOutstandingShifts(marketIndex, msg.sender);\n    }\n  }\n\n  modifier updateUsersStakedPosition_mintAccumulatedFloatAndExecuteOutstandingShifts(\n    uint32 marketIndex,\n    address user\n  ) {\n    _updateUsersStakedPosition_mintAccumulatedFloatAndExecuteOutstandingShifts(marketIndex, user);\n    _;\n  }\n\n  /*\n           CONTRACT SET-UP       \n    */\n\n  /**\n  @notice Initializes the contract.\n  @dev Calls OpenZeppelin's initializer modifier.\n  @param _admin Address of the admin role.\n  @param _longShort Address of the LongShort contract, a deployed LongShort.sol\n  @param _floatToken Address of the Float token earned by staking.\n  @param _floatTreasury Address of the treasury contract for managing fees.\n  @param _floatCapital Address of the contract which earns a fixed percentage of Float.\n  @param _floatPercentage Determines the float percentage that gets minted for Float Capital, base 1e18.\n  */\n  function initialize(\n    address _admin,\n    address _longShort,\n    address _floatToken,\n    address _floatTreasury,\n    address _floatCapital,\n    uint256 _floatPercentage\n  ) external virtual initializer {\n    admin = _admin;\n    floatCapital = _floatCapital;\n    floatTreasury = _floatTreasury;\n    longShort = _longShort;\n    floatToken = _floatToken;\n\n    _changeFloatPercentage(_floatPercentage);\n\n    emit StakerV1(_admin, _floatTreasury, _floatCapital, _floatToken, _floatPercentage);\n  }\n\n  /*\n           ADMIN       \n    */\n\n  /**\n  @notice Changes admin for the contract\n  @param _admin The address of the new admin.\n  */\n  function changeAdmin(address _admin) external onlyAdmin {\n    admin = _admin;\n    emit ChangeAdmin(_admin);\n  }\n\n  /// @notice Authorizes an upgrade to a new address.\n  /// @dev Can only be called by the current admin.\n  function _authorizeUpgrade(address) internal override onlyAdmin {}\n\n  /// @dev Logic for changeFloatPercentage\n  function _changeFloatPercentage(uint256 newFloatPercentage) internal virtual {\n    require(newFloatPercentage <= 1e18 && newFloatPercentage > 0); // less than or equal to 100% and greater than 0%\n    floatPercentage = newFloatPercentage;\n  }\n\n  /**\n  @notice Changes percentage of float that is minted for float capital.\n  @param newFloatPercentage The new float percentage in base 1e18.\n  */\n  function changeFloatPercentage(uint256 newFloatPercentage) external onlyAdmin {\n    _changeFloatPercentage(newFloatPercentage);\n    emit FloatPercentageUpdated(newFloatPercentage);\n  }\n\n  /// @dev Logic for changeUnstakeFee\n  function _changeUnstakeFee(uint32 marketIndex, uint256 newMarketUnstakeFee_e18) internal virtual {\n    require(newMarketUnstakeFee_e18 <= 5e16); // Explicitly stating 5% fee as the max fee possible.\n    marketUnstakeFee_e18[marketIndex] = newMarketUnstakeFee_e18;\n  }\n\n  /**\n  @notice Changes unstake fee for a market\n  @param marketIndex Identifies the market.\n  @param newMarketUnstakeFee_e18 The new unstake fee.\n  */\n  function changeUnstakeFee(uint32 marketIndex, uint256 newMarketUnstakeFee_e18)\n    external\n    onlyAdmin\n  {\n    _changeUnstakeFee(marketIndex, newMarketUnstakeFee_e18);\n    emit StakeWithdrawalFeeUpdated(marketIndex, newMarketUnstakeFee_e18);\n  }\n\n  /// @dev Logic for changeBalanceIncentiveExponent\n  function _changeBalanceIncentiveExponent(\n    uint32 marketIndex,\n    uint256 _balanceIncentiveCurve_exponent\n  ) internal virtual {\n    require(\n      // The exponent has to be less than or equal to 5 in these versions of\n      // the contracts otherwise we risk overflowing the 256 bit integers.\n      _balanceIncentiveCurve_exponent > 0 && _balanceIncentiveCurve_exponent < 6,\n      \"balanceIncentiveCurve_exponent out of bounds\"\n    );\n\n    balanceIncentiveCurve_exponent[marketIndex] = _balanceIncentiveCurve_exponent;\n  }\n\n  /**\n  @notice Changes the balance incentive exponent for a market\n  @param marketIndex Identifies the market.\n  @param _balanceIncentiveCurve_exponent The new exponent for the curve.\n  */\n  function changeBalanceIncentiveExponent(\n    uint32 marketIndex,\n    uint256 _balanceIncentiveCurve_exponent\n  ) external onlyAdmin {\n    _changeBalanceIncentiveExponent(marketIndex, _balanceIncentiveCurve_exponent);\n\n    emit BalanceIncentiveExponentUpdated(marketIndex, _balanceIncentiveCurve_exponent);\n  }\n\n  /// @dev Logic for changeBalanceIncentiveEquilibriumOffset\n  function _changeBalanceIncentiveEquilibriumOffset(\n    uint32 marketIndex,\n    int256 _balanceIncentiveCurve_equilibriumOffset\n  ) internal virtual {\n    // Unreasonable that we would ever shift this more than 90% either way\n    require(\n      _balanceIncentiveCurve_equilibriumOffset > -9e17 &&\n        _balanceIncentiveCurve_equilibriumOffset < 9e17,\n      \"balanceIncentiveCurve_equilibriumOffset out of bounds\"\n    );\n\n    balanceIncentiveCurve_equilibriumOffset[marketIndex] = _balanceIncentiveCurve_equilibriumOffset;\n  }\n\n  /**\n  @notice Changes the balance incentive curve equilibrium offset for a market\n  @param marketIndex Identifies the market.\n  @param _balanceIncentiveCurve_equilibriumOffset The new offset.\n  */\n  function changeBalanceIncentiveEquilibriumOffset(\n    uint32 marketIndex,\n    int256 _balanceIncentiveCurve_equilibriumOffset\n  ) external onlyAdmin {\n    _changeBalanceIncentiveEquilibriumOffset(marketIndex, _balanceIncentiveCurve_equilibriumOffset);\n\n    emit BalanceIncentiveEquilibriumOffsetUpdated(\n      marketIndex,\n      _balanceIncentiveCurve_equilibriumOffset\n    );\n  }\n\n  /*\n            STAKING SETUP        \n    */\n\n  /**\n  @notice Sets this contract to track staking for a market in LongShort.sol\n  @param marketIndex Identifies the market.\n  @param longToken Address of the long token for the market.\n  @param shortToken Address of the short token for the market.\n  @param kInitialMultiplier Initial boost on float generation for the market.\n  @param kPeriod Period which the boost should last.\n  @param unstakeFee_e18 Percentage of tokens that are levied on unstaking in base 1e18.\n  @param _balanceIncentiveCurve_exponent Exponent for balance curve (see _calculateFloatPerSecond)\n  @param _balanceIncentiveCurve_equilibriumOffset Offset for balance curve (see _calculateFloatPerSecond)\n  */\n  function addNewStakingFund(\n    uint32 marketIndex,\n    address longToken,\n    address shortToken,\n    uint256 kInitialMultiplier,\n    uint256 kPeriod,\n    uint256 unstakeFee_e18,\n    uint256 _balanceIncentiveCurve_exponent,\n    int256 _balanceIncentiveCurve_equilibriumOffset\n  ) external override onlyLongShort {\n    marketIndexOfToken[longToken] = marketIndex;\n    marketIndexOfToken[shortToken] = marketIndex;\n\n    accumulativeFloatPerSyntheticTokenSnapshots[marketIndex][0].timestamp = block.timestamp;\n\n    syntheticTokens[marketIndex][true] = longToken;\n    syntheticTokens[marketIndex][false] = shortToken;\n\n    _changeBalanceIncentiveExponent(marketIndex, _balanceIncentiveCurve_exponent);\n    _changeBalanceIncentiveEquilibriumOffset(marketIndex, _balanceIncentiveCurve_equilibriumOffset);\n\n    require(kInitialMultiplier >= 1e18, \"marketLaunchIncentiveMultiplier must be >= 1e18\");\n    marketLaunchIncentive_period[marketIndex] = kPeriod;\n    marketLaunchIncentive_multipliers[marketIndex] = kInitialMultiplier;\n\n    _changeUnstakeFee(marketIndex, unstakeFee_e18);\n\n    emit MarketAddedToStaker(\n      marketIndex,\n      unstakeFee_e18,\n      kPeriod,\n      kInitialMultiplier,\n      _balanceIncentiveCurve_exponent,\n      _balanceIncentiveCurve_equilibriumOffset\n    );\n\n    emit AccumulativeIssuancePerStakedSynthSnapshotCreated(marketIndex, 0, 0, 0);\n  }\n\n  /*\n        GLOBAL FLT REWARD ACCUMULATION CALCULATION AND TRACKING FUNCTIONS    \n    */\n\n  /**\n  @notice Returns the K factor parameters for the given market with sensible\n  defaults if they haven't been set yet.\n  @param marketIndex The market to change the parameters for.\n  @return period The period for which the k factor applies for in seconds.\n  @return multiplier The multiplier on Float generation in this period.\n  */\n  function _getMarketLaunchIncentiveParameters(uint32 marketIndex)\n    internal\n    view\n    virtual\n    returns (uint256 period, uint256 multiplier)\n  {\n    period = marketLaunchIncentive_period[marketIndex]; // seconds TODO change name to contain seconds\n    multiplier = marketLaunchIncentive_multipliers[marketIndex]; // 1e18 TODO change name to contain E18\n\n    if (multiplier < 1e18) {\n      multiplier = 1e18; // multiplier of 1 by default\n    }\n  }\n\n  /**\n  @notice Returns the extent to which a markets float generation should be adjusted\n  based on the market's launch incentive parameters. Should start at multiplier\n  then linearly change to 1e18 over time.\n  @param marketIndex Identifies the market.\n  @return k The calculated modifier for float generation.\n  */\n  function _getKValue(uint32 marketIndex) internal view virtual returns (uint256) {\n    // Parameters controlling the float issuance multiplier.\n    (uint256 kPeriod, uint256 kInitialMultiplier) = _getMarketLaunchIncentiveParameters(\n      marketIndex\n    );\n\n    // Sanity check - under normal circumstances, the multipliers should\n    // *never* be set to a value < 1e18, as there are guards against this.\n    assert(kInitialMultiplier >= 1e18);\n\n    uint256 initialTimestamp = accumulativeFloatPerSyntheticTokenSnapshots[marketIndex][0]\n    .timestamp;\n\n    if (block.timestamp - initialTimestamp <= kPeriod) {\n      return\n        kInitialMultiplier -\n        (((kInitialMultiplier - 1e18) * (block.timestamp - initialTimestamp)) / kPeriod);\n    } else {\n      return 1e18;\n    }\n  }\n\n  /*\n  @notice Computes the number of float tokens a user earns per second for\n  every long/short synthetic token they've staked. The returned value has\n  a fixed decimal scale of 1e42 (!!!) for numerical stability. The return\n  values are float per second per synthetic token (hence the requirement\n  to multiply by price)\n  @dev to see below math in latex form see:\n  https://ipfs.io/ipfs/QmRWbr8P1F588XqRTzm7wCsRPu8DcDVPWGriBach4f22Fq/staker-fps.pdf\n  to interact with the equations see https://www.desmos.com/calculator/optkaxyihr\n  @param marketIndex The market referred to.\n  @param longPrice Price of the synthetic long token in units of payment token\n  @param shortPrice Price of the synthetic short token in units of payment token\n  @param longValue Amount of payment token in the long side of the market\n  @param shortValue Amount of payment token in the short side of the market\n  @return longFloatPerSecond Float token per second per long synthetic token\n  @return shortFloatPerSecond Float token per second per short synthetic token\n   */\n  function _calculateFloatPerSecond(\n    uint32 marketIndex,\n    uint256 longPrice,\n    uint256 shortPrice,\n    uint256 longValue,\n    uint256 shortValue\n  ) internal view virtual returns (uint256 longFloatPerSecond, uint256 shortFloatPerSecond) {\n    // A float issuance multiplier that starts high and decreases linearly\n    // over time to a value of 1. This incentivises users to stake early.\n    uint256 k = _getKValue(marketIndex);\n\n    uint256 totalLocked = (longValue + shortValue);\n\n    // we need to scale this number by the totalLocked so that the offset remains consistent accross market size\n\n    int256 equilibriumOffsetMarketScaled = (balanceIncentiveCurve_equilibriumOffset[marketIndex] *\n      int256(totalLocked)) / 2e18;\n\n    // Float is scaled by the percentage of the total market value held in\n    // the opposite position. This incentivises users to stake on the\n    // weaker position.\n    if (int256(shortValue) - (2 * equilibriumOffsetMarketScaled) < int256(longValue)) {\n      if (equilibriumOffsetMarketScaled >= int256(shortValue)) {\n        // edge case: imbalanced far past the equilibrium offset - full rewards go to short token\n        //            extremely unlikely to happen in practice\n        return (0, k * shortPrice);\n      }\n\n      uint256 numerator = (uint256(int256(shortValue) - equilibriumOffsetMarketScaled) >>\n        (safeExponentBitShifting - 1))**balanceIncentiveCurve_exponent[marketIndex];\n\n      uint256 denominator = ((totalLocked >> safeExponentBitShifting) **\n        balanceIncentiveCurve_exponent[marketIndex]);\n\n      // NOTE: `x * 5e17` == `(x * 1e18) / 2`\n      uint256 longRewardUnscaled = (numerator * 5e17) / denominator;\n      uint256 shortRewardUnscaled = 1e18 - longRewardUnscaled;\n\n      return (\n        (longRewardUnscaled * k * longPrice) / 1e18,\n        (shortRewardUnscaled * k * shortPrice) / 1e18\n      );\n    } else {\n      if (-equilibriumOffsetMarketScaled >= int256(longValue)) {\n        // edge case: imbalanced far past the equilibrium offset - full rewards go to long token\n        //            extremely unlikely to happen in practice\n        return (k * longPrice, 0);\n      }\n\n      uint256 numerator = (uint256(int256(longValue) + equilibriumOffsetMarketScaled) >>\n        (safeExponentBitShifting - 1))**balanceIncentiveCurve_exponent[marketIndex];\n\n      uint256 denominator = ((totalLocked >> safeExponentBitShifting) **\n        balanceIncentiveCurve_exponent[marketIndex]);\n\n      // NOTE: `x * 5e17` == `(x * 1e18) / 2`\n      uint256 shortRewardUnscaled = (numerator * 5e17) / denominator;\n      uint256 longRewardUnscaled = 1e18 - shortRewardUnscaled;\n\n      return (\n        (longRewardUnscaled * k * longPrice) / 1e18,\n        (shortRewardUnscaled * k * shortPrice) / 1e18\n      );\n    }\n  }\n\n  /**\n  @notice Computes the time since last accumulativeIssuancePerStakedSynthSnapshot for the given market in seconds.\n  @param marketIndex The market referred to.\n  @return timeDelta The time difference in seconds\n  */\n  function _calculateTimeDeltaFromLastAccumulativeIssuancePerStakedSynthSnapshot(\n    uint32 marketIndex,\n    uint256 previousMarketUpdateIndex\n  ) internal view virtual returns (uint256 timeDelta) {\n    return\n      block.timestamp -\n      accumulativeFloatPerSyntheticTokenSnapshots[marketIndex][previousMarketUpdateIndex].timestamp;\n  }\n\n  /**\n  @notice Computes new cumulative sum of 'r' value since last accumulativeIssuancePerStakedSynthSnapshot. We use\n  cumulative 'r' value to avoid looping during issuance. Note that the\n  cumulative sum is kept in 1e42 scale (!!!) to avoid numerical issues.\n  @param shortValue The value locked in the short side of the market.\n  @param longValue The value locked in the long side of the market.\n  @param shortPrice The price of the short token as defined in LongShort.sol\n  @param longPrice The price of the long token as defined in LongShort.sol\n  @param marketIndex An identifier for the market.\n  @return longCumulativeRates The long cumulative sum.\n  @return shortCumulativeRates The short cumulative sum.\n  */\n  function _calculateNewCumulativeIssuancePerStakedSynth(\n    uint32 marketIndex,\n    uint256 previousMarketUpdateIndex,\n    uint256 longPrice,\n    uint256 shortPrice,\n    uint256 longValue,\n    uint256 shortValue\n  ) internal view virtual returns (uint256 longCumulativeRates, uint256 shortCumulativeRates) {\n    // Compute the current 'r' value for float issuance per second.\n    (uint256 longFloatPerSecond, uint256 shortFloatPerSecond) = _calculateFloatPerSecond(\n      marketIndex,\n      longPrice,\n      shortPrice,\n      longValue,\n      shortValue\n    );\n\n    // Compute time since last accumulativeIssuancePerStakedSynthSnapshot for the given token.\n    uint256 timeDelta = _calculateTimeDeltaFromLastAccumulativeIssuancePerStakedSynthSnapshot(\n      marketIndex,\n      previousMarketUpdateIndex\n    );\n\n    // Compute new cumulative 'r' value total.\n    return (\n      accumulativeFloatPerSyntheticTokenSnapshots[marketIndex][previousMarketUpdateIndex]\n      .accumulativeFloatPerSyntheticToken_long + (timeDelta * longFloatPerSecond),\n      accumulativeFloatPerSyntheticTokenSnapshots[marketIndex][previousMarketUpdateIndex]\n      .accumulativeFloatPerSyntheticToken_short + (timeDelta * shortFloatPerSecond)\n    );\n  }\n\n  /**\n  @notice Adds new accumulativeIssuancePerStakedSynthSnapshots for the given long/short tokens. Called by the\n  ILongShort contract whenever there is a state change for a market.\n  @param marketIndex An identifier for the market.\n  @param marketUpdateIndex Current update index in the LongShort contract for this market.\n  @param shortValue The value locked in the short side of the market.\n  @param longValue The value locked in the long side of the market.\n  @param shortPrice The price of the short token as defined in LongShort.sol\n  @param longPrice The price of the long token as defined in LongShort.sol\n  */\n  function pushUpdatedMarketPricesToUpdateFloatIssuanceCalculations(\n    uint32 marketIndex,\n    uint256 marketUpdateIndex,\n    uint256 longPrice,\n    uint256 shortPrice,\n    uint256 longValue,\n    uint256 shortValue\n  ) external override onlyLongShort {\n    (\n      uint256 newLongAccumulativeValue,\n      uint256 newShortAccumulativeValue\n    ) = _calculateNewCumulativeIssuancePerStakedSynth(\n      marketIndex,\n      marketUpdateIndex - 1,\n      longPrice,\n      shortPrice,\n      longValue,\n      shortValue\n    );\n\n    // Set cumulative 'r' value on new accumulativeIssuancePerStakedSynthSnapshot.\n\n\n      AccumulativeIssuancePerStakedSynthSnapshot storage accumulativeFloatPerSyntheticTokenSnapshot\n     = accumulativeFloatPerSyntheticTokenSnapshots[marketIndex][marketUpdateIndex];\n    accumulativeFloatPerSyntheticTokenSnapshot\n    .accumulativeFloatPerSyntheticToken_long = newLongAccumulativeValue;\n    accumulativeFloatPerSyntheticTokenSnapshot\n    .accumulativeFloatPerSyntheticToken_short = newShortAccumulativeValue;\n\n    // Set timestamp on new accumulativeIssuancePerStakedSynthSnapshot.\n    accumulativeFloatPerSyntheticTokenSnapshot.timestamp = block.timestamp;\n\n    // Update latest index to point to new accumulativeIssuancePerStakedSynthSnapshot.\n    latestRewardIndex[marketIndex] = marketUpdateIndex;\n\n    emit AccumulativeIssuancePerStakedSynthSnapshotCreated(\n      marketIndex,\n      marketUpdateIndex,\n      newLongAccumulativeValue,\n      newShortAccumulativeValue\n    );\n  }\n\n  /*\n        USER REWARD STATE FUNCTIONS    \n    */\n\n  /// @dev Calculates the accumulated float in a specific range of staker snapshots\n  function _calculateAccumulatedFloatInRange(\n    uint32 marketIndex,\n    uint256 amountStakedLong,\n    uint256 amountStakedShort,\n    uint256 rewardIndexFrom,\n    uint256 rewardIndexTo\n  ) internal view virtual returns (uint256 floatReward) {\n    if (amountStakedLong > 0) {\n      uint256 accumDeltaLong = accumulativeFloatPerSyntheticTokenSnapshots[marketIndex][\n        rewardIndexTo\n      ]\n      .accumulativeFloatPerSyntheticToken_long -\n        accumulativeFloatPerSyntheticTokenSnapshots[marketIndex][rewardIndexFrom]\n        .accumulativeFloatPerSyntheticToken_long;\n      floatReward += (accumDeltaLong * amountStakedLong) / FLOAT_ISSUANCE_FIXED_DECIMAL;\n    }\n\n    if (amountStakedShort > 0) {\n      uint256 accumDeltaShort = accumulativeFloatPerSyntheticTokenSnapshots[marketIndex][\n        rewardIndexTo\n      ]\n      .accumulativeFloatPerSyntheticToken_short -\n        accumulativeFloatPerSyntheticTokenSnapshots[marketIndex][rewardIndexFrom]\n        .accumulativeFloatPerSyntheticToken_short;\n      floatReward += (accumDeltaShort * amountStakedShort) / FLOAT_ISSUANCE_FIXED_DECIMAL;\n    }\n  }\n\n  /**\n  @notice Calculates float owed to the user since the user last minted float for a market.\n  @param marketIndex Identifier for the market which the user staked in.\n  @param user The address of the user.\n  @return floatReward The amount of float owed.\n   */\n  function _calculateAccumulatedFloatAndExecuteOutstandingShifts(uint32 marketIndex, address user)\n    internal\n    virtual\n    returns (uint256 floatReward)\n  {\n    address longToken = syntheticTokens[marketIndex][true];\n    address shortToken = syntheticTokens[marketIndex][false];\n\n    uint256 amountStakedLong = userAmountStaked[longToken][user];\n    uint256 amountStakedShort = userAmountStaked[shortToken][user];\n\n    uint256 usersLastRewardIndex = userIndexOfLastClaimedReward[marketIndex][user];\n\n    uint256 currentRewardIndex = latestRewardIndex[marketIndex];\n\n    // Don't do the calculation and return zero immediately if there is no change\n    if (usersLastRewardIndex == currentRewardIndex) {\n      return 0;\n    }\n\n    uint256 usersShiftIndex = userNextPrice_stakedSyntheticTokenShiftIndex[marketIndex][user];\n    // if there is a change in the users tokens held due to a token shift (or possibly another action in the future)\n    if (usersShiftIndex > 0 && usersShiftIndex <= currentRewardIndex) {\n      floatReward = _calculateAccumulatedFloatInRange(\n        marketIndex,\n        amountStakedLong,\n        amountStakedShort,\n        usersLastRewardIndex,\n        usersShiftIndex\n      );\n\n      // Update the users balances\n\n\n        uint256 amountToShiftAwayFromCurrentSide\n       = userNextPrice_amountStakedSyntheticToken_toShiftAwayFrom[marketIndex][true][user];\n      // Handle shifts from LONG side:\n      if (amountToShiftAwayFromCurrentSide > 0) {\n        amountStakedShort += ILongShort(longShort).getAmountSyntheticTokenToMintOnTargetSide(\n          marketIndex,\n          amountToShiftAwayFromCurrentSide,\n          true,\n          usersShiftIndex\n        );\n\n        amountStakedLong -= amountToShiftAwayFromCurrentSide;\n        userNextPrice_amountStakedSyntheticToken_toShiftAwayFrom[marketIndex][true][user] = 0;\n      }\n\n      amountToShiftAwayFromCurrentSide = userNextPrice_amountStakedSyntheticToken_toShiftAwayFrom[\n        marketIndex\n      ][false][user];\n      // Handle shifts from SHORT side:\n      if (amountToShiftAwayFromCurrentSide > 0) {\n        amountStakedLong += ILongShort(longShort).getAmountSyntheticTokenToMintOnTargetSide(\n          marketIndex,\n          amountToShiftAwayFromCurrentSide,\n          false,\n          usersShiftIndex\n        );\n\n        amountStakedShort -= amountToShiftAwayFromCurrentSide;\n        userNextPrice_amountStakedSyntheticToken_toShiftAwayFrom[marketIndex][false][user] = 0;\n      }\n\n      // Save the users updated staked amounts\n      userAmountStaked[longToken][user] = amountStakedLong;\n      userAmountStaked[shortToken][user] = amountStakedShort;\n\n      floatReward += _calculateAccumulatedFloatInRange(\n        marketIndex,\n        amountStakedLong,\n        amountStakedShort,\n        usersShiftIndex,\n        currentRewardIndex\n      );\n\n      userNextPrice_stakedSyntheticTokenShiftIndex[marketIndex][user] = 0;\n    } else {\n      floatReward = _calculateAccumulatedFloatInRange(\n        marketIndex,\n        amountStakedLong,\n        amountStakedShort,\n        usersLastRewardIndex,\n        currentRewardIndex\n      );\n    }\n  }\n\n  /**\n  @notice Mints float for a user.\n  @dev Mints a fixed percentage for Float capital.\n  @param user The address of the user.\n  @param floatToMint The amount of float to mint.\n   */\n  function _mintFloat(address user, uint256 floatToMint) internal virtual {\n    IFloatToken(floatToken).mint(user, floatToMint);\n    IFloatToken(floatToken).mint(floatCapital, (floatToMint * floatPercentage) / 1e18);\n  }\n\n  /**\n  @notice Mints float owed to a user for a market since they last minted.\n  @param marketIndex An identifier for the market.\n  @param user The address of the user.\n   */\n  function _mintAccumulatedFloatAndExecuteOutstandingShifts(uint32 marketIndex, address user)\n    internal\n    virtual\n  {\n    uint256 floatToMint = _calculateAccumulatedFloatAndExecuteOutstandingShifts(marketIndex, user);\n\n    if (floatToMint > 0) {\n      // Set the user has claimed up until now, stops them setting this forward\n      userIndexOfLastClaimedReward[marketIndex][user] = latestRewardIndex[marketIndex];\n\n      _mintFloat(user, floatToMint);\n      emit FloatMinted(user, marketIndex, floatToMint);\n    }\n  }\n\n  /**\n  @notice Mints float owed to a user for multiple markets, since they last minted for those markets.\n  @param marketIndexes Identifiers for the markets.\n  @param user The address of the user.\n   */\n  function _mintAccumulatedFloatAndExecuteOutstandingShiftsMulti(\n    uint32[] calldata marketIndexes,\n    address user\n  ) internal virtual {\n    uint256 floatTotal = 0;\n    uint256 length = marketIndexes.length;\n    for (uint256 i = 0; i < length; i++) {\n      uint256 floatToMint = _calculateAccumulatedFloatAndExecuteOutstandingShifts(\n        marketIndexes[i],\n        user\n      );\n\n      if (floatToMint > 0) {\n        // Set the user has claimed up until now, stops them setting this forward\n        userIndexOfLastClaimedReward[marketIndexes[i]][user] = latestRewardIndex[marketIndexes[i]];\n\n        floatTotal += floatToMint;\n\n        emit FloatMinted(user, marketIndexes[i], floatToMint);\n      }\n    }\n    if (floatTotal > 0) {\n      _mintFloat(user, floatTotal);\n    }\n  }\n\n  /**\n  @notice Mints outstanding float for msg.sender.\n  @param marketIndexes Identifiers for the markets for which to mint float.\n   */\n  function claimFloatCustom(uint32[] calldata marketIndexes) external {\n    ILongShort(longShort).updateSystemStateMulti(marketIndexes);\n    _mintAccumulatedFloatAndExecuteOutstandingShiftsMulti(marketIndexes, msg.sender);\n  }\n\n  /**\n  @notice Mints outstanding float on behalf of another user.\n  @param marketIndexes Identifiers for the markets for which to mint float.\n  @param user The address of the user.\n   */\n  function claimFloatCustomFor(uint32[] calldata marketIndexes, address user) external {\n    // Unbounded loop - users are responsible for paying their own gas costs on these and it doesn't effect the rest of the system.\n    // No need to impose limit.\n    ILongShort(longShort).updateSystemStateMulti(marketIndexes);\n    _mintAccumulatedFloatAndExecuteOutstandingShiftsMulti(marketIndexes, user);\n  }\n\n  /*\n            STAKING        \n    */\n\n  /**\n  @notice A user with synthetic tokens stakes by calling stake on the token\n  contract which calls this function. We need to first update the\n  state of the LongShort contract for this market before staking to correctly calculate user rewards.\n  @param amount Amount to stake.\n  @param from Address to stake for.\n  */\n  function stakeFromUser(address from, uint256 amount)\n    external\n    virtual\n    override\n    onlyValidSynthetic(msg.sender)\n  {\n    uint32 marketIndex = marketIndexOfToken[msg.sender];\n    ILongShort(longShort).updateSystemState(marketIndex);\n\n    uint256 userCurrentIndexOfLastClaimedReward = userIndexOfLastClaimedReward[marketIndex][from];\n    uint256 currentRewardIndex = latestRewardIndex[marketIndex];\n    // If they already have staked and have rewards due, mint these.\n    if (\n      userCurrentIndexOfLastClaimedReward != 0 &&\n      userCurrentIndexOfLastClaimedReward < currentRewardIndex\n    ) {\n      _mintAccumulatedFloatAndExecuteOutstandingShifts(marketIndex, from);\n    }\n\n    userAmountStaked[msg.sender][from] += amount;\n\n    // NOTE: Users retroactively earn a little bit of FLT because they start earning from the previous update index.\n    userIndexOfLastClaimedReward[marketIndex][from] = currentRewardIndex;\n\n    emit StakeAdded(from, msg.sender, amount, currentRewardIndex);\n  }\n\n  /**\n  @notice Allows users to shift their staked tokens from one side of the market to\n  the other at the next price.\n  @param amountSyntheticTokensToShift Amount of tokens to shift.\n  @param marketIndex Identifier for the market.\n  @param isShiftFromLong Whether the shift is from long to short or short to long.\n  */\n  function shiftTokens(\n    uint256 amountSyntheticTokensToShift,\n    uint32 marketIndex,\n    bool isShiftFromLong\n  )\n    external\n    virtual\n    updateUsersStakedPosition_mintAccumulatedFloatAndExecuteOutstandingShifts(\n      marketIndex,\n      msg.sender\n    )\n  {\n    address token = syntheticTokens[marketIndex][isShiftFromLong];\n    uint256 totalAmountForNextShift = amountSyntheticTokensToShift +\n      userNextPrice_amountStakedSyntheticToken_toShiftAwayFrom[marketIndex][isShiftFromLong][\n        msg.sender\n      ];\n\n    require(\n      userAmountStaked[token][msg.sender] >= totalAmountForNextShift,\n      \"Not enough tokens to shift\"\n    );\n\n    ILongShort(longShort).shiftPositionNextPrice(\n      marketIndex,\n      amountSyntheticTokensToShift,\n      isShiftFromLong\n    );\n\n    userNextPrice_amountStakedSyntheticToken_toShiftAwayFrom[marketIndex][isShiftFromLong][\n      msg.sender\n    ] = totalAmountForNextShift;\n\n    userNextPrice_stakedSyntheticTokenShiftIndex[marketIndex][msg.sender] =\n      latestRewardIndex[marketIndex] +\n      1;\n  }\n\n  /*\n        WITHDRAWAL & MINTING    \n    */\n\n  /**\n  @notice Internal logic for withdrawing stakes.\n  @dev Mint user any outstanding float before withdrawing.\n  @param marketIndex Market index of token.\n  @param amount Amount to withdraw.\n  @param token Synthetic token that was staked.\n  */\n  function _withdraw(\n    uint32 marketIndex,\n    address token,\n    uint256 amount\n  ) internal virtual {\n    uint256 amountFees = (amount * marketUnstakeFee_e18[marketIndex]) / 1e18;\n\n    IFloatToken(token).transfer(floatTreasury, amountFees);\n    IFloatToken(token).transfer(msg.sender, amount - amountFees);\n\n    emit StakeWithdrawn(msg.sender, token, amount);\n  }\n\n  /**\n  @notice Withdraw function. Allows users to unstake.\n  @param amount Amount to withdraw.\n  @param marketIndex Market index of staked synthetic token\n  @param isWithdrawFromLong is synthetic token to be withdrawn long or short\n  */\n  function withdraw(\n    uint32 marketIndex,\n    bool isWithdrawFromLong,\n    uint256 amount\n  ) external {\n    address token = syntheticTokens[marketIndex][isWithdrawFromLong];\n\n    ILongShort(longShort).updateSystemState(marketIndex);\n    _mintAccumulatedFloatAndExecuteOutstandingShifts(marketIndex, msg.sender);\n\n    uint256 currentAmountStaked = userAmountStaked[token][msg.sender];\n    // If this value is greater than zero they have pending nextPriceShifts; don't allow user to shit these reserved tokens.\n    uint256 amountToShiftForThisToken = userNextPrice_amountStakedSyntheticToken_toShiftAwayFrom[\n      marketIndex\n    ][isWithdrawFromLong][msg.sender];\n\n    unchecked {\n      require(currentAmountStaked >= amount + amountToShiftForThisToken, \"not enough to withdraw\");\n      userAmountStaked[token][msg.sender] = currentAmountStaked - amount;\n    }\n\n    _withdraw(marketIndex, token, amount);\n  }\n\n  /**\n  @notice Allows users to withdraw their entire stake for a token.\n  @param marketIndex Market index of staked synthetic token\n  @param isWithdrawFromLong is synthetic token to be withdrawn long or short\n  */\n  function withdrawAll(uint32 marketIndex, bool isWithdrawFromLong) external {\n    ILongShort(longShort).updateSystemState(marketIndex);\n    _mintAccumulatedFloatAndExecuteOutstandingShifts(marketIndex, msg.sender);\n\n    address token = syntheticTokens[marketIndex][isWithdrawFromLong];\n\n    uint256 userAmountStakedBeforeWithdrawal = userAmountStaked[token][msg.sender];\n\n    uint256 amountToShiftForThisToken = userNextPrice_amountStakedSyntheticToken_toShiftAwayFrom[\n      marketIndex\n    ][isWithdrawFromLong][msg.sender];\n    userAmountStaked[token][msg.sender] = amountToShiftForThisToken;\n\n    _withdraw(marketIndex, token, userAmountStakedBeforeWithdrawal - amountToShiftForThisToken);\n  }\n}\n",
  "sourcePath": "/home/jasoons/Documents/code/monorepo/contracts/contracts/Staker.sol",
  "compiler": {
    "name": "solc",
    "version": "0.8.3+commit.8d00100c.Emscripten.clang"
  },
  "schemaVersion": "3.4.3",
  "updatedAt": "2021-08-20T13:02:09.024Z",
  "networkType": "ethereum",
  "devdoc": {
    "kind": "dev",
    "methods": {
      "addNewStakingFund(uint32,address,address,uint256,uint256,uint256,uint256,int256)": {
        "params": {
          "_balanceIncentiveCurve_equilibriumOffset": "Offset for balance curve (see _calculateFloatPerSecond)",
          "_balanceIncentiveCurve_exponent": "Exponent for balance curve (see _calculateFloatPerSecond)",
          "kInitialMultiplier": "Initial boost on float generation for the market.",
          "kPeriod": "Period which the boost should last.",
          "longToken": "Address of the long token for the market.",
          "marketIndex": "Identifies the market.",
          "shortToken": "Address of the short token for the market.",
          "unstakeFee_e18": "Percentage of tokens that are levied on unstaking in base 1e18."
        }
      },
      "changeAdmin(address)": {
        "params": {
          "_admin": "The address of the new admin."
        }
      },
      "changeBalanceIncentiveEquilibriumOffset(uint32,int256)": {
        "params": {
          "_balanceIncentiveCurve_equilibriumOffset": "The new offset.",
          "marketIndex": "Identifies the market."
        }
      },
      "changeBalanceIncentiveExponent(uint32,uint256)": {
        "params": {
          "_balanceIncentiveCurve_exponent": "The new exponent for the curve.",
          "marketIndex": "Identifies the market."
        }
      },
      "changeFloatPercentage(uint256)": {
        "params": {
          "newFloatPercentage": "The new float percentage in base 1e18."
        }
      },
      "changeUnstakeFee(uint32,uint256)": {
        "params": {
          "marketIndex": "Identifies the market.",
          "newMarketUnstakeFee_e18": "The new unstake fee."
        }
      },
      "claimFloatCustom(uint32[])": {
        "params": {
          "marketIndexes": "Identifiers for the markets for which to mint float."
        }
      },
      "claimFloatCustomFor(uint32[],address)": {
        "params": {
          "marketIndexes": "Identifiers for the markets for which to mint float.",
          "user": "The address of the user."
        }
      },
      "initialize(address,address,address,address,address,uint256)": {
        "details": "Calls OpenZeppelin's initializer modifier.",
        "params": {
          "_admin": "Address of the admin role.",
          "_floatCapital": "Address of the contract which earns a fixed percentage of Float.",
          "_floatPercentage": "Determines the float percentage that gets minted for Float Capital, base 1e18.",
          "_floatToken": "Address of the Float token earned by staking.",
          "_floatTreasury": "Address of the treasury contract for managing fees.",
          "_longShort": "Address of the LongShort contract, a deployed LongShort.sol"
        }
      },
      "pushUpdatedMarketPricesToUpdateFloatIssuanceCalculations(uint32,uint256,uint256,uint256,uint256,uint256)": {
        "params": {
          "longPrice": "The price of the long token as defined in LongShort.sol",
          "longValue": "The value locked in the long side of the market.",
          "marketIndex": "An identifier for the market.",
          "marketUpdateIndex": "Current update index in the LongShort contract for this market.",
          "shortPrice": "The price of the short token as defined in LongShort.sol",
          "shortValue": "The value locked in the short side of the market."
        }
      },
      "shiftTokens(uint256,uint32,bool)": {
        "params": {
          "amountSyntheticTokensToShift": "Amount of tokens to shift.",
          "isShiftFromLong": "Whether the shift is from long to short or short to long.",
          "marketIndex": "Identifier for the market."
        }
      },
      "stakeFromUser(address,uint256)": {
        "params": {
          "amount": "Amount to stake.",
          "from": "Address to stake for."
        }
      },
      "upgradeTo(address)": {
        "details": "Upgrade the implementation of the proxy to `newImplementation`. Calls {_authorizeUpgrade}. Emits an {Upgraded} event."
      },
      "upgradeToAndCall(address,bytes)": {
        "details": "Upgrade the implementation of the proxy to `newImplementation`, and subsequently execute the function call encoded in `data`. Calls {_authorizeUpgrade}. Emits an {Upgraded} event."
      },
      "withdraw(uint32,bool,uint256)": {
        "params": {
          "amount": "Amount to withdraw.",
          "isWithdrawFromLong": "is synthetic token to be withdrawn long or short",
          "marketIndex": "Market index of staked synthetic token"
        }
      },
      "withdrawAll(uint32,bool)": {
        "params": {
          "isWithdrawFromLong": "is synthetic token to be withdrawn long or short",
          "marketIndex": "Market index of staked synthetic token"
        }
      }
    },
    "stateVariables": {
      "userNextPrice_amountStakedSyntheticToken_toShiftAwayFrom": {
        "details": "marketIndex => usersAddress => amountUserRequestedToShiftAwayFromLongOnNextUpdate"
      },
      "userNextPrice_stakedSyntheticTokenShiftIndex": {
        "details": "marketIndex => usersAddress => stakerTokenShiftIndex"
      }
    },
    "version": 1
  },
  "userdoc": {
    "kind": "user",
    "methods": {
      "addNewStakingFund(uint32,address,address,uint256,uint256,uint256,uint256,int256)": {
        "notice": "Sets this contract to track staking for a market in LongShort.sol"
      },
      "changeAdmin(address)": {
        "notice": "Changes admin for the contract"
      },
      "changeBalanceIncentiveEquilibriumOffset(uint32,int256)": {
        "notice": "Changes the balance incentive curve equilibrium offset for a market"
      },
      "changeBalanceIncentiveExponent(uint32,uint256)": {
        "notice": "Changes the balance incentive exponent for a market"
      },
      "changeFloatPercentage(uint256)": {
        "notice": "Changes percentage of float that is minted for float capital."
      },
      "changeUnstakeFee(uint32,uint256)": {
        "notice": "Changes unstake fee for a market"
      },
      "claimFloatCustom(uint32[])": {
        "notice": "Mints outstanding float for msg.sender."
      },
      "claimFloatCustomFor(uint32[],address)": {
        "notice": "Mints outstanding float on behalf of another user."
      },
      "initialize(address,address,address,address,address,uint256)": {
        "notice": "Initializes the contract."
      },
      "pushUpdatedMarketPricesToUpdateFloatIssuanceCalculations(uint32,uint256,uint256,uint256,uint256,uint256)": {
        "notice": "Adds new accumulativeIssuancePerStakedSynthSnapshots for the given long/short tokens. Called by the ILongShort contract whenever there is a state change for a market."
      },
      "shiftTokens(uint256,uint32,bool)": {
        "notice": "Allows users to shift their staked tokens from one side of the market to the other at the next price."
      },
      "stakeFromUser(address,uint256)": {
        "notice": "A user with synthetic tokens stakes by calling stake on the token contract which calls this function. We need to first update the state of the LongShort contract for this market before staking to correctly calculate user rewards."
      },
      "withdraw(uint32,bool,uint256)": {
        "notice": "Withdraw function. Allows users to unstake."
      },
      "withdrawAll(uint32,bool)": {
        "notice": "Allows users to withdraw their entire stake for a token."
      }
    },
    "version": 1
  }
}