{
  "contractName": "Treasury_v0",
  "abi": [
    {
      "anonymous": false,
      "inputs": [
        {
          "indexed": false,
          "internalType": "address",
          "name": "previousAdmin",
          "type": "address"
        },
        {
          "indexed": false,
          "internalType": "address",
          "name": "newAdmin",
          "type": "address"
        }
      ],
      "name": "AdminChanged",
      "type": "event"
    },
    {
      "anonymous": false,
      "inputs": [
        {
          "indexed": true,
          "internalType": "address",
          "name": "beacon",
          "type": "address"
        }
      ],
      "name": "BeaconUpgraded",
      "type": "event"
    },
    {
      "anonymous": false,
      "inputs": [
        {
          "indexed": true,
          "internalType": "address",
          "name": "implementation",
          "type": "address"
        }
      ],
      "name": "Upgraded",
      "type": "event"
    },
    {
      "inputs": [],
      "name": "admin",
      "outputs": [
        {
          "internalType": "address",
          "name": "",
          "type": "address"
        }
      ],
      "stateMutability": "view",
      "type": "function",
      "constant": true
    },
    {
      "inputs": [
        {
          "internalType": "address",
          "name": "newImplementation",
          "type": "address"
        }
      ],
      "name": "upgradeTo",
      "outputs": [],
      "stateMutability": "nonpayable",
      "type": "function"
    },
    {
      "inputs": [
        {
          "internalType": "address",
          "name": "newImplementation",
          "type": "address"
        },
        {
          "internalType": "bytes",
          "name": "data",
          "type": "bytes"
        }
      ],
      "name": "upgradeToAndCall",
      "outputs": [],
      "stateMutability": "payable",
      "type": "function",
      "payable": true
    },
    {
      "inputs": [
        {
          "internalType": "address",
          "name": "_admin",
          "type": "address"
        }
      ],
      "name": "initialize",
      "outputs": [],
      "stateMutability": "nonpayable",
      "type": "function"
    },
    {
      "inputs": [
        {
          "internalType": "address",
          "name": "_admin",
          "type": "address"
        }
      ],
      "name": "changeAdmin",
      "outputs": [],
      "stateMutability": "nonpayable",
      "type": "function"
    }
  ],
  "bytecode": "0x608060405234801561001057600080fd5b50610851806100206000396000f3fe60806040526004361061004a5760003560e01c80633659cfe61461004f5780634f1ef286146100715780638f28397014610084578063c4d66de8146100a4578063f851a440146100c4575b600080fd5b34801561005b57600080fd5b5061006f61006a366004610688565b610100565b005b61006f61007f3660046106a2565b610127565b34801561009057600080fd5b5061006f61009f366004610688565b610140565b3480156100b057600080fd5b5061006f6100bf366004610688565b6101ad565b3480156100d057600080fd5b506065546100e4906001600160a01b031681565b6040516001600160a01b03909116815260200160405180910390f35b6101098161027b565b610124816040518060200160405280600081525060006102c1565b50565b6101308261027b565b61013c828260016102c1565b5050565b6065546001600160a01b0316331461018b5760405162461bcd60e51b81526020600482015260096024820152682737ba1030b236b4b760b91b60448201526064015b60405180910390fd5b606580546001600160a01b0319166001600160a01b0392909216919091179055565b600054610100900460ff16806101c6575060005460ff16155b6102295760405162461bcd60e51b815260206004820152602e60248201527f496e697469616c697a61626c653a20636f6e747261637420697320616c72656160448201526d191e481a5b9a5d1a585b1a5e995960921b6064820152608401610182565b600054610100900460ff1615801561024b576000805461ffff19166101011790555b606580546001600160a01b0319166001600160a01b038416179055801561013c576000805461ff00191690555050565b6065546001600160a01b031633146101245760405162461bcd60e51b81526020600482015260096024820152682737ba1030b236b4b760b91b6044820152606401610182565b60006102f47f360894a13ba1a3210667c828492db98dca3e2076cc3735a920a3ca505d382bbc546001600160a01b031690565b90506102ff84610449565b60008351118061030c5750815b1561031d5761031b84846104f5565b505b7f4910fdfa16fed3260ed0e7147f7cc6da11a60208b5b9406d12a635614ffd9143805460ff1661044257805460ff191660011781556040516001600160a01b038316602482015261039c90869060440160408051601f198184030181529190526020810180516001600160e01b0316631b2ce7f360e11b1790526104f5565b50805460ff191681557f360894a13ba1a3210667c828492db98dca3e2076cc3735a920a3ca505d382bbc546001600160a01b038381169116146104395760405162461bcd60e51b815260206004820152602f60248201527f45524331393637557067726164653a207570677261646520627265616b73206660448201526e75727468657220757067726164657360881b6064820152608401610182565b610442856105e7565b5050505050565b61045281610627565b6104b45760405162461bcd60e51b815260206004820152602d60248201527f455243313936373a206e657720696d706c656d656e746174696f6e206973206e60448201526c1bdd08184818dbdb9d1c9858dd609a1b6064820152608401610182565b7f360894a13ba1a3210667c828492db98dca3e2076cc3735a920a3ca505d382bbc80546001600160a01b0319166001600160a01b0392909216919091179055565b606061050083610627565b61055b5760405162461bcd60e51b815260206004820152602660248201527f416464726573733a2064656c65676174652063616c6c20746f206e6f6e2d636f6044820152651b9d1c9858dd60d21b6064820152608401610182565b600080846001600160a01b031684604051610576919061075f565b600060405180830381855af49150503d80600081146105b1576040519150601f19603f3d011682016040523d82523d6000602084013e6105b6565b606091505b50915091506105de82826040518060600160405280602781526020016107f560279139610631565b95945050505050565b6105f081610449565b6040516001600160a01b038216907fbc7cd75a20ee27fd9adebab32041f755214dbc6bffa90cc0225b39da2e5c2d3b90600090a250565b803b15155b919050565b6060831561064057508161066a565b8251156106505782518084602001fd5b8160405162461bcd60e51b8152600401610182919061077b565b9392505050565b80356001600160a01b038116811461062c57600080fd5b600060208284031215610699578081fd5b61066a82610671565b600080604083850312156106b4578081fd5b6106bd83610671565b9150602083013567ffffffffffffffff808211156106d9578283fd5b818501915085601f8301126106ec578283fd5b8135818111156106fe576106fe6107de565b604051601f8201601f19908116603f01168101908382118183101715610726576107266107de565b8160405282815288602084870101111561073e578586fd5b82602086016020830137856020848301015280955050505050509250929050565b600082516107718184602087016107ae565b9190910192915050565b600060208252825180602084015261079a8160408501602087016107ae565b601f01601f19169190910160400192915050565b60005b838110156107c95781810151838201526020016107b1565b838111156107d8576000848401525b50505050565b634e487b7160e01b600052604160045260246000fdfe416464726573733a206c6f772d6c6576656c2064656c65676174652063616c6c206661696c6564a2646970667358221220ef8ebd50ba759ad785e9540e8c88cc5ea472a30aeaf9404af3be3ba7e92374be64736f6c63430008030033",
  "immutableReferences": {},
  "source": "// SPDX-License-Identifier: BUSL-1.1\n\npragma solidity 0.8.3;\n\nimport \"@openzeppelin/contracts-upgradeable/proxy/utils/Initializable.sol\";\nimport \"@openzeppelin/contracts-upgradeable/proxy/utils/UUPSUpgradeable.sol\";\n\n/** @title Treasury Contract */\ncontract Treasury_v0 is Initializable, UUPSUpgradeable {\n  address public admin;\n\n  /*\n              MODIFIERS          \n    */\n\n  modifier onlyAdmin() {\n    require(msg.sender == admin, \"Not admin\");\n    _;\n  }\n\n  /*\n            CONTRACT SETUP        \n    */\n\n  function initialize(address _admin) external initializer {\n    admin = _admin;\n  }\n\n  /*\n        MULTISIG ADMIN FUNCTIONS    \n    */\n\n  function changeAdmin(address _admin) external onlyAdmin {\n    admin = _admin;\n  }\n\n  /// @notice Authorizes an upgrade to a new address.\n  /// @dev Can only be called by the current admin.\n  function _authorizeUpgrade(address) internal override onlyAdmin {}\n\n  /** To be upgraded in future allowing governance of treasury \n    and its funds */\n}\n",
  "sourcePath": "/home/jasoons/Documents/code/monorepo/contracts/contracts/Treasury_v0.sol",
  "compiler": {
    "name": "solc",
    "version": "0.8.3+commit.8d00100c.Emscripten.clang"
  },
  "schemaVersion": "3.4.3",
  "updatedAt": "2021-08-20T13:02:09.057Z",
  "networkType": "ethereum",
  "devdoc": {
    "kind": "dev",
    "methods": {
      "upgradeTo(address)": {
        "details": "Upgrade the implementation of the proxy to `newImplementation`. Calls {_authorizeUpgrade}. Emits an {Upgraded} event."
      },
      "upgradeToAndCall(address,bytes)": {
        "details": "Upgrade the implementation of the proxy to `newImplementation`, and subsequently execute the function call encoded in `data`. Calls {_authorizeUpgrade}. Emits an {Upgraded} event."
      }
    },
    "title": "Treasury Contract ",
    "version": 1
  },
  "userdoc": {
    "kind": "user",
    "methods": {},
    "version": 1
  }
}